{
	".deps/remix-tests/remix_accounts.sol": {
		"TestsAccounts": {
			"abi": [
				{
					"inputs": [
						{
							"internalType": "uint256",
							"name": "index",
							"type": "uint256"
						}
					],
					"name": "getAccount",
					"outputs": [
						{
							"internalType": "address",
							"name": "",
							"type": "address"
						}
					],
					"stateMutability": "pure",
					"type": "function"
				}
			],
			"devdoc": {
				"kind": "dev",
				"methods": {},
				"version": 1
			},
			"evm": {
				"assembly": "    /* \".deps/remix-tests/remix_accounts.sol\":71:1152  library TestsAccounts {... */\n  dataSize(sub_0)\n  dataOffset(sub_0)\n  0x0b\n  dup3\n  dup3\n  dup3\n  codecopy\n  dup1\n  mload\n  0x00\n  byte\n  0x73\n  eq\n  tag_1\n  jumpi\n  mstore(0x00, 0x4e487b7100000000000000000000000000000000000000000000000000000000)\n  mstore(0x04, 0x00)\n  revert(0x00, 0x24)\ntag_1:\n  mstore(0x00, address)\n  0x73\n  dup2\n  mstore8\n  dup3\n  dup2\n  return\nstop\n\nsub_0: assembly {\n        /* \".deps/remix-tests/remix_accounts.sol\":71:1152  library TestsAccounts {... */\n      eq(address, deployTimeAddress())\n      mstore(0x40, 0x80)\n      jumpi(tag_1, lt(calldatasize, 0x04))\n      shr(0xe0, calldataload(0x00))\n      dup1\n      0xce88b145\n      eq\n      tag_2\n      jumpi\n    tag_1:\n      revert(0x00, 0x00)\n        /* \".deps/remix-tests/remix_accounts.sol\":99:1150  function getAccount(uint index)  public pure  returns (address) {... */\n    tag_2:\n      tag_3\n      0x04\n      dup1\n      calldatasize\n      sub\n      dup2\n      add\n      swap1\n      tag_4\n      swap2\n      swap1\n      tag_5\n      jump\t// in\n    tag_4:\n      tag_6\n      jump\t// in\n    tag_3:\n      mload(0x40)\n      tag_7\n      swap2\n      swap1\n      tag_8\n      jump\t// in\n    tag_7:\n      mload(0x40)\n      dup1\n      swap2\n      sub\n      swap1\n      return\n    tag_6:\n        /* \".deps/remix-tests/remix_accounts.sol\":154:161  address */\n      0x00\n        /* \".deps/remix-tests/remix_accounts.sol\":173:200  address[15] memory accounts */\n      tag_10\n      tag_11\n      jump\t// in\n    tag_10:\n        /* \".deps/remix-tests/remix_accounts.sol\":218:260  0x5B38Da6a701c568545dCfcB03FcB875f56beddC4 */\n      0x5b38da6a701c568545dcfcb03fcb875f56beddc4\n        /* \".deps/remix-tests/remix_accounts.sol\":204:212  accounts */\n      dup2\n        /* \".deps/remix-tests/remix_accounts.sol\":213:214  0 */\n      0x00\n        /* \".deps/remix-tests/remix_accounts.sol\":204:215  accounts[0] */\n      0x0f\n      dup2\n      lt\n      tag_12\n      jumpi\n      tag_13\n      tag_14\n      jump\t// in\n    tag_13:\n    tag_12:\n      0x20\n      mul\n      add\n        /* \".deps/remix-tests/remix_accounts.sol\":204:260  accounts[0] = 0x5B38Da6a701c568545dCfcB03FcB875f56beddC4 */\n      swap1\n      0xffffffffffffffffffffffffffffffffffffffff\n      and\n      swap1\n      dup2\n      0xffffffffffffffffffffffffffffffffffffffff\n      and\n      dup2\n      mstore\n      pop\n      pop\n        /* \".deps/remix-tests/remix_accounts.sol\":279:321  0xAb8483F64d9C6d1EcF9b849Ae677dD3315835cb2 */\n      0xab8483f64d9c6d1ecf9b849ae677dd3315835cb2\n        /* \".deps/remix-tests/remix_accounts.sol\":265:273  accounts */\n      dup2\n        /* \".deps/remix-tests/remix_accounts.sol\":274:275  1 */\n      0x01\n        /* \".deps/remix-tests/remix_accounts.sol\":265:276  accounts[1] */\n      0x0f\n      dup2\n      lt\n      tag_15\n      jumpi\n      tag_16\n      tag_14\n      jump\t// in\n    tag_16:\n    tag_15:\n      0x20\n      mul\n      add\n        /* \".deps/remix-tests/remix_accounts.sol\":265:321  accounts[1] = 0xAb8483F64d9C6d1EcF9b849Ae677dD3315835cb2 */\n      swap1\n      0xffffffffffffffffffffffffffffffffffffffff\n      and\n      swap1\n      dup2\n      0xffffffffffffffffffffffffffffffffffffffff\n      and\n      dup2\n      mstore\n      pop\n      pop\n        /* \".deps/remix-tests/remix_accounts.sol\":340:382  0x4B20993Bc481177ec7E8f571ceCaE8A9e22C02db */\n      0x4b20993bc481177ec7e8f571cecae8a9e22c02db\n        /* \".deps/remix-tests/remix_accounts.sol\":326:334  accounts */\n      dup2\n        /* \".deps/remix-tests/remix_accounts.sol\":335:336  2 */\n      0x02\n        /* \".deps/remix-tests/remix_accounts.sol\":326:337  accounts[2] */\n      0x0f\n      dup2\n      lt\n      tag_17\n      jumpi\n      tag_18\n      tag_14\n      jump\t// in\n    tag_18:\n    tag_17:\n      0x20\n      mul\n      add\n        /* \".deps/remix-tests/remix_accounts.sol\":326:382  accounts[2] = 0x4B20993Bc481177ec7E8f571ceCaE8A9e22C02db */\n      swap1\n      0xffffffffffffffffffffffffffffffffffffffff\n      and\n      swap1\n      dup2\n      0xffffffffffffffffffffffffffffffffffffffff\n      and\n      dup2\n      mstore\n      pop\n      pop\n        /* \".deps/remix-tests/remix_accounts.sol\":401:443  0x78731D3Ca6b7E34aC0F824c42a7cC18A495cabaB */\n      0x78731d3ca6b7e34ac0f824c42a7cc18a495cabab\n        /* \".deps/remix-tests/remix_accounts.sol\":387:395  accounts */\n      dup2\n        /* \".deps/remix-tests/remix_accounts.sol\":396:397  3 */\n      0x03\n        /* \".deps/remix-tests/remix_accounts.sol\":387:398  accounts[3] */\n      0x0f\n      dup2\n      lt\n      tag_19\n      jumpi\n      tag_20\n      tag_14\n      jump\t// in\n    tag_20:\n    tag_19:\n      0x20\n      mul\n      add\n        /* \".deps/remix-tests/remix_accounts.sol\":387:443  accounts[3] = 0x78731D3Ca6b7E34aC0F824c42a7cC18A495cabaB */\n      swap1\n      0xffffffffffffffffffffffffffffffffffffffff\n      and\n      swap1\n      dup2\n      0xffffffffffffffffffffffffffffffffffffffff\n      and\n      dup2\n      mstore\n      pop\n      pop\n        /* \".deps/remix-tests/remix_accounts.sol\":462:504  0x617F2E2fD72FD9D5503197092aC168c91465E7f2 */\n      0x617f2e2fd72fd9d5503197092ac168c91465e7f2\n        /* \".deps/remix-tests/remix_accounts.sol\":448:456  accounts */\n      dup2\n        /* \".deps/remix-tests/remix_accounts.sol\":457:458  4 */\n      0x04\n        /* \".deps/remix-tests/remix_accounts.sol\":448:459  accounts[4] */\n      0x0f\n      dup2\n      lt\n      tag_21\n      jumpi\n      tag_22\n      tag_14\n      jump\t// in\n    tag_22:\n    tag_21:\n      0x20\n      mul\n      add\n        /* \".deps/remix-tests/remix_accounts.sol\":448:504  accounts[4] = 0x617F2E2fD72FD9D5503197092aC168c91465E7f2 */\n      swap1\n      0xffffffffffffffffffffffffffffffffffffffff\n      and\n      swap1\n      dup2\n      0xffffffffffffffffffffffffffffffffffffffff\n      and\n      dup2\n      mstore\n      pop\n      pop\n        /* \".deps/remix-tests/remix_accounts.sol\":523:565  0x17F6AD8Ef982297579C203069C1DbfFE4348c372 */\n      0x17f6ad8ef982297579c203069c1dbffe4348c372\n        /* \".deps/remix-tests/remix_accounts.sol\":509:517  accounts */\n      dup2\n        /* \".deps/remix-tests/remix_accounts.sol\":518:519  5 */\n      0x05\n        /* \".deps/remix-tests/remix_accounts.sol\":509:520  accounts[5] */\n      0x0f\n      dup2\n      lt\n      tag_23\n      jumpi\n      tag_24\n      tag_14\n      jump\t// in\n    tag_24:\n    tag_23:\n      0x20\n      mul\n      add\n        /* \".deps/remix-tests/remix_accounts.sol\":509:565  accounts[5] = 0x17F6AD8Ef982297579C203069C1DbfFE4348c372 */\n      swap1\n      0xffffffffffffffffffffffffffffffffffffffff\n      and\n      swap1\n      dup2\n      0xffffffffffffffffffffffffffffffffffffffff\n      and\n      dup2\n      mstore\n      pop\n      pop\n        /* \".deps/remix-tests/remix_accounts.sol\":584:626  0x5c6B0f7Bf3E7ce046039Bd8FABdfD3f9F5021678 */\n      0x5c6b0f7bf3e7ce046039bd8fabdfd3f9f5021678\n        /* \".deps/remix-tests/remix_accounts.sol\":570:578  accounts */\n      dup2\n        /* \".deps/remix-tests/remix_accounts.sol\":579:580  6 */\n      0x06\n        /* \".deps/remix-tests/remix_accounts.sol\":570:581  accounts[6] */\n      0x0f\n      dup2\n      lt\n      tag_25\n      jumpi\n      tag_26\n      tag_14\n      jump\t// in\n    tag_26:\n    tag_25:\n      0x20\n      mul\n      add\n        /* \".deps/remix-tests/remix_accounts.sol\":570:626  accounts[6] = 0x5c6B0f7Bf3E7ce046039Bd8FABdfD3f9F5021678 */\n      swap1\n      0xffffffffffffffffffffffffffffffffffffffff\n      and\n      swap1\n      dup2\n      0xffffffffffffffffffffffffffffffffffffffff\n      and\n      dup2\n      mstore\n      pop\n      pop\n        /* \".deps/remix-tests/remix_accounts.sol\":645:687  0x03C6FcED478cBbC9a4FAB34eF9f40767739D1Ff7 */\n      0x03c6fced478cbbc9a4fab34ef9f40767739d1ff7\n        /* \".deps/remix-tests/remix_accounts.sol\":631:639  accounts */\n      dup2\n        /* \".deps/remix-tests/remix_accounts.sol\":640:641  7 */\n      0x07\n        /* \".deps/remix-tests/remix_accounts.sol\":631:642  accounts[7] */\n      0x0f\n      dup2\n      lt\n      tag_27\n      jumpi\n      tag_28\n      tag_14\n      jump\t// in\n    tag_28:\n    tag_27:\n      0x20\n      mul\n      add\n        /* \".deps/remix-tests/remix_accounts.sol\":631:687  accounts[7] = 0x03C6FcED478cBbC9a4FAB34eF9f40767739D1Ff7 */\n      swap1\n      0xffffffffffffffffffffffffffffffffffffffff\n      and\n      swap1\n      dup2\n      0xffffffffffffffffffffffffffffffffffffffff\n      and\n      dup2\n      mstore\n      pop\n      pop\n        /* \".deps/remix-tests/remix_accounts.sol\":706:748  0x1aE0EA34a72D944a8C7603FfB3eC30a6669E454C */\n      0x1ae0ea34a72d944a8c7603ffb3ec30a6669e454c\n        /* \".deps/remix-tests/remix_accounts.sol\":692:700  accounts */\n      dup2\n        /* \".deps/remix-tests/remix_accounts.sol\":701:702  8 */\n      0x08\n        /* \".deps/remix-tests/remix_accounts.sol\":692:703  accounts[8] */\n      0x0f\n      dup2\n      lt\n      tag_29\n      jumpi\n      tag_30\n      tag_14\n      jump\t// in\n    tag_30:\n    tag_29:\n      0x20\n      mul\n      add\n        /* \".deps/remix-tests/remix_accounts.sol\":692:748  accounts[8] = 0x1aE0EA34a72D944a8C7603FfB3eC30a6669E454C */\n      swap1\n      0xffffffffffffffffffffffffffffffffffffffff\n      and\n      swap1\n      dup2\n      0xffffffffffffffffffffffffffffffffffffffff\n      and\n      dup2\n      mstore\n      pop\n      pop\n        /* \".deps/remix-tests/remix_accounts.sol\":767:809  0x0A098Eda01Ce92ff4A4CCb7A4fFFb5A43EBC70DC */\n      0x0a098eda01ce92ff4a4ccb7a4fffb5a43ebc70dc\n        /* \".deps/remix-tests/remix_accounts.sol\":753:761  accounts */\n      dup2\n        /* \".deps/remix-tests/remix_accounts.sol\":762:763  9 */\n      0x09\n        /* \".deps/remix-tests/remix_accounts.sol\":753:764  accounts[9] */\n      0x0f\n      dup2\n      lt\n      tag_31\n      jumpi\n      tag_32\n      tag_14\n      jump\t// in\n    tag_32:\n    tag_31:\n      0x20\n      mul\n      add\n        /* \".deps/remix-tests/remix_accounts.sol\":753:809  accounts[9] = 0x0A098Eda01Ce92ff4A4CCb7A4fFFb5A43EBC70DC */\n      swap1\n      0xffffffffffffffffffffffffffffffffffffffff\n      and\n      swap1\n      dup2\n      0xffffffffffffffffffffffffffffffffffffffff\n      and\n      dup2\n      mstore\n      pop\n      pop\n        /* \".deps/remix-tests/remix_accounts.sol\":829:871  0xCA35b7d915458EF540aDe6068dFe2F44E8fa733c */\n      0xca35b7d915458ef540ade6068dfe2f44e8fa733c\n        /* \".deps/remix-tests/remix_accounts.sol\":814:822  accounts */\n      dup2\n        /* \".deps/remix-tests/remix_accounts.sol\":823:825  10 */\n      0x0a\n        /* \".deps/remix-tests/remix_accounts.sol\":814:826  accounts[10] */\n      0x0f\n      dup2\n      lt\n      tag_33\n      jumpi\n      tag_34\n      tag_14\n      jump\t// in\n    tag_34:\n    tag_33:\n      0x20\n      mul\n      add\n        /* \".deps/remix-tests/remix_accounts.sol\":814:871  accounts[10] = 0xCA35b7d915458EF540aDe6068dFe2F44E8fa733c */\n      swap1\n      0xffffffffffffffffffffffffffffffffffffffff\n      and\n      swap1\n      dup2\n      0xffffffffffffffffffffffffffffffffffffffff\n      and\n      dup2\n      mstore\n      pop\n      pop\n        /* \".deps/remix-tests/remix_accounts.sol\":891:933  0x14723A09ACff6D2A60DcdF7aA4AFf308FDDC160C */\n      0x14723a09acff6d2a60dcdf7aa4aff308fddc160c\n        /* \".deps/remix-tests/remix_accounts.sol\":876:884  accounts */\n      dup2\n        /* \".deps/remix-tests/remix_accounts.sol\":885:887  11 */\n      0x0b\n        /* \".deps/remix-tests/remix_accounts.sol\":876:888  accounts[11] */\n      0x0f\n      dup2\n      lt\n      tag_35\n      jumpi\n      tag_36\n      tag_14\n      jump\t// in\n    tag_36:\n    tag_35:\n      0x20\n      mul\n      add\n        /* \".deps/remix-tests/remix_accounts.sol\":876:933  accounts[11] = 0x14723A09ACff6D2A60DcdF7aA4AFf308FDDC160C */\n      swap1\n      0xffffffffffffffffffffffffffffffffffffffff\n      and\n      swap1\n      dup2\n      0xffffffffffffffffffffffffffffffffffffffff\n      and\n      dup2\n      mstore\n      pop\n      pop\n        /* \".deps/remix-tests/remix_accounts.sol\":953:995  0x4B0897b0513fdC7C541B6d9D7E929C4e5364D2dB */\n      0x4b0897b0513fdc7c541b6d9d7e929c4e5364d2db\n        /* \".deps/remix-tests/remix_accounts.sol\":938:946  accounts */\n      dup2\n        /* \".deps/remix-tests/remix_accounts.sol\":947:949  12 */\n      0x0c\n        /* \".deps/remix-tests/remix_accounts.sol\":938:950  accounts[12] */\n      0x0f\n      dup2\n      lt\n      tag_37\n      jumpi\n      tag_38\n      tag_14\n      jump\t// in\n    tag_38:\n    tag_37:\n      0x20\n      mul\n      add\n        /* \".deps/remix-tests/remix_accounts.sol\":938:995  accounts[12] = 0x4B0897b0513fdC7C541B6d9D7E929C4e5364D2dB */\n      swap1\n      0xffffffffffffffffffffffffffffffffffffffff\n      and\n      swap1\n      dup2\n      0xffffffffffffffffffffffffffffffffffffffff\n      and\n      dup2\n      mstore\n      pop\n      pop\n        /* \".deps/remix-tests/remix_accounts.sol\":1015:1057  0x583031D1113aD414F02576BD6afaBfb302140225 */\n      0x583031d1113ad414f02576bd6afabfb302140225\n        /* \".deps/remix-tests/remix_accounts.sol\":1000:1008  accounts */\n      dup2\n        /* \".deps/remix-tests/remix_accounts.sol\":1009:1011  13 */\n      0x0d\n        /* \".deps/remix-tests/remix_accounts.sol\":1000:1012  accounts[13] */\n      0x0f\n      dup2\n      lt\n      tag_39\n      jumpi\n      tag_40\n      tag_14\n      jump\t// in\n    tag_40:\n    tag_39:\n      0x20\n      mul\n      add\n        /* \".deps/remix-tests/remix_accounts.sol\":1000:1057  accounts[13] = 0x583031D1113aD414F02576BD6afaBfb302140225 */\n      swap1\n      0xffffffffffffffffffffffffffffffffffffffff\n      and\n      swap1\n      dup2\n      0xffffffffffffffffffffffffffffffffffffffff\n      and\n      dup2\n      mstore\n      pop\n      pop\n        /* \".deps/remix-tests/remix_accounts.sol\":1077:1119  0xdD870fA1b7C4700F2BD7f44238821C26f7392148 */\n      0xdd870fa1b7c4700f2bd7f44238821c26f7392148\n        /* \".deps/remix-tests/remix_accounts.sol\":1062:1070  accounts */\n      dup2\n        /* \".deps/remix-tests/remix_accounts.sol\":1071:1073  14 */\n      0x0e\n        /* \".deps/remix-tests/remix_accounts.sol\":1062:1074  accounts[14] */\n      0x0f\n      dup2\n      lt\n      tag_41\n      jumpi\n      tag_42\n      tag_14\n      jump\t// in\n    tag_42:\n    tag_41:\n      0x20\n      mul\n      add\n        /* \".deps/remix-tests/remix_accounts.sol\":1062:1119  accounts[14] = 0xdD870fA1b7C4700F2BD7f44238821C26f7392148 */\n      swap1\n      0xffffffffffffffffffffffffffffffffffffffff\n      and\n      swap1\n      dup2\n      0xffffffffffffffffffffffffffffffffffffffff\n      and\n      dup2\n      mstore\n      pop\n      pop\n        /* \".deps/remix-tests/remix_accounts.sol\":1128:1136  accounts */\n      dup1\n        /* \".deps/remix-tests/remix_accounts.sol\":1137:1142  index */\n      dup4\n        /* \".deps/remix-tests/remix_accounts.sol\":1128:1143  accounts[index] */\n      0x0f\n      dup2\n      lt\n      tag_43\n      jumpi\n      tag_44\n      tag_14\n      jump\t// in\n    tag_44:\n    tag_43:\n      0x20\n      mul\n      add\n      mload\n        /* \".deps/remix-tests/remix_accounts.sol\":1121:1143  return accounts[index] */\n      swap2\n      pop\n      pop\n        /* \".deps/remix-tests/remix_accounts.sol\":99:1150  function getAccount(uint index)  public pure  returns (address) {... */\n      swap2\n      swap1\n      pop\n      jump\t// out\n    tag_11:\n      mload(0x40)\n      dup1\n      0x01e0\n      add\n      0x40\n      mstore\n      dup1\n      0x0f\n      swap1\n      0x20\n      dup3\n      mul\n      dup1\n      calldatasize\n      dup4\n      calldatacopy\n      dup1\n      dup3\n      add\n      swap2\n      pop\n      pop\n      swap1\n      pop\n      pop\n      swap1\n      jump\t// out\n        /* \"#utility.yul\":88:205   */\n    tag_46:\n        /* \"#utility.yul\":197:198   */\n      0x00\n        /* \"#utility.yul\":194:195   */\n      0x00\n        /* \"#utility.yul\":187:199   */\n      revert\n        /* \"#utility.yul\":334:411   */\n    tag_48:\n        /* \"#utility.yul\":371:378   */\n      0x00\n        /* \"#utility.yul\":400:405   */\n      dup2\n        /* \"#utility.yul\":389:405   */\n      swap1\n      pop\n        /* \"#utility.yul\":334:411   */\n      swap2\n      swap1\n      pop\n      jump\t// out\n        /* \"#utility.yul\":417:539   */\n    tag_49:\n        /* \"#utility.yul\":490:514   */\n      tag_60\n        /* \"#utility.yul\":508:513   */\n      dup2\n        /* \"#utility.yul\":490:514   */\n      tag_48\n      jump\t// in\n    tag_60:\n        /* \"#utility.yul\":483:488   */\n      dup2\n        /* \"#utility.yul\":480:515   */\n      eq\n        /* \"#utility.yul\":470:533   */\n      tag_61\n      jumpi\n        /* \"#utility.yul\":529:530   */\n      0x00\n        /* \"#utility.yul\":526:527   */\n      0x00\n        /* \"#utility.yul\":519:531   */\n      revert\n        /* \"#utility.yul\":470:533   */\n    tag_61:\n        /* \"#utility.yul\":417:539   */\n      pop\n      jump\t// out\n        /* \"#utility.yul\":545:684   */\n    tag_50:\n        /* \"#utility.yul\":591:596   */\n      0x00\n        /* \"#utility.yul\":629:635   */\n      dup2\n        /* \"#utility.yul\":616:636   */\n      calldataload\n        /* \"#utility.yul\":607:636   */\n      swap1\n      pop\n        /* \"#utility.yul\":645:678   */\n      tag_63\n        /* \"#utility.yul\":672:677   */\n      dup2\n        /* \"#utility.yul\":645:678   */\n      tag_49\n      jump\t// in\n    tag_63:\n        /* \"#utility.yul\":545:684   */\n      swap3\n      swap2\n      pop\n      pop\n      jump\t// out\n        /* \"#utility.yul\":690:1019   */\n    tag_5:\n        /* \"#utility.yul\":749:755   */\n      0x00\n        /* \"#utility.yul\":798:800   */\n      0x20\n        /* \"#utility.yul\":786:795   */\n      dup3\n        /* \"#utility.yul\":777:784   */\n      dup5\n        /* \"#utility.yul\":773:796   */\n      sub\n        /* \"#utility.yul\":769:801   */\n      slt\n        /* \"#utility.yul\":766:885   */\n      iszero\n      tag_65\n      jumpi\n        /* \"#utility.yul\":804:883   */\n      tag_66\n      tag_46\n      jump\t// in\n    tag_66:\n        /* \"#utility.yul\":766:885   */\n    tag_65:\n        /* \"#utility.yul\":924:925   */\n      0x00\n        /* \"#utility.yul\":949:1002   */\n      tag_67\n        /* \"#utility.yul\":994:1001   */\n      dup5\n        /* \"#utility.yul\":985:991   */\n      dup3\n        /* \"#utility.yul\":974:983   */\n      dup6\n        /* \"#utility.yul\":970:992   */\n      add\n        /* \"#utility.yul\":949:1002   */\n      tag_50\n      jump\t// in\n    tag_67:\n        /* \"#utility.yul\":939:1002   */\n      swap2\n      pop\n        /* \"#utility.yul\":895:1012   */\n      pop\n        /* \"#utility.yul\":690:1019   */\n      swap3\n      swap2\n      pop\n      pop\n      jump\t// out\n        /* \"#utility.yul\":1025:1151   */\n    tag_51:\n        /* \"#utility.yul\":1062:1069   */\n      0x00\n        /* \"#utility.yul\":1102:1144   */\n      0xffffffffffffffffffffffffffffffffffffffff\n        /* \"#utility.yul\":1095:1100   */\n      dup3\n        /* \"#utility.yul\":1091:1145   */\n      and\n        /* \"#utility.yul\":1080:1145   */\n      swap1\n      pop\n        /* \"#utility.yul\":1025:1151   */\n      swap2\n      swap1\n      pop\n      jump\t// out\n        /* \"#utility.yul\":1157:1253   */\n    tag_52:\n        /* \"#utility.yul\":1194:1201   */\n      0x00\n        /* \"#utility.yul\":1223:1247   */\n      tag_70\n        /* \"#utility.yul\":1241:1246   */\n      dup3\n        /* \"#utility.yul\":1223:1247   */\n      tag_51\n      jump\t// in\n    tag_70:\n        /* \"#utility.yul\":1212:1247   */\n      swap1\n      pop\n        /* \"#utility.yul\":1157:1253   */\n      swap2\n      swap1\n      pop\n      jump\t// out\n        /* \"#utility.yul\":1259:1385   */\n    tag_53:\n        /* \"#utility.yul\":1354:1378   */\n      tag_72\n        /* \"#utility.yul\":1372:1377   */\n      dup2\n        /* \"#utility.yul\":1354:1378   */\n      tag_52\n      jump\t// in\n    tag_72:\n        /* \"#utility.yul\":1349:1352   */\n      dup3\n        /* \"#utility.yul\":1342:1379   */\n      mstore\n        /* \"#utility.yul\":1259:1385   */\n      pop\n      pop\n      jump\t// out\n        /* \"#utility.yul\":1391:1629   */\n    tag_8:\n        /* \"#utility.yul\":1492:1496   */\n      0x00\n        /* \"#utility.yul\":1530:1532   */\n      0x20\n        /* \"#utility.yul\":1519:1528   */\n      dup3\n        /* \"#utility.yul\":1515:1533   */\n      add\n        /* \"#utility.yul\":1507:1533   */\n      swap1\n      pop\n        /* \"#utility.yul\":1543:1622   */\n      tag_74\n        /* \"#utility.yul\":1619:1620   */\n      0x00\n        /* \"#utility.yul\":1608:1617   */\n      dup4\n        /* \"#utility.yul\":1604:1621   */\n      add\n        /* \"#utility.yul\":1595:1601   */\n      dup5\n        /* \"#utility.yul\":1543:1622   */\n      tag_53\n      jump\t// in\n    tag_74:\n        /* \"#utility.yul\":1391:1629   */\n      swap3\n      swap2\n      pop\n      pop\n      jump\t// out\n        /* \"#utility.yul\":1635:1815   */\n    tag_14:\n        /* \"#utility.yul\":1683:1760   */\n      0x4e487b7100000000000000000000000000000000000000000000000000000000\n        /* \"#utility.yul\":1680:1681   */\n      0x00\n        /* \"#utility.yul\":1673:1761   */\n      mstore\n        /* \"#utility.yul\":1780:1784   */\n      0x32\n        /* \"#utility.yul\":1777:1778   */\n      0x04\n        /* \"#utility.yul\":1770:1785   */\n      mstore\n        /* \"#utility.yul\":1804:1808   */\n      0x24\n        /* \"#utility.yul\":1801:1802   */\n      0x00\n        /* \"#utility.yul\":1794:1809   */\n      revert\n\n    auxdata: 0xa264697066735822122049af1bcbfb2897e22804a97fa5004cd6c3b2ded7a54eb52874ba662ab93825d064736f6c634300081e0033\n}\n",
				"bytecode": {
					"linkReferences": {},
					"object": "61077061004d600b8282823980515f1a6073146041577f4e487b71000000000000000000000000000000000000000000000000000000005f525f60045260245ffd5b305f52607381538281f3fe7300000000000000000000000000000000000000003014608060405260043610610034575f3560e01c8063ce88b14514610038575b5f5ffd5b610052600480360381019061004d919061068a565b610068565b60405161005f91906106f4565b60405180910390f35b5f610071610630565b735b38da6a701c568545dcfcb03fcb875f56beddc4815f600f81106100995761009861070d565b5b602002019073ffffffffffffffffffffffffffffffffffffffff16908173ffffffffffffffffffffffffffffffffffffffff168152505073ab8483f64d9c6d1ecf9b849ae677dd3315835cb2816001600f81106100f9576100f861070d565b5b602002019073ffffffffffffffffffffffffffffffffffffffff16908173ffffffffffffffffffffffffffffffffffffffff1681525050734b20993bc481177ec7e8f571cecae8a9e22c02db816002600f81106101595761015861070d565b5b602002019073ffffffffffffffffffffffffffffffffffffffff16908173ffffffffffffffffffffffffffffffffffffffff16815250507378731d3ca6b7e34ac0f824c42a7cc18a495cabab816003600f81106101b9576101b861070d565b5b602002019073ffffffffffffffffffffffffffffffffffffffff16908173ffffffffffffffffffffffffffffffffffffffff168152505073617f2e2fd72fd9d5503197092ac168c91465e7f2816004600f81106102195761021861070d565b5b602002019073ffffffffffffffffffffffffffffffffffffffff16908173ffffffffffffffffffffffffffffffffffffffff16815250507317f6ad8ef982297579c203069c1dbffe4348c372816005600f81106102795761027861070d565b5b602002019073ffffffffffffffffffffffffffffffffffffffff16908173ffffffffffffffffffffffffffffffffffffffff1681525050735c6b0f7bf3e7ce046039bd8fabdfd3f9f5021678816006600f81106102d9576102d861070d565b5b602002019073ffffffffffffffffffffffffffffffffffffffff16908173ffffffffffffffffffffffffffffffffffffffff16815250507303c6fced478cbbc9a4fab34ef9f40767739d1ff7816007600f81106103395761033861070d565b5b602002019073ffffffffffffffffffffffffffffffffffffffff16908173ffffffffffffffffffffffffffffffffffffffff1681525050731ae0ea34a72d944a8c7603ffb3ec30a6669e454c816008600f81106103995761039861070d565b5b602002019073ffffffffffffffffffffffffffffffffffffffff16908173ffffffffffffffffffffffffffffffffffffffff1681525050730a098eda01ce92ff4a4ccb7a4fffb5a43ebc70dc816009600f81106103f9576103f861070d565b5b602002019073ffffffffffffffffffffffffffffffffffffffff16908173ffffffffffffffffffffffffffffffffffffffff168152505073ca35b7d915458ef540ade6068dfe2f44e8fa733c81600a600f81106104595761045861070d565b5b602002019073ffffffffffffffffffffffffffffffffffffffff16908173ffffffffffffffffffffffffffffffffffffffff16815250507314723a09acff6d2a60dcdf7aa4aff308fddc160c81600b600f81106104b9576104b861070d565b5b602002019073ffffffffffffffffffffffffffffffffffffffff16908173ffffffffffffffffffffffffffffffffffffffff1681525050734b0897b0513fdc7c541b6d9d7e929c4e5364d2db81600c600f81106105195761051861070d565b5b602002019073ffffffffffffffffffffffffffffffffffffffff16908173ffffffffffffffffffffffffffffffffffffffff168152505073583031d1113ad414f02576bd6afabfb30214022581600d600f81106105795761057861070d565b5b602002019073ffffffffffffffffffffffffffffffffffffffff16908173ffffffffffffffffffffffffffffffffffffffff168152505073dd870fa1b7c4700f2bd7f44238821c26f739214881600e600f81106105d9576105d861070d565b5b602002019073ffffffffffffffffffffffffffffffffffffffff16908173ffffffffffffffffffffffffffffffffffffffff16815250508083600f81106106235761062261070d565b5b6020020151915050919050565b604051806101e00160405280600f90602082028036833780820191505090505090565b5f5ffd5b5f819050919050565b61066981610657565b8114610673575f5ffd5b50565b5f8135905061068481610660565b92915050565b5f6020828403121561069f5761069e610653565b5b5f6106ac84828501610676565b91505092915050565b5f73ffffffffffffffffffffffffffffffffffffffff82169050919050565b5f6106de826106b5565b9050919050565b6106ee816106d4565b82525050565b5f6020820190506107075f8301846106e5565b92915050565b7f4e487b71000000000000000000000000000000000000000000000000000000005f52603260045260245ffdfea264697066735822122049af1bcbfb2897e22804a97fa5004cd6c3b2ded7a54eb52874ba662ab93825d064736f6c634300081e0033",
					"opcodes": "PUSH2 0x770 PUSH2 0x4D PUSH1 0xB DUP3 DUP3 DUP3 CODECOPY DUP1 MLOAD PUSH0 BYTE PUSH1 0x73 EQ PUSH1 0x41 JUMPI PUSH32 0x4E487B7100000000000000000000000000000000000000000000000000000000 PUSH0 MSTORE PUSH0 PUSH1 0x4 MSTORE PUSH1 0x24 PUSH0 REVERT JUMPDEST ADDRESS PUSH0 MSTORE PUSH1 0x73 DUP2 MSTORE8 DUP3 DUP2 RETURN INVALID PUSH20 0x0 ADDRESS EQ PUSH1 0x80 PUSH1 0x40 MSTORE PUSH1 0x4 CALLDATASIZE LT PUSH2 0x34 JUMPI PUSH0 CALLDATALOAD PUSH1 0xE0 SHR DUP1 PUSH4 0xCE88B145 EQ PUSH2 0x38 JUMPI JUMPDEST PUSH0 PUSH0 REVERT JUMPDEST PUSH2 0x52 PUSH1 0x4 DUP1 CALLDATASIZE SUB DUP2 ADD SWAP1 PUSH2 0x4D SWAP2 SWAP1 PUSH2 0x68A JUMP JUMPDEST PUSH2 0x68 JUMP JUMPDEST PUSH1 0x40 MLOAD PUSH2 0x5F SWAP2 SWAP1 PUSH2 0x6F4 JUMP JUMPDEST PUSH1 0x40 MLOAD DUP1 SWAP2 SUB SWAP1 RETURN JUMPDEST PUSH0 PUSH2 0x71 PUSH2 0x630 JUMP JUMPDEST PUSH20 0x5B38DA6A701C568545DCFCB03FCB875F56BEDDC4 DUP2 PUSH0 PUSH1 0xF DUP2 LT PUSH2 0x99 JUMPI PUSH2 0x98 PUSH2 0x70D JUMP JUMPDEST JUMPDEST PUSH1 0x20 MUL ADD SWAP1 PUSH20 0xFFFFFFFFFFFFFFFFFFFFFFFFFFFFFFFFFFFFFFFF AND SWAP1 DUP2 PUSH20 0xFFFFFFFFFFFFFFFFFFFFFFFFFFFFFFFFFFFFFFFF AND DUP2 MSTORE POP POP PUSH20 0xAB8483F64D9C6D1ECF9B849AE677DD3315835CB2 DUP2 PUSH1 0x1 PUSH1 0xF DUP2 LT PUSH2 0xF9 JUMPI PUSH2 0xF8 PUSH2 0x70D JUMP JUMPDEST JUMPDEST PUSH1 0x20 MUL ADD SWAP1 PUSH20 0xFFFFFFFFFFFFFFFFFFFFFFFFFFFFFFFFFFFFFFFF AND SWAP1 DUP2 PUSH20 0xFFFFFFFFFFFFFFFFFFFFFFFFFFFFFFFFFFFFFFFF AND DUP2 MSTORE POP POP PUSH20 0x4B20993BC481177EC7E8F571CECAE8A9E22C02DB DUP2 PUSH1 0x2 PUSH1 0xF DUP2 LT PUSH2 0x159 JUMPI PUSH2 0x158 PUSH2 0x70D JUMP JUMPDEST JUMPDEST PUSH1 0x20 MUL ADD SWAP1 PUSH20 0xFFFFFFFFFFFFFFFFFFFFFFFFFFFFFFFFFFFFFFFF AND SWAP1 DUP2 PUSH20 0xFFFFFFFFFFFFFFFFFFFFFFFFFFFFFFFFFFFFFFFF AND DUP2 MSTORE POP POP PUSH20 0x78731D3CA6B7E34AC0F824C42A7CC18A495CABAB DUP2 PUSH1 0x3 PUSH1 0xF DUP2 LT PUSH2 0x1B9 JUMPI PUSH2 0x1B8 PUSH2 0x70D JUMP JUMPDEST JUMPDEST PUSH1 0x20 MUL ADD SWAP1 PUSH20 0xFFFFFFFFFFFFFFFFFFFFFFFFFFFFFFFFFFFFFFFF AND SWAP1 DUP2 PUSH20 0xFFFFFFFFFFFFFFFFFFFFFFFFFFFFFFFFFFFFFFFF AND DUP2 MSTORE POP POP PUSH20 0x617F2E2FD72FD9D5503197092AC168C91465E7F2 DUP2 PUSH1 0x4 PUSH1 0xF DUP2 LT PUSH2 0x219 JUMPI PUSH2 0x218 PUSH2 0x70D JUMP JUMPDEST JUMPDEST PUSH1 0x20 MUL ADD SWAP1 PUSH20 0xFFFFFFFFFFFFFFFFFFFFFFFFFFFFFFFFFFFFFFFF AND SWAP1 DUP2 PUSH20 0xFFFFFFFFFFFFFFFFFFFFFFFFFFFFFFFFFFFFFFFF AND DUP2 MSTORE POP POP PUSH20 0x17F6AD8EF982297579C203069C1DBFFE4348C372 DUP2 PUSH1 0x5 PUSH1 0xF DUP2 LT PUSH2 0x279 JUMPI PUSH2 0x278 PUSH2 0x70D JUMP JUMPDEST JUMPDEST PUSH1 0x20 MUL ADD SWAP1 PUSH20 0xFFFFFFFFFFFFFFFFFFFFFFFFFFFFFFFFFFFFFFFF AND SWAP1 DUP2 PUSH20 0xFFFFFFFFFFFFFFFFFFFFFFFFFFFFFFFFFFFFFFFF AND DUP2 MSTORE POP POP PUSH20 0x5C6B0F7BF3E7CE046039BD8FABDFD3F9F5021678 DUP2 PUSH1 0x6 PUSH1 0xF DUP2 LT PUSH2 0x2D9 JUMPI PUSH2 0x2D8 PUSH2 0x70D JUMP JUMPDEST JUMPDEST PUSH1 0x20 MUL ADD SWAP1 PUSH20 0xFFFFFFFFFFFFFFFFFFFFFFFFFFFFFFFFFFFFFFFF AND SWAP1 DUP2 PUSH20 0xFFFFFFFFFFFFFFFFFFFFFFFFFFFFFFFFFFFFFFFF AND DUP2 MSTORE POP POP PUSH20 0x3C6FCED478CBBC9A4FAB34EF9F40767739D1FF7 DUP2 PUSH1 0x7 PUSH1 0xF DUP2 LT PUSH2 0x339 JUMPI PUSH2 0x338 PUSH2 0x70D JUMP JUMPDEST JUMPDEST PUSH1 0x20 MUL ADD SWAP1 PUSH20 0xFFFFFFFFFFFFFFFFFFFFFFFFFFFFFFFFFFFFFFFF AND SWAP1 DUP2 PUSH20 0xFFFFFFFFFFFFFFFFFFFFFFFFFFFFFFFFFFFFFFFF AND DUP2 MSTORE POP POP PUSH20 0x1AE0EA34A72D944A8C7603FFB3EC30A6669E454C DUP2 PUSH1 0x8 PUSH1 0xF DUP2 LT PUSH2 0x399 JUMPI PUSH2 0x398 PUSH2 0x70D JUMP JUMPDEST JUMPDEST PUSH1 0x20 MUL ADD SWAP1 PUSH20 0xFFFFFFFFFFFFFFFFFFFFFFFFFFFFFFFFFFFFFFFF AND SWAP1 DUP2 PUSH20 0xFFFFFFFFFFFFFFFFFFFFFFFFFFFFFFFFFFFFFFFF AND DUP2 MSTORE POP POP PUSH20 0xA098EDA01CE92FF4A4CCB7A4FFFB5A43EBC70DC DUP2 PUSH1 0x9 PUSH1 0xF DUP2 LT PUSH2 0x3F9 JUMPI PUSH2 0x3F8 PUSH2 0x70D JUMP JUMPDEST JUMPDEST PUSH1 0x20 MUL ADD SWAP1 PUSH20 0xFFFFFFFFFFFFFFFFFFFFFFFFFFFFFFFFFFFFFFFF AND SWAP1 DUP2 PUSH20 0xFFFFFFFFFFFFFFFFFFFFFFFFFFFFFFFFFFFFFFFF AND DUP2 MSTORE POP POP PUSH20 0xCA35B7D915458EF540ADE6068DFE2F44E8FA733C DUP2 PUSH1 0xA PUSH1 0xF DUP2 LT PUSH2 0x459 JUMPI PUSH2 0x458 PUSH2 0x70D JUMP JUMPDEST JUMPDEST PUSH1 0x20 MUL ADD SWAP1 PUSH20 0xFFFFFFFFFFFFFFFFFFFFFFFFFFFFFFFFFFFFFFFF AND SWAP1 DUP2 PUSH20 0xFFFFFFFFFFFFFFFFFFFFFFFFFFFFFFFFFFFFFFFF AND DUP2 MSTORE POP POP PUSH20 0x14723A09ACFF6D2A60DCDF7AA4AFF308FDDC160C DUP2 PUSH1 0xB PUSH1 0xF DUP2 LT PUSH2 0x4B9 JUMPI PUSH2 0x4B8 PUSH2 0x70D JUMP JUMPDEST JUMPDEST PUSH1 0x20 MUL ADD SWAP1 PUSH20 0xFFFFFFFFFFFFFFFFFFFFFFFFFFFFFFFFFFFFFFFF AND SWAP1 DUP2 PUSH20 0xFFFFFFFFFFFFFFFFFFFFFFFFFFFFFFFFFFFFFFFF AND DUP2 MSTORE POP POP PUSH20 0x4B0897B0513FDC7C541B6D9D7E929C4E5364D2DB DUP2 PUSH1 0xC PUSH1 0xF DUP2 LT PUSH2 0x519 JUMPI PUSH2 0x518 PUSH2 0x70D JUMP JUMPDEST JUMPDEST PUSH1 0x20 MUL ADD SWAP1 PUSH20 0xFFFFFFFFFFFFFFFFFFFFFFFFFFFFFFFFFFFFFFFF AND SWAP1 DUP2 PUSH20 0xFFFFFFFFFFFFFFFFFFFFFFFFFFFFFFFFFFFFFFFF AND DUP2 MSTORE POP POP PUSH20 0x583031D1113AD414F02576BD6AFABFB302140225 DUP2 PUSH1 0xD PUSH1 0xF DUP2 LT PUSH2 0x579 JUMPI PUSH2 0x578 PUSH2 0x70D JUMP JUMPDEST JUMPDEST PUSH1 0x20 MUL ADD SWAP1 PUSH20 0xFFFFFFFFFFFFFFFFFFFFFFFFFFFFFFFFFFFFFFFF AND SWAP1 DUP2 PUSH20 0xFFFFFFFFFFFFFFFFFFFFFFFFFFFFFFFFFFFFFFFF AND DUP2 MSTORE POP POP PUSH20 0xDD870FA1B7C4700F2BD7F44238821C26F7392148 DUP2 PUSH1 0xE PUSH1 0xF DUP2 LT PUSH2 0x5D9 JUMPI PUSH2 0x5D8 PUSH2 0x70D JUMP JUMPDEST JUMPDEST PUSH1 0x20 MUL ADD SWAP1 PUSH20 0xFFFFFFFFFFFFFFFFFFFFFFFFFFFFFFFFFFFFFFFF AND SWAP1 DUP2 PUSH20 0xFFFFFFFFFFFFFFFFFFFFFFFFFFFFFFFFFFFFFFFF AND DUP2 MSTORE POP POP DUP1 DUP4 PUSH1 0xF DUP2 LT PUSH2 0x623 JUMPI PUSH2 0x622 PUSH2 0x70D JUMP JUMPDEST JUMPDEST PUSH1 0x20 MUL ADD MLOAD SWAP2 POP POP SWAP2 SWAP1 POP JUMP JUMPDEST PUSH1 0x40 MLOAD DUP1 PUSH2 0x1E0 ADD PUSH1 0x40 MSTORE DUP1 PUSH1 0xF SWAP1 PUSH1 0x20 DUP3 MUL DUP1 CALLDATASIZE DUP4 CALLDATACOPY DUP1 DUP3 ADD SWAP2 POP POP SWAP1 POP POP SWAP1 JUMP JUMPDEST PUSH0 PUSH0 REVERT JUMPDEST PUSH0 DUP2 SWAP1 POP SWAP2 SWAP1 POP JUMP JUMPDEST PUSH2 0x669 DUP2 PUSH2 0x657 JUMP JUMPDEST DUP2 EQ PUSH2 0x673 JUMPI PUSH0 PUSH0 REVERT JUMPDEST POP JUMP JUMPDEST PUSH0 DUP2 CALLDATALOAD SWAP1 POP PUSH2 0x684 DUP2 PUSH2 0x660 JUMP JUMPDEST SWAP3 SWAP2 POP POP JUMP JUMPDEST PUSH0 PUSH1 0x20 DUP3 DUP5 SUB SLT ISZERO PUSH2 0x69F JUMPI PUSH2 0x69E PUSH2 0x653 JUMP JUMPDEST JUMPDEST PUSH0 PUSH2 0x6AC DUP5 DUP3 DUP6 ADD PUSH2 0x676 JUMP JUMPDEST SWAP2 POP POP SWAP3 SWAP2 POP POP JUMP JUMPDEST PUSH0 PUSH20 0xFFFFFFFFFFFFFFFFFFFFFFFFFFFFFFFFFFFFFFFF DUP3 AND SWAP1 POP SWAP2 SWAP1 POP JUMP JUMPDEST PUSH0 PUSH2 0x6DE DUP3 PUSH2 0x6B5 JUMP JUMPDEST SWAP1 POP SWAP2 SWAP1 POP JUMP JUMPDEST PUSH2 0x6EE DUP2 PUSH2 0x6D4 JUMP JUMPDEST DUP3 MSTORE POP POP JUMP JUMPDEST PUSH0 PUSH1 0x20 DUP3 ADD SWAP1 POP PUSH2 0x707 PUSH0 DUP4 ADD DUP5 PUSH2 0x6E5 JUMP JUMPDEST SWAP3 SWAP2 POP POP JUMP JUMPDEST PUSH32 0x4E487B7100000000000000000000000000000000000000000000000000000000 PUSH0 MSTORE PUSH1 0x32 PUSH1 0x4 MSTORE PUSH1 0x24 PUSH0 REVERT INVALID LOG2 PUSH5 0x6970667358 0x22 SLT KECCAK256 BLOBHASH 0xAF SHL 0xCB EXTSTATICCALL 0x28 SWAP8 0xE2 0x28 DIV 0xA9 PUSH32 0xA5004CD6C3B2DED7A54EB52874BA662AB93825D064736F6C634300081E003300 "
				},
				"gasEstimates": {
					"creation": {
						"codeDepositCost": "380800",
						"executionCost": "441",
						"totalCost": "381241"
					},
					"external": {
						"getAccount(uint256)": "infinite"
					}
				},
				"methodIdentifiers": {
					"getAccount(uint256)": "ce88b145"
				}
			},
			"storageLayout": {
				"storage": [],
				"types": null
			},
			"userdoc": {
				"kind": "user",
				"methods": {},
				"version": 1
			}
		}
	}
}