{
	"task1/Voting.sol": {
		"Vote": {
			"abi": [
				{
					"inputs": [
						{
							"internalType": "address",
							"name": "_can",
							"type": "address"
						}
					],
					"name": "getVotes",
					"outputs": [
						{
							"internalType": "uint256",
							"name": "",
							"type": "uint256"
						}
					],
					"stateMutability": "view",
					"type": "function"
				},
				{
					"inputs": [],
					"name": "resetVotes",
					"outputs": [
						{
							"internalType": "bool",
							"name": "",
							"type": "bool"
						}
					],
					"stateMutability": "nonpayable",
					"type": "function"
				},
				{
					"inputs": [
						{
							"internalType": "address",
							"name": "_candidate",
							"type": "address"
						}
					],
					"name": "vote",
					"outputs": [
						{
							"internalType": "bool",
							"name": "",
							"type": "bool"
						}
					],
					"stateMutability": "nonpayable",
					"type": "function"
				}
			],
			"devdoc": {
				"kind": "dev",
				"methods": {},
				"version": 1
			},
			"evm": {
				"assembly": "    /* \"task1/Voting.sol\":58:790  contract Vote {... */\n  mstore(0x40, 0x80)\n  callvalue\n  dup1\n  iszero\n  tag_1\n  jumpi\n  revert(0x00, 0x00)\ntag_1:\n  pop\n  dataSize(sub_0)\n  dup1\n  dataOffset(sub_0)\n  0x00\n  codecopy\n  0x00\n  return\nstop\n\nsub_0: assembly {\n        /* \"task1/Voting.sol\":58:790  contract Vote {... */\n      mstore(0x40, 0x80)\n      callvalue\n      dup1\n      iszero\n      tag_1\n      jumpi\n      revert(0x00, 0x00)\n    tag_1:\n      pop\n      jumpi(tag_2, lt(calldatasize, 0x04))\n      shr(0xe0, calldataload(0x00))\n      dup1\n      0x6dd7d8ea\n      eq\n      tag_3\n      jumpi\n      dup1\n      0x9ab24eb0\n      eq\n      tag_4\n      jumpi\n      dup1\n      0xb9830ff1\n      eq\n      tag_5\n      jumpi\n    tag_2:\n      revert(0x00, 0x00)\n        /* \"task1/Voting.sol\":253:478  function vote(address _candidate) public returns(bool){... */\n    tag_3:\n      tag_6\n      0x04\n      dup1\n      calldatasize\n      sub\n      dup2\n      add\n      swap1\n      tag_7\n      swap2\n      swap1\n      tag_8\n      jump\t// in\n    tag_7:\n      tag_9\n      jump\t// in\n    tag_6:\n      mload(0x40)\n      tag_10\n      swap2\n      swap1\n      tag_11\n      jump\t// in\n    tag_10:\n      mload(0x40)\n      dup1\n      swap2\n      sub\n      swap1\n      return\n        /* \"task1/Voting.sol\":487:591  function getVotes(address _can) public view  returns (uint){... */\n    tag_4:\n      tag_12\n      0x04\n      dup1\n      calldatasize\n      sub\n      dup2\n      add\n      swap1\n      tag_13\n      swap2\n      swap1\n      tag_8\n      jump\t// in\n    tag_13:\n      tag_14\n      jump\t// in\n    tag_12:\n      mload(0x40)\n      tag_15\n      swap2\n      swap1\n      tag_16\n      jump\t// in\n    tag_15:\n      mload(0x40)\n      dup1\n      swap2\n      sub\n      swap1\n      return\n        /* \"task1/Voting.sol\":599:787  function resetVotes()public returns (bool){... */\n    tag_5:\n      tag_17\n      tag_18\n      jump\t// in\n    tag_17:\n      mload(0x40)\n      tag_19\n      swap2\n      swap1\n      tag_11\n      jump\t// in\n    tag_19:\n      mload(0x40)\n      dup1\n      swap2\n      sub\n      swap1\n      return\n        /* \"task1/Voting.sol\":253:478  function vote(address _candidate) public returns(bool){... */\n    tag_9:\n        /* \"task1/Voting.sol\":302:306  bool */\n      0x00\n        /* \"task1/Voting.sol\":350:351  0 */\n      0x00\n        /* \"task1/Voting.sol\":321:334  votesReceived */\n      0x00\n        /* \"task1/Voting.sol\":321:346  votesReceived[_candidate] */\n      0x00\n        /* \"task1/Voting.sol\":335:345  _candidate */\n      dup5\n        /* \"task1/Voting.sol\":321:346  votesReceived[_candidate] */\n      0xffffffffffffffffffffffffffffffffffffffff\n      and\n      0xffffffffffffffffffffffffffffffffffffffff\n      and\n      dup2\n      mstore\n      0x20\n      add\n      swap1\n      dup2\n      mstore\n      0x20\n      add\n      0x00\n      keccak256\n      sload\n        /* \"task1/Voting.sol\":321:351  votesReceived[_candidate] == 0 */\n      sub\n        /* \"task1/Voting.sol\":318:409  if(votesReceived[_candidate] == 0){... */\n      tag_21\n      jumpi\n        /* \"task1/Voting.sol\":367:380  candidateList */\n      0x01\n        /* \"task1/Voting.sol\":386:396  _candidate */\n      dup3\n        /* \"task1/Voting.sol\":367:397  candidateList.push(_candidate) */\n      swap1\n      dup1\n      0x01\n      dup2\n      sload\n      add\n      dup1\n      dup3\n      sstore\n      dup1\n      swap2\n      pop\n      pop\n      0x01\n      swap1\n      sub\n      swap1\n      0x00\n      mstore\n      keccak256(0x00, 0x20)\n      add\n      0x00\n      swap1\n      swap2\n      swap1\n      swap2\n      swap1\n      swap2\n      0x0100\n      exp\n      dup2\n      sload\n      dup2\n      0xffffffffffffffffffffffffffffffffffffffff\n      mul\n      not\n      and\n      swap1\n      dup4\n      0xffffffffffffffffffffffffffffffffffffffff\n      and\n      mul\n      or\n      swap1\n      sstore\n      pop\n        /* \"task1/Voting.sol\":318:409  if(votesReceived[_candidate] == 0){... */\n    tag_21:\n        /* \"task1/Voting.sol\":447:448  1 */\n      0x01\n        /* \"task1/Voting.sol\":419:432  votesReceived */\n      0x00\n        /* \"task1/Voting.sol\":419:444  votesReceived[_candidate] */\n      0x00\n        /* \"task1/Voting.sol\":433:443  _candidate */\n      dup5\n        /* \"task1/Voting.sol\":419:444  votesReceived[_candidate] */\n      0xffffffffffffffffffffffffffffffffffffffff\n      and\n      0xffffffffffffffffffffffffffffffffffffffff\n      and\n      dup2\n      mstore\n      0x20\n      add\n      swap1\n      dup2\n      mstore\n      0x20\n      add\n      0x00\n      keccak256\n      0x00\n        /* \"task1/Voting.sol\":419:448  votesReceived[_candidate] +=1 */\n      dup3\n      dup3\n      sload\n      tag_23\n      swap2\n      swap1\n      tag_24\n      jump\t// in\n    tag_23:\n      swap3\n      pop\n      pop\n      dup2\n      swap1\n      sstore\n      pop\n        /* \"task1/Voting.sol\":466:470  true */\n      0x01\n        /* \"task1/Voting.sol\":459:470  return true */\n      swap1\n      pop\n        /* \"task1/Voting.sol\":253:478  function vote(address _candidate) public returns(bool){... */\n      swap2\n      swap1\n      pop\n      jump\t// out\n        /* \"task1/Voting.sol\":487:591  function getVotes(address _can) public view  returns (uint){... */\n    tag_14:\n        /* \"task1/Voting.sol\":541:545  uint */\n      0x00\n        /* \"task1/Voting.sol\":564:577  votesReceived */\n      0x00\n        /* \"task1/Voting.sol\":564:583  votesReceived[_can] */\n      0x00\n        /* \"task1/Voting.sol\":578:582  _can */\n      dup4\n        /* \"task1/Voting.sol\":564:583  votesReceived[_can] */\n      0xffffffffffffffffffffffffffffffffffffffff\n      and\n      0xffffffffffffffffffffffffffffffffffffffff\n      and\n      dup2\n      mstore\n      0x20\n      add\n      swap1\n      dup2\n      mstore\n      0x20\n      add\n      0x00\n      keccak256\n      sload\n        /* \"task1/Voting.sol\":557:583  return votesReceived[_can] */\n      swap1\n      pop\n        /* \"task1/Voting.sol\":487:591  function getVotes(address _can) public view  returns (uint){... */\n      swap2\n      swap1\n      pop\n      jump\t// out\n        /* \"task1/Voting.sol\":599:787  function resetVotes()public returns (bool){... */\n    tag_18:\n        /* \"task1/Voting.sol\":636:640  bool */\n      0x00\n        /* \"task1/Voting.sol\":656:662  uint i */\n      0x00\n        /* \"task1/Voting.sol\":665:666  0 */\n      0x00\n        /* \"task1/Voting.sol\":656:666  uint i = 0 */\n      swap1\n      pop\n        /* \"task1/Voting.sol\":652:758  for(uint i = 0; i< candidateList.length;i++){... */\n    tag_27:\n        /* \"task1/Voting.sol\":671:684  candidateList */\n      0x01\n        /* \"task1/Voting.sol\":671:691  candidateList.length */\n      dup1\n      sload\n      swap1\n      pop\n        /* \"task1/Voting.sol\":668:669  i */\n      dup2\n        /* \"task1/Voting.sol\":668:691  i< candidateList.length */\n      lt\n        /* \"task1/Voting.sol\":652:758  for(uint i = 0; i< candidateList.length;i++){... */\n      iszero\n      tag_28\n      jumpi\n        /* \"task1/Voting.sol\":745:746  0 */\n      0x00\n        /* \"task1/Voting.sol\":711:724  votesReceived */\n      0x00\n        /* \"task1/Voting.sol\":711:742  votesReceived[candidateList[i]] */\n      0x00\n        /* \"task1/Voting.sol\":725:738  candidateList */\n      0x01\n        /* \"task1/Voting.sol\":739:740  i */\n      dup5\n        /* \"task1/Voting.sol\":725:741  candidateList[i] */\n      dup2\n      sload\n      dup2\n      lt\n      tag_30\n      jumpi\n      tag_31\n      tag_32\n      jump\t// in\n    tag_31:\n    tag_30:\n      swap1\n      0x00\n      mstore\n      keccak256(0x00, 0x20)\n      add\n      0x00\n      swap1\n      sload\n      swap1\n      0x0100\n      exp\n      swap1\n      div\n      0xffffffffffffffffffffffffffffffffffffffff\n      and\n        /* \"task1/Voting.sol\":711:742  votesReceived[candidateList[i]] */\n      0xffffffffffffffffffffffffffffffffffffffff\n      and\n      0xffffffffffffffffffffffffffffffffffffffff\n      and\n      dup2\n      mstore\n      0x20\n      add\n      swap1\n      dup2\n      mstore\n      0x20\n      add\n      0x00\n      keccak256\n        /* \"task1/Voting.sol\":711:746  votesReceived[candidateList[i]] = 0 */\n      dup2\n      swap1\n      sstore\n      pop\n        /* \"task1/Voting.sol\":692:695  i++ */\n      dup1\n      dup1\n      0x01\n      add\n      swap2\n      pop\n      pop\n        /* \"task1/Voting.sol\":652:758  for(uint i = 0; i< candidateList.length;i++){... */\n      jump(tag_27)\n    tag_28:\n      pop\n        /* \"task1/Voting.sol\":775:779  true */\n      0x01\n        /* \"task1/Voting.sol\":768:779  return true */\n      swap1\n      pop\n        /* \"task1/Voting.sol\":599:787  function resetVotes()public returns (bool){... */\n      swap1\n      jump\t// out\n        /* \"#utility.yul\":88:205   */\n    tag_35:\n        /* \"#utility.yul\":197:198   */\n      0x00\n        /* \"#utility.yul\":194:195   */\n      0x00\n        /* \"#utility.yul\":187:199   */\n      revert\n        /* \"#utility.yul\":334:460   */\n    tag_37:\n        /* \"#utility.yul\":371:378   */\n      0x00\n        /* \"#utility.yul\":411:453   */\n      0xffffffffffffffffffffffffffffffffffffffff\n        /* \"#utility.yul\":404:409   */\n      dup3\n        /* \"#utility.yul\":400:454   */\n      and\n        /* \"#utility.yul\":389:454   */\n      swap1\n      pop\n        /* \"#utility.yul\":334:460   */\n      swap2\n      swap1\n      pop\n      jump\t// out\n        /* \"#utility.yul\":466:562   */\n    tag_38:\n        /* \"#utility.yul\":503:510   */\n      0x00\n        /* \"#utility.yul\":532:556   */\n      tag_52\n        /* \"#utility.yul\":550:555   */\n      dup3\n        /* \"#utility.yul\":532:556   */\n      tag_37\n      jump\t// in\n    tag_52:\n        /* \"#utility.yul\":521:556   */\n      swap1\n      pop\n        /* \"#utility.yul\":466:562   */\n      swap2\n      swap1\n      pop\n      jump\t// out\n        /* \"#utility.yul\":568:690   */\n    tag_39:\n        /* \"#utility.yul\":641:665   */\n      tag_54\n        /* \"#utility.yul\":659:664   */\n      dup2\n        /* \"#utility.yul\":641:665   */\n      tag_38\n      jump\t// in\n    tag_54:\n        /* \"#utility.yul\":634:639   */\n      dup2\n        /* \"#utility.yul\":631:666   */\n      eq\n        /* \"#utility.yul\":621:684   */\n      tag_55\n      jumpi\n        /* \"#utility.yul\":680:681   */\n      0x00\n        /* \"#utility.yul\":677:678   */\n      0x00\n        /* \"#utility.yul\":670:682   */\n      revert\n        /* \"#utility.yul\":621:684   */\n    tag_55:\n        /* \"#utility.yul\":568:690   */\n      pop\n      jump\t// out\n        /* \"#utility.yul\":696:835   */\n    tag_40:\n        /* \"#utility.yul\":742:747   */\n      0x00\n        /* \"#utility.yul\":780:786   */\n      dup2\n        /* \"#utility.yul\":767:787   */\n      calldataload\n        /* \"#utility.yul\":758:787   */\n      swap1\n      pop\n        /* \"#utility.yul\":796:829   */\n      tag_57\n        /* \"#utility.yul\":823:828   */\n      dup2\n        /* \"#utility.yul\":796:829   */\n      tag_39\n      jump\t// in\n    tag_57:\n        /* \"#utility.yul\":696:835   */\n      swap3\n      swap2\n      pop\n      pop\n      jump\t// out\n        /* \"#utility.yul\":841:1170   */\n    tag_8:\n        /* \"#utility.yul\":900:906   */\n      0x00\n        /* \"#utility.yul\":949:951   */\n      0x20\n        /* \"#utility.yul\":937:946   */\n      dup3\n        /* \"#utility.yul\":928:935   */\n      dup5\n        /* \"#utility.yul\":924:947   */\n      sub\n        /* \"#utility.yul\":920:952   */\n      slt\n        /* \"#utility.yul\":917:1036   */\n      iszero\n      tag_59\n      jumpi\n        /* \"#utility.yul\":955:1034   */\n      tag_60\n      tag_35\n      jump\t// in\n    tag_60:\n        /* \"#utility.yul\":917:1036   */\n    tag_59:\n        /* \"#utility.yul\":1075:1076   */\n      0x00\n        /* \"#utility.yul\":1100:1153   */\n      tag_61\n        /* \"#utility.yul\":1145:1152   */\n      dup5\n        /* \"#utility.yul\":1136:1142   */\n      dup3\n        /* \"#utility.yul\":1125:1134   */\n      dup6\n        /* \"#utility.yul\":1121:1143   */\n      add\n        /* \"#utility.yul\":1100:1153   */\n      tag_40\n      jump\t// in\n    tag_61:\n        /* \"#utility.yul\":1090:1153   */\n      swap2\n      pop\n        /* \"#utility.yul\":1046:1163   */\n      pop\n        /* \"#utility.yul\":841:1170   */\n      swap3\n      swap2\n      pop\n      pop\n      jump\t// out\n        /* \"#utility.yul\":1176:1266   */\n    tag_41:\n        /* \"#utility.yul\":1210:1217   */\n      0x00\n        /* \"#utility.yul\":1253:1258   */\n      dup2\n        /* \"#utility.yul\":1246:1259   */\n      iszero\n        /* \"#utility.yul\":1239:1260   */\n      iszero\n        /* \"#utility.yul\":1228:1260   */\n      swap1\n      pop\n        /* \"#utility.yul\":1176:1266   */\n      swap2\n      swap1\n      pop\n      jump\t// out\n        /* \"#utility.yul\":1272:1381   */\n    tag_42:\n        /* \"#utility.yul\":1353:1374   */\n      tag_64\n        /* \"#utility.yul\":1368:1373   */\n      dup2\n        /* \"#utility.yul\":1353:1374   */\n      tag_41\n      jump\t// in\n    tag_64:\n        /* \"#utility.yul\":1348:1351   */\n      dup3\n        /* \"#utility.yul\":1341:1375   */\n      mstore\n        /* \"#utility.yul\":1272:1381   */\n      pop\n      pop\n      jump\t// out\n        /* \"#utility.yul\":1387:1597   */\n    tag_11:\n        /* \"#utility.yul\":1474:1478   */\n      0x00\n        /* \"#utility.yul\":1512:1514   */\n      0x20\n        /* \"#utility.yul\":1501:1510   */\n      dup3\n        /* \"#utility.yul\":1497:1515   */\n      add\n        /* \"#utility.yul\":1489:1515   */\n      swap1\n      pop\n        /* \"#utility.yul\":1525:1590   */\n      tag_66\n        /* \"#utility.yul\":1587:1588   */\n      0x00\n        /* \"#utility.yul\":1576:1585   */\n      dup4\n        /* \"#utility.yul\":1572:1589   */\n      add\n        /* \"#utility.yul\":1563:1569   */\n      dup5\n        /* \"#utility.yul\":1525:1590   */\n      tag_42\n      jump\t// in\n    tag_66:\n        /* \"#utility.yul\":1387:1597   */\n      swap3\n      swap2\n      pop\n      pop\n      jump\t// out\n        /* \"#utility.yul\":1603:1680   */\n    tag_43:\n        /* \"#utility.yul\":1640:1647   */\n      0x00\n        /* \"#utility.yul\":1669:1674   */\n      dup2\n        /* \"#utility.yul\":1658:1674   */\n      swap1\n      pop\n        /* \"#utility.yul\":1603:1680   */\n      swap2\n      swap1\n      pop\n      jump\t// out\n        /* \"#utility.yul\":1686:1804   */\n    tag_44:\n        /* \"#utility.yul\":1773:1797   */\n      tag_69\n        /* \"#utility.yul\":1791:1796   */\n      dup2\n        /* \"#utility.yul\":1773:1797   */\n      tag_43\n      jump\t// in\n    tag_69:\n        /* \"#utility.yul\":1768:1771   */\n      dup3\n        /* \"#utility.yul\":1761:1798   */\n      mstore\n        /* \"#utility.yul\":1686:1804   */\n      pop\n      pop\n      jump\t// out\n        /* \"#utility.yul\":1810:2032   */\n    tag_16:\n        /* \"#utility.yul\":1903:1907   */\n      0x00\n        /* \"#utility.yul\":1941:1943   */\n      0x20\n        /* \"#utility.yul\":1930:1939   */\n      dup3\n        /* \"#utility.yul\":1926:1944   */\n      add\n        /* \"#utility.yul\":1918:1944   */\n      swap1\n      pop\n        /* \"#utility.yul\":1954:2025   */\n      tag_71\n        /* \"#utility.yul\":2022:2023   */\n      0x00\n        /* \"#utility.yul\":2011:2020   */\n      dup4\n        /* \"#utility.yul\":2007:2024   */\n      add\n        /* \"#utility.yul\":1998:2004   */\n      dup5\n        /* \"#utility.yul\":1954:2025   */\n      tag_44\n      jump\t// in\n    tag_71:\n        /* \"#utility.yul\":1810:2032   */\n      swap3\n      swap2\n      pop\n      pop\n      jump\t// out\n        /* \"#utility.yul\":2038:2218   */\n    tag_45:\n        /* \"#utility.yul\":2086:2163   */\n      0x4e487b7100000000000000000000000000000000000000000000000000000000\n        /* \"#utility.yul\":2083:2084   */\n      0x00\n        /* \"#utility.yul\":2076:2164   */\n      mstore\n        /* \"#utility.yul\":2183:2187   */\n      0x11\n        /* \"#utility.yul\":2180:2181   */\n      0x04\n        /* \"#utility.yul\":2173:2188   */\n      mstore\n        /* \"#utility.yul\":2207:2211   */\n      0x24\n        /* \"#utility.yul\":2204:2205   */\n      0x00\n        /* \"#utility.yul\":2197:2212   */\n      revert\n        /* \"#utility.yul\":2224:2415   */\n    tag_24:\n        /* \"#utility.yul\":2264:2267   */\n      0x00\n        /* \"#utility.yul\":2283:2303   */\n      tag_74\n        /* \"#utility.yul\":2301:2302   */\n      dup3\n        /* \"#utility.yul\":2283:2303   */\n      tag_43\n      jump\t// in\n    tag_74:\n        /* \"#utility.yul\":2278:2303   */\n      swap2\n      pop\n        /* \"#utility.yul\":2317:2337   */\n      tag_75\n        /* \"#utility.yul\":2335:2336   */\n      dup4\n        /* \"#utility.yul\":2317:2337   */\n      tag_43\n      jump\t// in\n    tag_75:\n        /* \"#utility.yul\":2312:2337   */\n      swap3\n      pop\n        /* \"#utility.yul\":2360:2361   */\n      dup3\n        /* \"#utility.yul\":2357:2358   */\n      dup3\n        /* \"#utility.yul\":2353:2362   */\n      add\n        /* \"#utility.yul\":2346:2362   */\n      swap1\n      pop\n        /* \"#utility.yul\":2381:2384   */\n      dup1\n        /* \"#utility.yul\":2378:2379   */\n      dup3\n        /* \"#utility.yul\":2375:2385   */\n      gt\n        /* \"#utility.yul\":2372:2408   */\n      iszero\n      tag_76\n      jumpi\n        /* \"#utility.yul\":2388:2406   */\n      tag_77\n      tag_45\n      jump\t// in\n    tag_77:\n        /* \"#utility.yul\":2372:2408   */\n    tag_76:\n        /* \"#utility.yul\":2224:2415   */\n      swap3\n      swap2\n      pop\n      pop\n      jump\t// out\n        /* \"#utility.yul\":2421:2601   */\n    tag_32:\n        /* \"#utility.yul\":2469:2546   */\n      0x4e487b7100000000000000000000000000000000000000000000000000000000\n        /* \"#utility.yul\":2466:2467   */\n      0x00\n        /* \"#utility.yul\":2459:2547   */\n      mstore\n        /* \"#utility.yul\":2566:2570   */\n      0x32\n        /* \"#utility.yul\":2563:2564   */\n      0x04\n        /* \"#utility.yul\":2556:2571   */\n      mstore\n        /* \"#utility.yul\":2590:2594   */\n      0x24\n        /* \"#utility.yul\":2587:2588   */\n      0x00\n        /* \"#utility.yul\":2580:2595   */\n      revert\n\n    auxdata: 0xa26469706673582212200f75d5f6163108731e8d3a4bd010b0466d4674dda416760023096fc0a01d88d064736f6c634300081e0033\n}\n",
				"bytecode": {
					"linkReferences": {},
					"object": "6080604052348015600e575f5ffd5b5061045b8061001c5f395ff3fe608060405234801561000f575f5ffd5b506004361061003f575f3560e01c80636dd7d8ea146100435780639ab24eb014610073578063b9830ff1146100a3575b5f5ffd5b61005d60048036038101906100589190610309565b6100c1565b60405161006a919061034e565b60405180910390f35b61008d60048036038101906100889190610309565b6101c2565b60405161009a919061037f565b60405180910390f35b6100ab610207565b6040516100b8919061034e565b60405180910390f35b5f5f5f5f8473ffffffffffffffffffffffffffffffffffffffff1673ffffffffffffffffffffffffffffffffffffffff1681526020019081526020015f20540361016657600182908060018154018082558091505060019003905f5260205f20015f9091909190916101000a81548173ffffffffffffffffffffffffffffffffffffffff021916908373ffffffffffffffffffffffffffffffffffffffff1602179055505b60015f5f8473ffffffffffffffffffffffffffffffffffffffff1673ffffffffffffffffffffffffffffffffffffffff1681526020019081526020015f205f8282546101b291906103c5565b9250508190555060019050919050565b5f5f5f8373ffffffffffffffffffffffffffffffffffffffff1673ffffffffffffffffffffffffffffffffffffffff1681526020019081526020015f20549050919050565b5f5f5f90505b6001805490508110156102a3575f5f5f60018481548110610231576102306103f8565b5b905f5260205f20015f9054906101000a900473ffffffffffffffffffffffffffffffffffffffff1673ffffffffffffffffffffffffffffffffffffffff1673ffffffffffffffffffffffffffffffffffffffff1681526020019081526020015f2081905550808060010191505061020d565b506001905090565b5f5ffd5b5f73ffffffffffffffffffffffffffffffffffffffff82169050919050565b5f6102d8826102af565b9050919050565b6102e8816102ce565b81146102f2575f5ffd5b50565b5f81359050610303816102df565b92915050565b5f6020828403121561031e5761031d6102ab565b5b5f61032b848285016102f5565b91505092915050565b5f8115159050919050565b61034881610334565b82525050565b5f6020820190506103615f83018461033f565b92915050565b5f819050919050565b61037981610367565b82525050565b5f6020820190506103925f830184610370565b92915050565b7f4e487b71000000000000000000000000000000000000000000000000000000005f52601160045260245ffd5b5f6103cf82610367565b91506103da83610367565b92508282019050808211156103f2576103f1610398565b5b92915050565b7f4e487b71000000000000000000000000000000000000000000000000000000005f52603260045260245ffdfea26469706673582212200f75d5f6163108731e8d3a4bd010b0466d4674dda416760023096fc0a01d88d064736f6c634300081e0033",
					"opcodes": "PUSH1 0x80 PUSH1 0x40 MSTORE CALLVALUE DUP1 ISZERO PUSH1 0xE JUMPI PUSH0 PUSH0 REVERT JUMPDEST POP PUSH2 0x45B DUP1 PUSH2 0x1C PUSH0 CODECOPY PUSH0 RETURN INVALID PUSH1 0x80 PUSH1 0x40 MSTORE CALLVALUE DUP1 ISZERO PUSH2 0xF JUMPI PUSH0 PUSH0 REVERT JUMPDEST POP PUSH1 0x4 CALLDATASIZE LT PUSH2 0x3F JUMPI PUSH0 CALLDATALOAD PUSH1 0xE0 SHR DUP1 PUSH4 0x6DD7D8EA EQ PUSH2 0x43 JUMPI DUP1 PUSH4 0x9AB24EB0 EQ PUSH2 0x73 JUMPI DUP1 PUSH4 0xB9830FF1 EQ PUSH2 0xA3 JUMPI JUMPDEST PUSH0 PUSH0 REVERT JUMPDEST PUSH2 0x5D PUSH1 0x4 DUP1 CALLDATASIZE SUB DUP2 ADD SWAP1 PUSH2 0x58 SWAP2 SWAP1 PUSH2 0x309 JUMP JUMPDEST PUSH2 0xC1 JUMP JUMPDEST PUSH1 0x40 MLOAD PUSH2 0x6A SWAP2 SWAP1 PUSH2 0x34E JUMP JUMPDEST PUSH1 0x40 MLOAD DUP1 SWAP2 SUB SWAP1 RETURN JUMPDEST PUSH2 0x8D PUSH1 0x4 DUP1 CALLDATASIZE SUB DUP2 ADD SWAP1 PUSH2 0x88 SWAP2 SWAP1 PUSH2 0x309 JUMP JUMPDEST PUSH2 0x1C2 JUMP JUMPDEST PUSH1 0x40 MLOAD PUSH2 0x9A SWAP2 SWAP1 PUSH2 0x37F JUMP JUMPDEST PUSH1 0x40 MLOAD DUP1 SWAP2 SUB SWAP1 RETURN JUMPDEST PUSH2 0xAB PUSH2 0x207 JUMP JUMPDEST PUSH1 0x40 MLOAD PUSH2 0xB8 SWAP2 SWAP1 PUSH2 0x34E JUMP JUMPDEST PUSH1 0x40 MLOAD DUP1 SWAP2 SUB SWAP1 RETURN JUMPDEST PUSH0 PUSH0 PUSH0 PUSH0 DUP5 PUSH20 0xFFFFFFFFFFFFFFFFFFFFFFFFFFFFFFFFFFFFFFFF AND PUSH20 0xFFFFFFFFFFFFFFFFFFFFFFFFFFFFFFFFFFFFFFFF AND DUP2 MSTORE PUSH1 0x20 ADD SWAP1 DUP2 MSTORE PUSH1 0x20 ADD PUSH0 KECCAK256 SLOAD SUB PUSH2 0x166 JUMPI PUSH1 0x1 DUP3 SWAP1 DUP1 PUSH1 0x1 DUP2 SLOAD ADD DUP1 DUP3 SSTORE DUP1 SWAP2 POP POP PUSH1 0x1 SWAP1 SUB SWAP1 PUSH0 MSTORE PUSH1 0x20 PUSH0 KECCAK256 ADD PUSH0 SWAP1 SWAP2 SWAP1 SWAP2 SWAP1 SWAP2 PUSH2 0x100 EXP DUP2 SLOAD DUP2 PUSH20 0xFFFFFFFFFFFFFFFFFFFFFFFFFFFFFFFFFFFFFFFF MUL NOT AND SWAP1 DUP4 PUSH20 0xFFFFFFFFFFFFFFFFFFFFFFFFFFFFFFFFFFFFFFFF AND MUL OR SWAP1 SSTORE POP JUMPDEST PUSH1 0x1 PUSH0 PUSH0 DUP5 PUSH20 0xFFFFFFFFFFFFFFFFFFFFFFFFFFFFFFFFFFFFFFFF AND PUSH20 0xFFFFFFFFFFFFFFFFFFFFFFFFFFFFFFFFFFFFFFFF AND DUP2 MSTORE PUSH1 0x20 ADD SWAP1 DUP2 MSTORE PUSH1 0x20 ADD PUSH0 KECCAK256 PUSH0 DUP3 DUP3 SLOAD PUSH2 0x1B2 SWAP2 SWAP1 PUSH2 0x3C5 JUMP JUMPDEST SWAP3 POP POP DUP2 SWAP1 SSTORE POP PUSH1 0x1 SWAP1 POP SWAP2 SWAP1 POP JUMP JUMPDEST PUSH0 PUSH0 PUSH0 DUP4 PUSH20 0xFFFFFFFFFFFFFFFFFFFFFFFFFFFFFFFFFFFFFFFF AND PUSH20 0xFFFFFFFFFFFFFFFFFFFFFFFFFFFFFFFFFFFFFFFF AND DUP2 MSTORE PUSH1 0x20 ADD SWAP1 DUP2 MSTORE PUSH1 0x20 ADD PUSH0 KECCAK256 SLOAD SWAP1 POP SWAP2 SWAP1 POP JUMP JUMPDEST PUSH0 PUSH0 PUSH0 SWAP1 POP JUMPDEST PUSH1 0x1 DUP1 SLOAD SWAP1 POP DUP2 LT ISZERO PUSH2 0x2A3 JUMPI PUSH0 PUSH0 PUSH0 PUSH1 0x1 DUP5 DUP2 SLOAD DUP2 LT PUSH2 0x231 JUMPI PUSH2 0x230 PUSH2 0x3F8 JUMP JUMPDEST JUMPDEST SWAP1 PUSH0 MSTORE PUSH1 0x20 PUSH0 KECCAK256 ADD PUSH0 SWAP1 SLOAD SWAP1 PUSH2 0x100 EXP SWAP1 DIV PUSH20 0xFFFFFFFFFFFFFFFFFFFFFFFFFFFFFFFFFFFFFFFF AND PUSH20 0xFFFFFFFFFFFFFFFFFFFFFFFFFFFFFFFFFFFFFFFF AND PUSH20 0xFFFFFFFFFFFFFFFFFFFFFFFFFFFFFFFFFFFFFFFF AND DUP2 MSTORE PUSH1 0x20 ADD SWAP1 DUP2 MSTORE PUSH1 0x20 ADD PUSH0 KECCAK256 DUP2 SWAP1 SSTORE POP DUP1 DUP1 PUSH1 0x1 ADD SWAP2 POP POP PUSH2 0x20D JUMP JUMPDEST POP PUSH1 0x1 SWAP1 POP SWAP1 JUMP JUMPDEST PUSH0 PUSH0 REVERT JUMPDEST PUSH0 PUSH20 0xFFFFFFFFFFFFFFFFFFFFFFFFFFFFFFFFFFFFFFFF DUP3 AND SWAP1 POP SWAP2 SWAP1 POP JUMP JUMPDEST PUSH0 PUSH2 0x2D8 DUP3 PUSH2 0x2AF JUMP JUMPDEST SWAP1 POP SWAP2 SWAP1 POP JUMP JUMPDEST PUSH2 0x2E8 DUP2 PUSH2 0x2CE JUMP JUMPDEST DUP2 EQ PUSH2 0x2F2 JUMPI PUSH0 PUSH0 REVERT JUMPDEST POP JUMP JUMPDEST PUSH0 DUP2 CALLDATALOAD SWAP1 POP PUSH2 0x303 DUP2 PUSH2 0x2DF JUMP JUMPDEST SWAP3 SWAP2 POP POP JUMP JUMPDEST PUSH0 PUSH1 0x20 DUP3 DUP5 SUB SLT ISZERO PUSH2 0x31E JUMPI PUSH2 0x31D PUSH2 0x2AB JUMP JUMPDEST JUMPDEST PUSH0 PUSH2 0x32B DUP5 DUP3 DUP6 ADD PUSH2 0x2F5 JUMP JUMPDEST SWAP2 POP POP SWAP3 SWAP2 POP POP JUMP JUMPDEST PUSH0 DUP2 ISZERO ISZERO SWAP1 POP SWAP2 SWAP1 POP JUMP JUMPDEST PUSH2 0x348 DUP2 PUSH2 0x334 JUMP JUMPDEST DUP3 MSTORE POP POP JUMP JUMPDEST PUSH0 PUSH1 0x20 DUP3 ADD SWAP1 POP PUSH2 0x361 PUSH0 DUP4 ADD DUP5 PUSH2 0x33F JUMP JUMPDEST SWAP3 SWAP2 POP POP JUMP JUMPDEST PUSH0 DUP2 SWAP1 POP SWAP2 SWAP1 POP JUMP JUMPDEST PUSH2 0x379 DUP2 PUSH2 0x367 JUMP JUMPDEST DUP3 MSTORE POP POP JUMP JUMPDEST PUSH0 PUSH1 0x20 DUP3 ADD SWAP1 POP PUSH2 0x392 PUSH0 DUP4 ADD DUP5 PUSH2 0x370 JUMP JUMPDEST SWAP3 SWAP2 POP POP JUMP JUMPDEST PUSH32 0x4E487B7100000000000000000000000000000000000000000000000000000000 PUSH0 MSTORE PUSH1 0x11 PUSH1 0x4 MSTORE PUSH1 0x24 PUSH0 REVERT JUMPDEST PUSH0 PUSH2 0x3CF DUP3 PUSH2 0x367 JUMP JUMPDEST SWAP2 POP PUSH2 0x3DA DUP4 PUSH2 0x367 JUMP JUMPDEST SWAP3 POP DUP3 DUP3 ADD SWAP1 POP DUP1 DUP3 GT ISZERO PUSH2 0x3F2 JUMPI PUSH2 0x3F1 PUSH2 0x398 JUMP JUMPDEST JUMPDEST SWAP3 SWAP2 POP POP JUMP JUMPDEST PUSH32 0x4E487B7100000000000000000000000000000000000000000000000000000000 PUSH0 MSTORE PUSH1 0x32 PUSH1 0x4 MSTORE PUSH1 0x24 PUSH0 REVERT INVALID LOG2 PUSH5 0x6970667358 0x22 SLT KECCAK256 0xF PUSH22 0xD5F6163108731E8D3A4BD010B0466D4674DDA4167600 0x23 MULMOD PUSH16 0xC0A01D88D064736F6C634300081E0033 "
				},
				"gasEstimates": {
					"creation": {
						"codeDepositCost": "223000",
						"executionCost": "261",
						"totalCost": "223261"
					},
					"external": {
						"getVotes(address)": "2828",
						"resetVotes()": "infinite",
						"vote(address)": "infinite"
					}
				},
				"methodIdentifiers": {
					"getVotes(address)": "9ab24eb0",
					"resetVotes()": "b9830ff1",
					"vote(address)": "6dd7d8ea"
				}
			},
			"storageLayout": {
				"storage": [
					{
						"astId": 11,
						"contract": "task1/Voting.sol:Vote",
						"label": "votesReceived",
						"offset": 0,
						"slot": "0",
						"type": "t_mapping(t_address,t_uint256)"
					},
					{
						"astId": 14,
						"contract": "task1/Voting.sol:Vote",
						"label": "candidateList",
						"offset": 0,
						"slot": "1",
						"type": "t_array(t_address)dyn_storage"
					}
				],
				"types": {
					"t_address": {
						"encoding": "inplace",
						"label": "address",
						"numberOfBytes": "20"
					},
					"t_array(t_address)dyn_storage": {
						"base": "t_address",
						"encoding": "dynamic_array",
						"label": "address[]",
						"numberOfBytes": "32"
					},
					"t_mapping(t_address,t_uint256)": {
						"encoding": "mapping",
						"key": "t_address",
						"label": "mapping(address => uint256)",
						"numberOfBytes": "32",
						"value": "t_uint256"
					},
					"t_uint256": {
						"encoding": "inplace",
						"label": "uint256",
						"numberOfBytes": "32"
					}
				}
			},
			"userdoc": {
				"kind": "user",
				"methods": {},
				"version": 1
			}
		}
	}
}