{
	"test/demo7_address.sol": {
		"TestAddress": {
			"abi": [
				{
					"inputs": [
						{
							"internalType": "address",
							"name": "a1",
							"type": "address"
						},
						{
							"internalType": "address",
							"name": "a2",
							"type": "address"
						}
					],
					"name": "compareAddress",
					"outputs": [
						{
							"internalType": "bool",
							"name": "",
							"type": "bool"
						}
					],
					"stateMutability": "pure",
					"type": "function"
				},
				{
					"inputs": [
						{
							"internalType": "address",
							"name": "a1",
							"type": "address"
						}
					],
					"name": "getBalance",
					"outputs": [
						{
							"internalType": "uint256",
							"name": "",
							"type": "uint256"
						}
					],
					"stateMutability": "view",
					"type": "function"
				},
				{
					"inputs": [],
					"name": "getThisBalance",
					"outputs": [
						{
							"internalType": "uint256",
							"name": "",
							"type": "uint256"
						}
					],
					"stateMutability": "view",
					"type": "function"
				},
				{
					"inputs": [
						{
							"internalType": "address",
							"name": "a1",
							"type": "address"
						},
						{
							"internalType": "bytes",
							"name": "data",
							"type": "bytes"
						}
					],
					"name": "lowCall",
					"outputs": [
						{
							"internalType": "bool",
							"name": "",
							"type": "bool"
						},
						{
							"internalType": "bytes",
							"name": "",
							"type": "bytes"
						}
					],
					"stateMutability": "nonpayable",
					"type": "function"
				},
				{
					"inputs": [
						{
							"internalType": "address",
							"name": "a1",
							"type": "address"
						}
					],
					"name": "tpBytes",
					"outputs": [
						{
							"internalType": "bytes",
							"name": "",
							"type": "bytes"
						}
					],
					"stateMutability": "pure",
					"type": "function"
				}
			],
			"devdoc": {
				"kind": "dev",
				"methods": {},
				"version": 1
			},
			"evm": {
				"assembly": "    /* \"test/demo7_address.sol\":61:746  contract TestAddress{... */\n  mstore(0x40, 0x80)\n  callvalue\n  dup1\n  iszero\n  tag_1\n  jumpi\n  revert(0x00, 0x00)\ntag_1:\n  pop\n  dataSize(sub_0)\n  dup1\n  dataOffset(sub_0)\n  0x00\n  codecopy\n  0x00\n  return\nstop\n\nsub_0: assembly {\n        /* \"test/demo7_address.sol\":61:746  contract TestAddress{... */\n      mstore(0x40, 0x80)\n      callvalue\n      dup1\n      iszero\n      tag_1\n      jumpi\n      revert(0x00, 0x00)\n    tag_1:\n      pop\n      jumpi(tag_2, lt(calldatasize, 0x04))\n      shr(0xe0, calldataload(0x00))\n      dup1\n      0x8e8cf4a8\n      eq\n      tag_3\n      jumpi\n      dup1\n      0x95e885c0\n      eq\n      tag_4\n      jumpi\n      dup1\n      0xb672e65b\n      eq\n      tag_5\n      jumpi\n      dup1\n      0xf8b2cb4f\n      eq\n      tag_6\n      jumpi\n      dup1\n      0xfb71b26c\n      eq\n      tag_7\n      jumpi\n    tag_2:\n      revert(0x00, 0x00)\n        /* \"test/demo7_address.sol\":451:551  function getThisBalance() public  view returns (uint){... */\n    tag_3:\n      tag_8\n      tag_9\n      jump\t// in\n    tag_8:\n      mload(0x40)\n      tag_10\n      swap2\n      swap1\n      tag_11\n      jump\t// in\n    tag_10:\n      mload(0x40)\n      dup1\n      swap2\n      sub\n      swap1\n      return\n        /* \"test/demo7_address.sol\":114:223  function compareAddress(address a1,address a2) public  pure returns (bool){... */\n    tag_4:\n      tag_12\n      0x04\n      dup1\n      calldatasize\n      sub\n      dup2\n      add\n      swap1\n      tag_13\n      swap2\n      swap1\n      tag_14\n      jump\t// in\n    tag_13:\n      tag_15\n      jump\t// in\n    tag_12:\n      mload(0x40)\n      tag_16\n      swap2\n      swap1\n      tag_17\n      jump\t// in\n    tag_16:\n      mload(0x40)\n      dup1\n      swap2\n      sub\n      swap1\n      return\n        /* \"test/demo7_address.sol\":231:341  function tpBytes(address a1) public  pure  returns(bytes memory){... */\n    tag_5:\n      tag_18\n      0x04\n      dup1\n      calldatasize\n      sub\n      dup2\n      add\n      swap1\n      tag_19\n      swap2\n      swap1\n      tag_20\n      jump\t// in\n    tag_19:\n      tag_21\n      jump\t// in\n    tag_18:\n      mload(0x40)\n      tag_22\n      swap2\n      swap1\n      tag_23\n      jump\t// in\n    tag_22:\n      mload(0x40)\n      dup1\n      swap2\n      sub\n      swap1\n      return\n        /* \"test/demo7_address.sol\":350:445  function getBalance(address a1) public  view returns (uint){... */\n    tag_6:\n      tag_24\n      0x04\n      dup1\n      calldatasize\n      sub\n      dup2\n      add\n      swap1\n      tag_25\n      swap2\n      swap1\n      tag_20\n      jump\t// in\n    tag_25:\n      tag_26\n      jump\t// in\n    tag_24:\n      mload(0x40)\n      tag_27\n      swap2\n      swap1\n      tag_11\n      jump\t// in\n    tag_27:\n      mload(0x40)\n      dup1\n      swap2\n      sub\n      swap1\n      return\n        /* \"test/demo7_address.sol\":559:743  function lowCall(address a1,bytes memory data) public returns (bool,bytes memory){... */\n    tag_7:\n      tag_28\n      0x04\n      dup1\n      calldatasize\n      sub\n      dup2\n      add\n      swap1\n      tag_29\n      swap2\n      swap1\n      tag_30\n      jump\t// in\n    tag_29:\n      tag_31\n      jump\t// in\n    tag_28:\n      mload(0x40)\n      tag_32\n      swap3\n      swap2\n      swap1\n      tag_33\n      jump\t// in\n    tag_32:\n      mload(0x40)\n      dup1\n      swap2\n      sub\n      swap1\n      return\n        /* \"test/demo7_address.sol\":451:551  function getThisBalance() public  view returns (uint){... */\n    tag_9:\n        /* \"test/demo7_address.sol\":499:503  uint */\n      0x00\n        /* \"test/demo7_address.sol\":522:543  address(this).balance */\n      selfbalance\n        /* \"test/demo7_address.sol\":515:543  return address(this).balance */\n      swap1\n      pop\n        /* \"test/demo7_address.sol\":451:551  function getThisBalance() public  view returns (uint){... */\n      swap1\n      jump\t// out\n        /* \"test/demo7_address.sol\":114:223  function compareAddress(address a1,address a2) public  pure returns (bool){... */\n    tag_15:\n        /* \"test/demo7_address.sol\":183:187  bool */\n      0x00\n        /* \"test/demo7_address.sol\":213:215  a2 */\n      dup2\n        /* \"test/demo7_address.sol\":207:215  a1 == a2 */\n      0xffffffffffffffffffffffffffffffffffffffff\n      and\n        /* \"test/demo7_address.sol\":207:209  a1 */\n      dup4\n        /* \"test/demo7_address.sol\":207:215  a1 == a2 */\n      0xffffffffffffffffffffffffffffffffffffffff\n      and\n      eq\n        /* \"test/demo7_address.sol\":199:215  return  a1 == a2 */\n      swap1\n      pop\n        /* \"test/demo7_address.sol\":114:223  function compareAddress(address a1,address a2) public  pure returns (bool){... */\n      swap3\n      swap2\n      pop\n      pop\n      jump\t// out\n        /* \"test/demo7_address.sol\":231:341  function tpBytes(address a1) public  pure  returns(bytes memory){... */\n    tag_21:\n        /* \"test/demo7_address.sol\":282:294  bytes memory */\n      0x60\n        /* \"test/demo7_address.sol\":330:332  a1 */\n      dup2\n        /* \"test/demo7_address.sol\":313:333  abi.encodePacked(a1) */\n      add(0x20, mload(0x40))\n      tag_37\n      swap2\n      swap1\n      tag_38\n      jump\t// in\n    tag_37:\n      mload(0x40)\n      0x20\n      dup2\n      dup4\n      sub\n      sub\n      dup2\n      mstore\n      swap1\n      0x40\n      mstore\n        /* \"test/demo7_address.sol\":306:333  return abi.encodePacked(a1) */\n      swap1\n      pop\n        /* \"test/demo7_address.sol\":231:341  function tpBytes(address a1) public  pure  returns(bytes memory){... */\n      swap2\n      swap1\n      pop\n      jump\t// out\n        /* \"test/demo7_address.sol\":350:445  function getBalance(address a1) public  view returns (uint){... */\n    tag_26:\n        /* \"test/demo7_address.sol\":404:408  uint */\n      0x00\n        /* \"test/demo7_address.sol\":427:429  a1 */\n      dup2\n        /* \"test/demo7_address.sol\":427:437  a1.balance */\n      0xffffffffffffffffffffffffffffffffffffffff\n      and\n      balance\n        /* \"test/demo7_address.sol\":420:437  return a1.balance */\n      swap1\n      pop\n        /* \"test/demo7_address.sol\":350:445  function getBalance(address a1) public  view returns (uint){... */\n      swap2\n      swap1\n      pop\n      jump\t// out\n        /* \"test/demo7_address.sol\":559:743  function lowCall(address a1,bytes memory data) public returns (bool,bytes memory){... */\n    tag_31:\n        /* \"test/demo7_address.sol\":622:626  bool */\n      0x00\n        /* \"test/demo7_address.sol\":627:639  bytes memory */\n      0x60\n        /* \"test/demo7_address.sol\":652:664  bool success */\n      0x00\n        /* \"test/demo7_address.sol\":665:684  bytes memory result */\n      0x00\n        /* \"test/demo7_address.sol\":688:690  a1 */\n      dup6\n        /* \"test/demo7_address.sol\":688:695  a1.call */\n      0xffffffffffffffffffffffffffffffffffffffff\n      and\n        /* \"test/demo7_address.sol\":696:700  data */\n      dup6\n        /* \"test/demo7_address.sol\":688:701  a1.call(data) */\n      mload(0x40)\n      tag_41\n      swap2\n      swap1\n      tag_42\n      jump\t// in\n    tag_41:\n      0x00\n      mload(0x40)\n      dup1\n      dup4\n      sub\n      dup2\n      0x00\n      dup7\n      gas\n      call\n      swap2\n      pop\n      pop\n      returndatasize\n      dup1\n      0x00\n      dup2\n      eq\n      tag_45\n      jumpi\n      mload(0x40)\n      swap2\n      pop\n      and(add(returndatasize, 0x3f), not(0x1f))\n      dup3\n      add\n      0x40\n      mstore\n      returndatasize\n      dup3\n      mstore\n      returndatasize\n      0x00\n      0x20\n      dup5\n      add\n      returndatacopy\n      jump(tag_44)\n    tag_45:\n      0x60\n      swap2\n      pop\n    tag_44:\n      pop\n        /* \"test/demo7_address.sol\":651:701  (bool success,bytes memory result) = a1.call(data) */\n      swap2\n      pop\n      swap2\n      pop\n        /* \"test/demo7_address.sol\":720:727  success */\n      dup2\n        /* \"test/demo7_address.sol\":728:734  result */\n      dup2\n        /* \"test/demo7_address.sol\":712:735  return (success,result) */\n      swap4\n      pop\n      swap4\n      pop\n      pop\n      pop\n        /* \"test/demo7_address.sol\":559:743  function lowCall(address a1,bytes memory data) public returns (bool,bytes memory){... */\n      swap3\n      pop\n      swap3\n      swap1\n      pop\n      jump\t// out\n        /* \"#utility.yul\":7:84   */\n    tag_46:\n        /* \"#utility.yul\":44:51   */\n      0x00\n        /* \"#utility.yul\":73:78   */\n      dup2\n        /* \"#utility.yul\":62:78   */\n      swap1\n      pop\n        /* \"#utility.yul\":7:84   */\n      swap2\n      swap1\n      pop\n      jump\t// out\n        /* \"#utility.yul\":90:208   */\n    tag_47:\n        /* \"#utility.yul\":177:201   */\n      tag_80\n        /* \"#utility.yul\":195:200   */\n      dup2\n        /* \"#utility.yul\":177:201   */\n      tag_46\n      jump\t// in\n    tag_80:\n        /* \"#utility.yul\":172:175   */\n      dup3\n        /* \"#utility.yul\":165:202   */\n      mstore\n        /* \"#utility.yul\":90:208   */\n      pop\n      pop\n      jump\t// out\n        /* \"#utility.yul\":214:436   */\n    tag_11:\n        /* \"#utility.yul\":307:311   */\n      0x00\n        /* \"#utility.yul\":345:347   */\n      0x20\n        /* \"#utility.yul\":334:343   */\n      dup3\n        /* \"#utility.yul\":330:348   */\n      add\n        /* \"#utility.yul\":322:348   */\n      swap1\n      pop\n        /* \"#utility.yul\":358:429   */\n      tag_82\n        /* \"#utility.yul\":426:427   */\n      0x00\n        /* \"#utility.yul\":415:424   */\n      dup4\n        /* \"#utility.yul\":411:428   */\n      add\n        /* \"#utility.yul\":402:408   */\n      dup5\n        /* \"#utility.yul\":358:429   */\n      tag_47\n      jump\t// in\n    tag_82:\n        /* \"#utility.yul\":214:436   */\n      swap3\n      swap2\n      pop\n      pop\n      jump\t// out\n        /* \"#utility.yul\":442:517   */\n    tag_48:\n        /* \"#utility.yul\":475:481   */\n      0x00\n        /* \"#utility.yul\":508:510   */\n      0x40\n        /* \"#utility.yul\":502:511   */\n      mload\n        /* \"#utility.yul\":492:511   */\n      swap1\n      pop\n        /* \"#utility.yul\":442:517   */\n      swap1\n      jump\t// out\n        /* \"#utility.yul\":523:640   */\n    tag_49:\n        /* \"#utility.yul\":632:633   */\n      0x00\n        /* \"#utility.yul\":629:630   */\n      0x00\n        /* \"#utility.yul\":622:634   */\n      revert\n        /* \"#utility.yul\":646:763   */\n    tag_50:\n        /* \"#utility.yul\":755:756   */\n      0x00\n        /* \"#utility.yul\":752:753   */\n      0x00\n        /* \"#utility.yul\":745:757   */\n      revert\n        /* \"#utility.yul\":769:895   */\n    tag_51:\n        /* \"#utility.yul\":806:813   */\n      0x00\n        /* \"#utility.yul\":846:888   */\n      0xffffffffffffffffffffffffffffffffffffffff\n        /* \"#utility.yul\":839:844   */\n      dup3\n        /* \"#utility.yul\":835:889   */\n      and\n        /* \"#utility.yul\":824:889   */\n      swap1\n      pop\n        /* \"#utility.yul\":769:895   */\n      swap2\n      swap1\n      pop\n      jump\t// out\n        /* \"#utility.yul\":901:997   */\n    tag_52:\n        /* \"#utility.yul\":938:945   */\n      0x00\n        /* \"#utility.yul\":967:991   */\n      tag_88\n        /* \"#utility.yul\":985:990   */\n      dup3\n        /* \"#utility.yul\":967:991   */\n      tag_51\n      jump\t// in\n    tag_88:\n        /* \"#utility.yul\":956:991   */\n      swap1\n      pop\n        /* \"#utility.yul\":901:997   */\n      swap2\n      swap1\n      pop\n      jump\t// out\n        /* \"#utility.yul\":1003:1125   */\n    tag_53:\n        /* \"#utility.yul\":1076:1100   */\n      tag_90\n        /* \"#utility.yul\":1094:1099   */\n      dup2\n        /* \"#utility.yul\":1076:1100   */\n      tag_52\n      jump\t// in\n    tag_90:\n        /* \"#utility.yul\":1069:1074   */\n      dup2\n        /* \"#utility.yul\":1066:1101   */\n      eq\n        /* \"#utility.yul\":1056:1119   */\n      tag_91\n      jumpi\n        /* \"#utility.yul\":1115:1116   */\n      0x00\n        /* \"#utility.yul\":1112:1113   */\n      0x00\n        /* \"#utility.yul\":1105:1117   */\n      revert\n        /* \"#utility.yul\":1056:1119   */\n    tag_91:\n        /* \"#utility.yul\":1003:1125   */\n      pop\n      jump\t// out\n        /* \"#utility.yul\":1131:1270   */\n    tag_54:\n        /* \"#utility.yul\":1177:1182   */\n      0x00\n        /* \"#utility.yul\":1215:1221   */\n      dup2\n        /* \"#utility.yul\":1202:1222   */\n      calldataload\n        /* \"#utility.yul\":1193:1222   */\n      swap1\n      pop\n        /* \"#utility.yul\":1231:1264   */\n      tag_93\n        /* \"#utility.yul\":1258:1263   */\n      dup2\n        /* \"#utility.yul\":1231:1264   */\n      tag_53\n      jump\t// in\n    tag_93:\n        /* \"#utility.yul\":1131:1270   */\n      swap3\n      swap2\n      pop\n      pop\n      jump\t// out\n        /* \"#utility.yul\":1276:1750   */\n    tag_14:\n        /* \"#utility.yul\":1344:1350   */\n      0x00\n        /* \"#utility.yul\":1352:1358   */\n      0x00\n        /* \"#utility.yul\":1401:1403   */\n      0x40\n        /* \"#utility.yul\":1389:1398   */\n      dup4\n        /* \"#utility.yul\":1380:1387   */\n      dup6\n        /* \"#utility.yul\":1376:1399   */\n      sub\n        /* \"#utility.yul\":1372:1404   */\n      slt\n        /* \"#utility.yul\":1369:1488   */\n      iszero\n      tag_95\n      jumpi\n        /* \"#utility.yul\":1407:1486   */\n      tag_96\n      tag_49\n      jump\t// in\n    tag_96:\n        /* \"#utility.yul\":1369:1488   */\n    tag_95:\n        /* \"#utility.yul\":1527:1528   */\n      0x00\n        /* \"#utility.yul\":1552:1605   */\n      tag_97\n        /* \"#utility.yul\":1597:1604   */\n      dup6\n        /* \"#utility.yul\":1588:1594   */\n      dup3\n        /* \"#utility.yul\":1577:1586   */\n      dup7\n        /* \"#utility.yul\":1573:1595   */\n      add\n        /* \"#utility.yul\":1552:1605   */\n      tag_54\n      jump\t// in\n    tag_97:\n        /* \"#utility.yul\":1542:1605   */\n      swap3\n      pop\n        /* \"#utility.yul\":1498:1615   */\n      pop\n        /* \"#utility.yul\":1654:1656   */\n      0x20\n        /* \"#utility.yul\":1680:1733   */\n      tag_98\n        /* \"#utility.yul\":1725:1732   */\n      dup6\n        /* \"#utility.yul\":1716:1722   */\n      dup3\n        /* \"#utility.yul\":1705:1714   */\n      dup7\n        /* \"#utility.yul\":1701:1723   */\n      add\n        /* \"#utility.yul\":1680:1733   */\n      tag_54\n      jump\t// in\n    tag_98:\n        /* \"#utility.yul\":1670:1733   */\n      swap2\n      pop\n        /* \"#utility.yul\":1625:1743   */\n      pop\n        /* \"#utility.yul\":1276:1750   */\n      swap3\n      pop\n      swap3\n      swap1\n      pop\n      jump\t// out\n        /* \"#utility.yul\":1756:1846   */\n    tag_55:\n        /* \"#utility.yul\":1790:1797   */\n      0x00\n        /* \"#utility.yul\":1833:1838   */\n      dup2\n        /* \"#utility.yul\":1826:1839   */\n      iszero\n        /* \"#utility.yul\":1819:1840   */\n      iszero\n        /* \"#utility.yul\":1808:1840   */\n      swap1\n      pop\n        /* \"#utility.yul\":1756:1846   */\n      swap2\n      swap1\n      pop\n      jump\t// out\n        /* \"#utility.yul\":1852:1961   */\n    tag_56:\n        /* \"#utility.yul\":1933:1954   */\n      tag_101\n        /* \"#utility.yul\":1948:1953   */\n      dup2\n        /* \"#utility.yul\":1933:1954   */\n      tag_55\n      jump\t// in\n    tag_101:\n        /* \"#utility.yul\":1928:1931   */\n      dup3\n        /* \"#utility.yul\":1921:1955   */\n      mstore\n        /* \"#utility.yul\":1852:1961   */\n      pop\n      pop\n      jump\t// out\n        /* \"#utility.yul\":1967:2177   */\n    tag_17:\n        /* \"#utility.yul\":2054:2058   */\n      0x00\n        /* \"#utility.yul\":2092:2094   */\n      0x20\n        /* \"#utility.yul\":2081:2090   */\n      dup3\n        /* \"#utility.yul\":2077:2095   */\n      add\n        /* \"#utility.yul\":2069:2095   */\n      swap1\n      pop\n        /* \"#utility.yul\":2105:2170   */\n      tag_103\n        /* \"#utility.yul\":2167:2168   */\n      0x00\n        /* \"#utility.yul\":2156:2165   */\n      dup4\n        /* \"#utility.yul\":2152:2169   */\n      add\n        /* \"#utility.yul\":2143:2149   */\n      dup5\n        /* \"#utility.yul\":2105:2170   */\n      tag_56\n      jump\t// in\n    tag_103:\n        /* \"#utility.yul\":1967:2177   */\n      swap3\n      swap2\n      pop\n      pop\n      jump\t// out\n        /* \"#utility.yul\":2183:2512   */\n    tag_20:\n        /* \"#utility.yul\":2242:2248   */\n      0x00\n        /* \"#utility.yul\":2291:2293   */\n      0x20\n        /* \"#utility.yul\":2279:2288   */\n      dup3\n        /* \"#utility.yul\":2270:2277   */\n      dup5\n        /* \"#utility.yul\":2266:2289   */\n      sub\n        /* \"#utility.yul\":2262:2294   */\n      slt\n        /* \"#utility.yul\":2259:2378   */\n      iszero\n      tag_105\n      jumpi\n        /* \"#utility.yul\":2297:2376   */\n      tag_106\n      tag_49\n      jump\t// in\n    tag_106:\n        /* \"#utility.yul\":2259:2378   */\n    tag_105:\n        /* \"#utility.yul\":2417:2418   */\n      0x00\n        /* \"#utility.yul\":2442:2495   */\n      tag_107\n        /* \"#utility.yul\":2487:2494   */\n      dup5\n        /* \"#utility.yul\":2478:2484   */\n      dup3\n        /* \"#utility.yul\":2467:2476   */\n      dup6\n        /* \"#utility.yul\":2463:2485   */\n      add\n        /* \"#utility.yul\":2442:2495   */\n      tag_54\n      jump\t// in\n    tag_107:\n        /* \"#utility.yul\":2432:2495   */\n      swap2\n      pop\n        /* \"#utility.yul\":2388:2505   */\n      pop\n        /* \"#utility.yul\":2183:2512   */\n      swap3\n      swap2\n      pop\n      pop\n      jump\t// out\n        /* \"#utility.yul\":2518:2616   */\n    tag_57:\n        /* \"#utility.yul\":2569:2575   */\n      0x00\n        /* \"#utility.yul\":2603:2608   */\n      dup2\n        /* \"#utility.yul\":2597:2609   */\n      mload\n        /* \"#utility.yul\":2587:2609   */\n      swap1\n      pop\n        /* \"#utility.yul\":2518:2616   */\n      swap2\n      swap1\n      pop\n      jump\t// out\n        /* \"#utility.yul\":2622:2790   */\n    tag_58:\n        /* \"#utility.yul\":2705:2716   */\n      0x00\n        /* \"#utility.yul\":2739:2745   */\n      dup3\n        /* \"#utility.yul\":2734:2737   */\n      dup3\n        /* \"#utility.yul\":2727:2746   */\n      mstore\n        /* \"#utility.yul\":2779:2783   */\n      0x20\n        /* \"#utility.yul\":2774:2777   */\n      dup3\n        /* \"#utility.yul\":2770:2784   */\n      add\n        /* \"#utility.yul\":2755:2784   */\n      swap1\n      pop\n        /* \"#utility.yul\":2622:2790   */\n      swap3\n      swap2\n      pop\n      pop\n      jump\t// out\n        /* \"#utility.yul\":2796:2935   */\n    tag_59:\n        /* \"#utility.yul\":2885:2891   */\n      dup3\n        /* \"#utility.yul\":2880:2883   */\n      dup2\n        /* \"#utility.yul\":2875:2878   */\n      dup4\n        /* \"#utility.yul\":2869:2892   */\n      mcopy\n        /* \"#utility.yul\":2926:2927   */\n      0x00\n        /* \"#utility.yul\":2917:2923   */\n      dup4\n        /* \"#utility.yul\":2912:2915   */\n      dup4\n        /* \"#utility.yul\":2908:2924   */\n      add\n        /* \"#utility.yul\":2901:2928   */\n      mstore\n        /* \"#utility.yul\":2796:2935   */\n      pop\n      pop\n      pop\n      jump\t// out\n        /* \"#utility.yul\":2941:3043   */\n    tag_60:\n        /* \"#utility.yul\":2982:2988   */\n      0x00\n        /* \"#utility.yul\":3033:3035   */\n      0x1f\n        /* \"#utility.yul\":3029:3036   */\n      not\n        /* \"#utility.yul\":3024:3026   */\n      0x1f\n        /* \"#utility.yul\":3017:3022   */\n      dup4\n        /* \"#utility.yul\":3013:3027   */\n      add\n        /* \"#utility.yul\":3009:3037   */\n      and\n        /* \"#utility.yul\":2999:3037   */\n      swap1\n      pop\n        /* \"#utility.yul\":2941:3043   */\n      swap2\n      swap1\n      pop\n      jump\t// out\n        /* \"#utility.yul\":3049:3422   */\n    tag_61:\n        /* \"#utility.yul\":3135:3138   */\n      0x00\n        /* \"#utility.yul\":3163:3201   */\n      tag_113\n        /* \"#utility.yul\":3195:3200   */\n      dup3\n        /* \"#utility.yul\":3163:3201   */\n      tag_57\n      jump\t// in\n    tag_113:\n        /* \"#utility.yul\":3217:3287   */\n      tag_114\n        /* \"#utility.yul\":3280:3286   */\n      dup2\n        /* \"#utility.yul\":3275:3278   */\n      dup6\n        /* \"#utility.yul\":3217:3287   */\n      tag_58\n      jump\t// in\n    tag_114:\n        /* \"#utility.yul\":3210:3287   */\n      swap4\n      pop\n        /* \"#utility.yul\":3296:3361   */\n      tag_115\n        /* \"#utility.yul\":3354:3360   */\n      dup2\n        /* \"#utility.yul\":3349:3352   */\n      dup6\n        /* \"#utility.yul\":3342:3346   */\n      0x20\n        /* \"#utility.yul\":3335:3340   */\n      dup7\n        /* \"#utility.yul\":3331:3347   */\n      add\n        /* \"#utility.yul\":3296:3361   */\n      tag_59\n      jump\t// in\n    tag_115:\n        /* \"#utility.yul\":3386:3415   */\n      tag_116\n        /* \"#utility.yul\":3408:3414   */\n      dup2\n        /* \"#utility.yul\":3386:3415   */\n      tag_60\n      jump\t// in\n    tag_116:\n        /* \"#utility.yul\":3381:3384   */\n      dup5\n        /* \"#utility.yul\":3377:3416   */\n      add\n        /* \"#utility.yul\":3370:3416   */\n      swap2\n      pop\n        /* \"#utility.yul\":3139:3422   */\n      pop\n        /* \"#utility.yul\":3049:3422   */\n      swap3\n      swap2\n      pop\n      pop\n      jump\t// out\n        /* \"#utility.yul\":3428:3737   */\n    tag_23:\n        /* \"#utility.yul\":3539:3543   */\n      0x00\n        /* \"#utility.yul\":3577:3579   */\n      0x20\n        /* \"#utility.yul\":3566:3575   */\n      dup3\n        /* \"#utility.yul\":3562:3580   */\n      add\n        /* \"#utility.yul\":3554:3580   */\n      swap1\n      pop\n        /* \"#utility.yul\":3626:3635   */\n      dup2\n        /* \"#utility.yul\":3620:3624   */\n      dup2\n        /* \"#utility.yul\":3616:3636   */\n      sub\n        /* \"#utility.yul\":3612:3613   */\n      0x00\n        /* \"#utility.yul\":3601:3610   */\n      dup4\n        /* \"#utility.yul\":3597:3614   */\n      add\n        /* \"#utility.yul\":3590:3637   */\n      mstore\n        /* \"#utility.yul\":3654:3730   */\n      tag_118\n        /* \"#utility.yul\":3725:3729   */\n      dup2\n        /* \"#utility.yul\":3716:3722   */\n      dup5\n        /* \"#utility.yul\":3654:3730   */\n      tag_61\n      jump\t// in\n    tag_118:\n        /* \"#utility.yul\":3646:3730   */\n      swap1\n      pop\n        /* \"#utility.yul\":3428:3737   */\n      swap3\n      swap2\n      pop\n      pop\n      jump\t// out\n        /* \"#utility.yul\":3743:3860   */\n    tag_62:\n        /* \"#utility.yul\":3852:3853   */\n      0x00\n        /* \"#utility.yul\":3849:3850   */\n      0x00\n        /* \"#utility.yul\":3842:3854   */\n      revert\n        /* \"#utility.yul\":3866:3983   */\n    tag_63:\n        /* \"#utility.yul\":3975:3976   */\n      0x00\n        /* \"#utility.yul\":3972:3973   */\n      0x00\n        /* \"#utility.yul\":3965:3977   */\n      revert\n        /* \"#utility.yul\":3989:4169   */\n    tag_64:\n        /* \"#utility.yul\":4037:4114   */\n      0x4e487b7100000000000000000000000000000000000000000000000000000000\n        /* \"#utility.yul\":4034:4035   */\n      0x00\n        /* \"#utility.yul\":4027:4115   */\n      mstore\n        /* \"#utility.yul\":4134:4138   */\n      0x41\n        /* \"#utility.yul\":4131:4132   */\n      0x04\n        /* \"#utility.yul\":4124:4139   */\n      mstore\n        /* \"#utility.yul\":4158:4162   */\n      0x24\n        /* \"#utility.yul\":4155:4156   */\n      0x00\n        /* \"#utility.yul\":4148:4163   */\n      revert\n        /* \"#utility.yul\":4175:4456   */\n    tag_65:\n        /* \"#utility.yul\":4258:4285   */\n      tag_123\n        /* \"#utility.yul\":4280:4284   */\n      dup3\n        /* \"#utility.yul\":4258:4285   */\n      tag_60\n      jump\t// in\n    tag_123:\n        /* \"#utility.yul\":4250:4256   */\n      dup2\n        /* \"#utility.yul\":4246:4286   */\n      add\n        /* \"#utility.yul\":4388:4394   */\n      dup2\n        /* \"#utility.yul\":4376:4386   */\n      dup2\n        /* \"#utility.yul\":4373:4395   */\n      lt\n        /* \"#utility.yul\":4352:4370   */\n      0xffffffffffffffff\n        /* \"#utility.yul\":4340:4350   */\n      dup3\n        /* \"#utility.yul\":4337:4371   */\n      gt\n        /* \"#utility.yul\":4334:4396   */\n      or\n        /* \"#utility.yul\":4331:4419   */\n      iszero\n      tag_124\n      jumpi\n        /* \"#utility.yul\":4399:4417   */\n      tag_125\n      tag_64\n      jump\t// in\n    tag_125:\n        /* \"#utility.yul\":4331:4419   */\n    tag_124:\n        /* \"#utility.yul\":4439:4449   */\n      dup1\n        /* \"#utility.yul\":4435:4437   */\n      0x40\n        /* \"#utility.yul\":4428:4450   */\n      mstore\n        /* \"#utility.yul\":4218:4456   */\n      pop\n        /* \"#utility.yul\":4175:4456   */\n      pop\n      pop\n      jump\t// out\n        /* \"#utility.yul\":4462:4591   */\n    tag_66:\n        /* \"#utility.yul\":4496:4502   */\n      0x00\n        /* \"#utility.yul\":4523:4543   */\n      tag_127\n      tag_48\n      jump\t// in\n    tag_127:\n        /* \"#utility.yul\":4513:4543   */\n      swap1\n      pop\n        /* \"#utility.yul\":4552:4585   */\n      tag_128\n        /* \"#utility.yul\":4580:4584   */\n      dup3\n        /* \"#utility.yul\":4572:4578   */\n      dup3\n        /* \"#utility.yul\":4552:4585   */\n      tag_65\n      jump\t// in\n    tag_128:\n        /* \"#utility.yul\":4462:4591   */\n      swap2\n      swap1\n      pop\n      jump\t// out\n        /* \"#utility.yul\":4597:4904   */\n    tag_67:\n        /* \"#utility.yul\":4658:4662   */\n      0x00\n        /* \"#utility.yul\":4748:4766   */\n      0xffffffffffffffff\n        /* \"#utility.yul\":4740:4746   */\n      dup3\n        /* \"#utility.yul\":4737:4767   */\n      gt\n        /* \"#utility.yul\":4734:4790   */\n      iszero\n      tag_130\n      jumpi\n        /* \"#utility.yul\":4770:4788   */\n      tag_131\n      tag_64\n      jump\t// in\n    tag_131:\n        /* \"#utility.yul\":4734:4790   */\n    tag_130:\n        /* \"#utility.yul\":4808:4837   */\n      tag_132\n        /* \"#utility.yul\":4830:4836   */\n      dup3\n        /* \"#utility.yul\":4808:4837   */\n      tag_60\n      jump\t// in\n    tag_132:\n        /* \"#utility.yul\":4800:4837   */\n      swap1\n      pop\n        /* \"#utility.yul\":4892:4896   */\n      0x20\n        /* \"#utility.yul\":4886:4890   */\n      dup2\n        /* \"#utility.yul\":4882:4897   */\n      add\n        /* \"#utility.yul\":4874:4897   */\n      swap1\n      pop\n        /* \"#utility.yul\":4597:4904   */\n      swap2\n      swap1\n      pop\n      jump\t// out\n        /* \"#utility.yul\":4910:5058   */\n    tag_68:\n        /* \"#utility.yul\":5008:5014   */\n      dup3\n        /* \"#utility.yul\":5003:5006   */\n      dup2\n        /* \"#utility.yul\":4998:5001   */\n      dup4\n        /* \"#utility.yul\":4985:5015   */\n      calldatacopy\n        /* \"#utility.yul\":5049:5050   */\n      0x00\n        /* \"#utility.yul\":5040:5046   */\n      dup4\n        /* \"#utility.yul\":5035:5038   */\n      dup4\n        /* \"#utility.yul\":5031:5047   */\n      add\n        /* \"#utility.yul\":5024:5051   */\n      mstore\n        /* \"#utility.yul\":4910:5058   */\n      pop\n      pop\n      pop\n      jump\t// out\n        /* \"#utility.yul\":5064:5487   */\n    tag_69:\n        /* \"#utility.yul\":5141:5146   */\n      0x00\n        /* \"#utility.yul\":5166:5231   */\n      tag_135\n        /* \"#utility.yul\":5182:5230   */\n      tag_136\n        /* \"#utility.yul\":5223:5229   */\n      dup5\n        /* \"#utility.yul\":5182:5230   */\n      tag_67\n      jump\t// in\n    tag_136:\n        /* \"#utility.yul\":5166:5231   */\n      tag_66\n      jump\t// in\n    tag_135:\n        /* \"#utility.yul\":5157:5231   */\n      swap1\n      pop\n        /* \"#utility.yul\":5254:5260   */\n      dup3\n        /* \"#utility.yul\":5247:5252   */\n      dup2\n        /* \"#utility.yul\":5240:5261   */\n      mstore\n        /* \"#utility.yul\":5292:5296   */\n      0x20\n        /* \"#utility.yul\":5285:5290   */\n      dup2\n        /* \"#utility.yul\":5281:5297   */\n      add\n        /* \"#utility.yul\":5330:5333   */\n      dup5\n        /* \"#utility.yul\":5321:5327   */\n      dup5\n        /* \"#utility.yul\":5316:5319   */\n      dup5\n        /* \"#utility.yul\":5312:5328   */\n      add\n        /* \"#utility.yul\":5309:5334   */\n      gt\n        /* \"#utility.yul\":5306:5418   */\n      iszero\n      tag_137\n      jumpi\n        /* \"#utility.yul\":5337:5416   */\n      tag_138\n      tag_63\n      jump\t// in\n    tag_138:\n        /* \"#utility.yul\":5306:5418   */\n    tag_137:\n        /* \"#utility.yul\":5427:5481   */\n      tag_139\n        /* \"#utility.yul\":5474:5480   */\n      dup5\n        /* \"#utility.yul\":5469:5472   */\n      dup3\n        /* \"#utility.yul\":5464:5467   */\n      dup6\n        /* \"#utility.yul\":5427:5481   */\n      tag_68\n      jump\t// in\n    tag_139:\n        /* \"#utility.yul\":5147:5487   */\n      pop\n        /* \"#utility.yul\":5064:5487   */\n      swap4\n      swap3\n      pop\n      pop\n      pop\n      jump\t// out\n        /* \"#utility.yul\":5506:5844   */\n    tag_70:\n        /* \"#utility.yul\":5561:5566   */\n      0x00\n        /* \"#utility.yul\":5610:5613   */\n      dup3\n        /* \"#utility.yul\":5603:5607   */\n      0x1f\n        /* \"#utility.yul\":5595:5601   */\n      dup4\n        /* \"#utility.yul\":5591:5608   */\n      add\n        /* \"#utility.yul\":5587:5614   */\n      slt\n        /* \"#utility.yul\":5577:5699   */\n      tag_141\n      jumpi\n        /* \"#utility.yul\":5618:5697   */\n      tag_142\n      tag_62\n      jump\t// in\n    tag_142:\n        /* \"#utility.yul\":5577:5699   */\n    tag_141:\n        /* \"#utility.yul\":5735:5741   */\n      dup2\n        /* \"#utility.yul\":5722:5742   */\n      calldataload\n        /* \"#utility.yul\":5760:5838   */\n      tag_143\n        /* \"#utility.yul\":5834:5837   */\n      dup5\n        /* \"#utility.yul\":5826:5832   */\n      dup3\n        /* \"#utility.yul\":5819:5823   */\n      0x20\n        /* \"#utility.yul\":5811:5817   */\n      dup7\n        /* \"#utility.yul\":5807:5824   */\n      add\n        /* \"#utility.yul\":5760:5838   */\n      tag_69\n      jump\t// in\n    tag_143:\n        /* \"#utility.yul\":5751:5838   */\n      swap2\n      pop\n        /* \"#utility.yul\":5567:5844   */\n      pop\n        /* \"#utility.yul\":5506:5844   */\n      swap3\n      swap2\n      pop\n      pop\n      jump\t// out\n        /* \"#utility.yul\":5850:6502   */\n    tag_30:\n        /* \"#utility.yul\":5927:5933   */\n      0x00\n        /* \"#utility.yul\":5935:5941   */\n      0x00\n        /* \"#utility.yul\":5984:5986   */\n      0x40\n        /* \"#utility.yul\":5972:5981   */\n      dup4\n        /* \"#utility.yul\":5963:5970   */\n      dup6\n        /* \"#utility.yul\":5959:5982   */\n      sub\n        /* \"#utility.yul\":5955:5987   */\n      slt\n        /* \"#utility.yul\":5952:6071   */\n      iszero\n      tag_145\n      jumpi\n        /* \"#utility.yul\":5990:6069   */\n      tag_146\n      tag_49\n      jump\t// in\n    tag_146:\n        /* \"#utility.yul\":5952:6071   */\n    tag_145:\n        /* \"#utility.yul\":6110:6111   */\n      0x00\n        /* \"#utility.yul\":6135:6188   */\n      tag_147\n        /* \"#utility.yul\":6180:6187   */\n      dup6\n        /* \"#utility.yul\":6171:6177   */\n      dup3\n        /* \"#utility.yul\":6160:6169   */\n      dup7\n        /* \"#utility.yul\":6156:6178   */\n      add\n        /* \"#utility.yul\":6135:6188   */\n      tag_54\n      jump\t// in\n    tag_147:\n        /* \"#utility.yul\":6125:6188   */\n      swap3\n      pop\n        /* \"#utility.yul\":6081:6198   */\n      pop\n        /* \"#utility.yul\":6265:6267   */\n      0x20\n        /* \"#utility.yul\":6254:6263   */\n      dup4\n        /* \"#utility.yul\":6250:6268   */\n      add\n        /* \"#utility.yul\":6237:6269   */\n      calldataload\n        /* \"#utility.yul\":6296:6314   */\n      0xffffffffffffffff\n        /* \"#utility.yul\":6288:6294   */\n      dup2\n        /* \"#utility.yul\":6285:6315   */\n      gt\n        /* \"#utility.yul\":6282:6399   */\n      iszero\n      tag_148\n      jumpi\n        /* \"#utility.yul\":6318:6397   */\n      tag_149\n      tag_50\n      jump\t// in\n    tag_149:\n        /* \"#utility.yul\":6282:6399   */\n    tag_148:\n        /* \"#utility.yul\":6423:6485   */\n      tag_150\n        /* \"#utility.yul\":6477:6484   */\n      dup6\n        /* \"#utility.yul\":6468:6474   */\n      dup3\n        /* \"#utility.yul\":6457:6466   */\n      dup7\n        /* \"#utility.yul\":6453:6475   */\n      add\n        /* \"#utility.yul\":6423:6485   */\n      tag_70\n      jump\t// in\n    tag_150:\n        /* \"#utility.yul\":6413:6485   */\n      swap2\n      pop\n        /* \"#utility.yul\":6208:6495   */\n      pop\n        /* \"#utility.yul\":5850:6502   */\n      swap3\n      pop\n      swap3\n      swap1\n      pop\n      jump\t// out\n        /* \"#utility.yul\":6508:6915   */\n    tag_33:\n        /* \"#utility.yul\":6641:6645   */\n      0x00\n        /* \"#utility.yul\":6679:6681   */\n      0x40\n        /* \"#utility.yul\":6668:6677   */\n      dup3\n        /* \"#utility.yul\":6664:6682   */\n      add\n        /* \"#utility.yul\":6656:6682   */\n      swap1\n      pop\n        /* \"#utility.yul\":6692:6757   */\n      tag_152\n        /* \"#utility.yul\":6754:6755   */\n      0x00\n        /* \"#utility.yul\":6743:6752   */\n      dup4\n        /* \"#utility.yul\":6739:6756   */\n      add\n        /* \"#utility.yul\":6730:6736   */\n      dup6\n        /* \"#utility.yul\":6692:6757   */\n      tag_56\n      jump\t// in\n    tag_152:\n        /* \"#utility.yul\":6804:6813   */\n      dup2\n        /* \"#utility.yul\":6798:6802   */\n      dup2\n        /* \"#utility.yul\":6794:6814   */\n      sub\n        /* \"#utility.yul\":6789:6791   */\n      0x20\n        /* \"#utility.yul\":6778:6787   */\n      dup4\n        /* \"#utility.yul\":6774:6792   */\n      add\n        /* \"#utility.yul\":6767:6815   */\n      mstore\n        /* \"#utility.yul\":6832:6908   */\n      tag_153\n        /* \"#utility.yul\":6903:6907   */\n      dup2\n        /* \"#utility.yul\":6894:6900   */\n      dup5\n        /* \"#utility.yul\":6832:6908   */\n      tag_61\n      jump\t// in\n    tag_153:\n        /* \"#utility.yul\":6824:6908   */\n      swap1\n      pop\n        /* \"#utility.yul\":6508:6915   */\n      swap4\n      swap3\n      pop\n      pop\n      pop\n      jump\t// out\n        /* \"#utility.yul\":6921:7015   */\n    tag_71:\n        /* \"#utility.yul\":6954:6962   */\n      0x00\n        /* \"#utility.yul\":7002:7007   */\n      dup2\n        /* \"#utility.yul\":6998:7000   */\n      0x60\n        /* \"#utility.yul\":6994:7008   */\n      shl\n        /* \"#utility.yul\":6973:7008   */\n      swap1\n      pop\n        /* \"#utility.yul\":6921:7015   */\n      swap2\n      swap1\n      pop\n      jump\t// out\n        /* \"#utility.yul\":7021:7115   */\n    tag_72:\n        /* \"#utility.yul\":7060:7067   */\n      0x00\n        /* \"#utility.yul\":7089:7109   */\n      tag_156\n        /* \"#utility.yul\":7103:7108   */\n      dup3\n        /* \"#utility.yul\":7089:7109   */\n      tag_71\n      jump\t// in\n    tag_156:\n        /* \"#utility.yul\":7078:7109   */\n      swap1\n      pop\n        /* \"#utility.yul\":7021:7115   */\n      swap2\n      swap1\n      pop\n      jump\t// out\n        /* \"#utility.yul\":7121:7221   */\n    tag_73:\n        /* \"#utility.yul\":7160:7167   */\n      0x00\n        /* \"#utility.yul\":7189:7215   */\n      tag_158\n        /* \"#utility.yul\":7209:7214   */\n      dup3\n        /* \"#utility.yul\":7189:7215   */\n      tag_72\n      jump\t// in\n    tag_158:\n        /* \"#utility.yul\":7178:7215   */\n      swap1\n      pop\n        /* \"#utility.yul\":7121:7221   */\n      swap2\n      swap1\n      pop\n      jump\t// out\n        /* \"#utility.yul\":7227:7384   */\n    tag_74:\n        /* \"#utility.yul\":7332:7377   */\n      tag_160\n        /* \"#utility.yul\":7352:7376   */\n      tag_161\n        /* \"#utility.yul\":7370:7375   */\n      dup3\n        /* \"#utility.yul\":7352:7376   */\n      tag_52\n      jump\t// in\n    tag_161:\n        /* \"#utility.yul\":7332:7377   */\n      tag_73\n      jump\t// in\n    tag_160:\n        /* \"#utility.yul\":7327:7330   */\n      dup3\n        /* \"#utility.yul\":7320:7378   */\n      mstore\n        /* \"#utility.yul\":7227:7384   */\n      pop\n      pop\n      jump\t// out\n        /* \"#utility.yul\":7390:7646   */\n    tag_38:\n        /* \"#utility.yul\":7502:7505   */\n      0x00\n        /* \"#utility.yul\":7517:7592   */\n      tag_163\n        /* \"#utility.yul\":7588:7591   */\n      dup3\n        /* \"#utility.yul\":7579:7585   */\n      dup5\n        /* \"#utility.yul\":7517:7592   */\n      tag_74\n      jump\t// in\n    tag_163:\n        /* \"#utility.yul\":7617:7619   */\n      0x14\n        /* \"#utility.yul\":7612:7615   */\n      dup3\n        /* \"#utility.yul\":7608:7620   */\n      add\n        /* \"#utility.yul\":7601:7620   */\n      swap2\n      pop\n        /* \"#utility.yul\":7637:7640   */\n      dup2\n        /* \"#utility.yul\":7630:7640   */\n      swap1\n      pop\n        /* \"#utility.yul\":7390:7646   */\n      swap3\n      swap2\n      pop\n      pop\n      jump\t// out\n        /* \"#utility.yul\":7652:7799   */\n    tag_75:\n        /* \"#utility.yul\":7753:7764   */\n      0x00\n        /* \"#utility.yul\":7790:7793   */\n      dup2\n        /* \"#utility.yul\":7775:7793   */\n      swap1\n      pop\n        /* \"#utility.yul\":7652:7799   */\n      swap3\n      swap2\n      pop\n      pop\n      jump\t// out\n        /* \"#utility.yul\":7805:8191   */\n    tag_76:\n        /* \"#utility.yul\":7909:7912   */\n      0x00\n        /* \"#utility.yul\":7937:7975   */\n      tag_166\n        /* \"#utility.yul\":7969:7974   */\n      dup3\n        /* \"#utility.yul\":7937:7975   */\n      tag_57\n      jump\t// in\n    tag_166:\n        /* \"#utility.yul\":7991:8079   */\n      tag_167\n        /* \"#utility.yul\":8072:8078   */\n      dup2\n        /* \"#utility.yul\":8067:8070   */\n      dup6\n        /* \"#utility.yul\":7991:8079   */\n      tag_75\n      jump\t// in\n    tag_167:\n        /* \"#utility.yul\":7984:8079   */\n      swap4\n      pop\n        /* \"#utility.yul\":8088:8153   */\n      tag_168\n        /* \"#utility.yul\":8146:8152   */\n      dup2\n        /* \"#utility.yul\":8141:8144   */\n      dup6\n        /* \"#utility.yul\":8134:8138   */\n      0x20\n        /* \"#utility.yul\":8127:8132   */\n      dup7\n        /* \"#utility.yul\":8123:8139   */\n      add\n        /* \"#utility.yul\":8088:8153   */\n      tag_59\n      jump\t// in\n    tag_168:\n        /* \"#utility.yul\":8178:8184   */\n      dup1\n        /* \"#utility.yul\":8173:8176   */\n      dup5\n        /* \"#utility.yul\":8169:8185   */\n      add\n        /* \"#utility.yul\":8162:8185   */\n      swap2\n      pop\n        /* \"#utility.yul\":7913:8191   */\n      pop\n        /* \"#utility.yul\":7805:8191   */\n      swap3\n      swap2\n      pop\n      pop\n      jump\t// out\n        /* \"#utility.yul\":8197:8468   */\n    tag_42:\n        /* \"#utility.yul\":8327:8330   */\n      0x00\n        /* \"#utility.yul\":8349:8442   */\n      tag_170\n        /* \"#utility.yul\":8438:8441   */\n      dup3\n        /* \"#utility.yul\":8429:8435   */\n      dup5\n        /* \"#utility.yul\":8349:8442   */\n      tag_76\n      jump\t// in\n    tag_170:\n        /* \"#utility.yul\":8342:8442   */\n      swap2\n      pop\n        /* \"#utility.yul\":8459:8462   */\n      dup2\n        /* \"#utility.yul\":8452:8462   */\n      swap1\n      pop\n        /* \"#utility.yul\":8197:8468   */\n      swap3\n      swap2\n      pop\n      pop\n      jump\t// out\n\n    auxdata: 0xa2646970667358221220031b7d2fa5646159b2d499d5b91f76635df43a91018af508214a15f6fddfbd3a64736f6c634300081e0033\n}\n",
				"bytecode": {
					"linkReferences": {},
					"object": "6080604052348015600e575f5ffd5b5061069d8061001c5f395ff3fe608060405234801561000f575f5ffd5b5060043610610055575f3560e01c80638e8cf4a81461005957806395e885c014610077578063b672e65b146100a7578063f8b2cb4f146100d7578063fb71b26c14610107575b5f5ffd5b610061610138565b60405161006e9190610254565b60405180910390f35b610091600480360381019061008c91906102d8565b61013f565b60405161009e9190610330565b60405180910390f35b6100c160048036038101906100bc9190610349565b610177565b6040516100ce91906103e4565b60405180910390f35b6100f160048036038101906100ec9190610349565b6101a0565b6040516100fe9190610254565b60405180910390f35b610121600480360381019061011c9190610530565b6101c0565b60405161012f92919061058a565b60405180910390f35b5f47905090565b5f8173ffffffffffffffffffffffffffffffffffffffff168373ffffffffffffffffffffffffffffffffffffffff1614905092915050565b60608160405160200161018a91906105fd565b6040516020818303038152906040529050919050565b5f8173ffffffffffffffffffffffffffffffffffffffff16319050919050565b5f60605f5f8573ffffffffffffffffffffffffffffffffffffffff16856040516101ea9190610651565b5f604051808303815f865af19150503d805f8114610223576040519150601f19603f3d011682016040523d82523d5f602084013e610228565b606091505b509150915081819350935050509250929050565b5f819050919050565b61024e8161023c565b82525050565b5f6020820190506102675f830184610245565b92915050565b5f604051905090565b5f5ffd5b5f5ffd5b5f73ffffffffffffffffffffffffffffffffffffffff82169050919050565b5f6102a78261027e565b9050919050565b6102b78161029d565b81146102c1575f5ffd5b50565b5f813590506102d2816102ae565b92915050565b5f5f604083850312156102ee576102ed610276565b5b5f6102fb858286016102c4565b925050602061030c858286016102c4565b9150509250929050565b5f8115159050919050565b61032a81610316565b82525050565b5f6020820190506103435f830184610321565b92915050565b5f6020828403121561035e5761035d610276565b5b5f61036b848285016102c4565b91505092915050565b5f81519050919050565b5f82825260208201905092915050565b8281835e5f83830152505050565b5f601f19601f8301169050919050565b5f6103b682610374565b6103c0818561037e565b93506103d081856020860161038e565b6103d98161039c565b840191505092915050565b5f6020820190508181035f8301526103fc81846103ac565b905092915050565b5f5ffd5b5f5ffd5b7f4e487b71000000000000000000000000000000000000000000000000000000005f52604160045260245ffd5b6104428261039c565b810181811067ffffffffffffffff821117156104615761046061040c565b5b80604052505050565b5f61047361026d565b905061047f8282610439565b919050565b5f67ffffffffffffffff82111561049e5761049d61040c565b5b6104a78261039c565b9050602081019050919050565b828183375f83830152505050565b5f6104d46104cf84610484565b61046a565b9050828152602081018484840111156104f0576104ef610408565b5b6104fb8482856104b4565b509392505050565b5f82601f83011261051757610516610404565b5b81356105278482602086016104c2565b91505092915050565b5f5f6040838503121561054657610545610276565b5b5f610553858286016102c4565b925050602083013567ffffffffffffffff8111156105745761057361027a565b5b61058085828601610503565b9150509250929050565b5f60408201905061059d5f830185610321565b81810360208301526105af81846103ac565b90509392505050565b5f8160601b9050919050565b5f6105ce826105b8565b9050919050565b5f6105df826105c4565b9050919050565b6105f76105f28261029d565b6105d5565b82525050565b5f61060882846105e6565b60148201915081905092915050565b5f81905092915050565b5f61062b82610374565b6106358185610617565b935061064581856020860161038e565b80840191505092915050565b5f61065c8284610621565b91508190509291505056fea2646970667358221220031b7d2fa5646159b2d499d5b91f76635df43a91018af508214a15f6fddfbd3a64736f6c634300081e0033",
					"opcodes": "PUSH1 0x80 PUSH1 0x40 MSTORE CALLVALUE DUP1 ISZERO PUSH1 0xE JUMPI PUSH0 PUSH0 REVERT JUMPDEST POP PUSH2 0x69D DUP1 PUSH2 0x1C PUSH0 CODECOPY PUSH0 RETURN INVALID PUSH1 0x80 PUSH1 0x40 MSTORE CALLVALUE DUP1 ISZERO PUSH2 0xF JUMPI PUSH0 PUSH0 REVERT JUMPDEST POP PUSH1 0x4 CALLDATASIZE LT PUSH2 0x55 JUMPI PUSH0 CALLDATALOAD PUSH1 0xE0 SHR DUP1 PUSH4 0x8E8CF4A8 EQ PUSH2 0x59 JUMPI DUP1 PUSH4 0x95E885C0 EQ PUSH2 0x77 JUMPI DUP1 PUSH4 0xB672E65B EQ PUSH2 0xA7 JUMPI DUP1 PUSH4 0xF8B2CB4F EQ PUSH2 0xD7 JUMPI DUP1 PUSH4 0xFB71B26C EQ PUSH2 0x107 JUMPI JUMPDEST PUSH0 PUSH0 REVERT JUMPDEST PUSH2 0x61 PUSH2 0x138 JUMP JUMPDEST PUSH1 0x40 MLOAD PUSH2 0x6E SWAP2 SWAP1 PUSH2 0x254 JUMP JUMPDEST PUSH1 0x40 MLOAD DUP1 SWAP2 SUB SWAP1 RETURN JUMPDEST PUSH2 0x91 PUSH1 0x4 DUP1 CALLDATASIZE SUB DUP2 ADD SWAP1 PUSH2 0x8C SWAP2 SWAP1 PUSH2 0x2D8 JUMP JUMPDEST PUSH2 0x13F JUMP JUMPDEST PUSH1 0x40 MLOAD PUSH2 0x9E SWAP2 SWAP1 PUSH2 0x330 JUMP JUMPDEST PUSH1 0x40 MLOAD DUP1 SWAP2 SUB SWAP1 RETURN JUMPDEST PUSH2 0xC1 PUSH1 0x4 DUP1 CALLDATASIZE SUB DUP2 ADD SWAP1 PUSH2 0xBC SWAP2 SWAP1 PUSH2 0x349 JUMP JUMPDEST PUSH2 0x177 JUMP JUMPDEST PUSH1 0x40 MLOAD PUSH2 0xCE SWAP2 SWAP1 PUSH2 0x3E4 JUMP JUMPDEST PUSH1 0x40 MLOAD DUP1 SWAP2 SUB SWAP1 RETURN JUMPDEST PUSH2 0xF1 PUSH1 0x4 DUP1 CALLDATASIZE SUB DUP2 ADD SWAP1 PUSH2 0xEC SWAP2 SWAP1 PUSH2 0x349 JUMP JUMPDEST PUSH2 0x1A0 JUMP JUMPDEST PUSH1 0x40 MLOAD PUSH2 0xFE SWAP2 SWAP1 PUSH2 0x254 JUMP JUMPDEST PUSH1 0x40 MLOAD DUP1 SWAP2 SUB SWAP1 RETURN JUMPDEST PUSH2 0x121 PUSH1 0x4 DUP1 CALLDATASIZE SUB DUP2 ADD SWAP1 PUSH2 0x11C SWAP2 SWAP1 PUSH2 0x530 JUMP JUMPDEST PUSH2 0x1C0 JUMP JUMPDEST PUSH1 0x40 MLOAD PUSH2 0x12F SWAP3 SWAP2 SWAP1 PUSH2 0x58A JUMP JUMPDEST PUSH1 0x40 MLOAD DUP1 SWAP2 SUB SWAP1 RETURN JUMPDEST PUSH0 SELFBALANCE SWAP1 POP SWAP1 JUMP JUMPDEST PUSH0 DUP2 PUSH20 0xFFFFFFFFFFFFFFFFFFFFFFFFFFFFFFFFFFFFFFFF AND DUP4 PUSH20 0xFFFFFFFFFFFFFFFFFFFFFFFFFFFFFFFFFFFFFFFF AND EQ SWAP1 POP SWAP3 SWAP2 POP POP JUMP JUMPDEST PUSH1 0x60 DUP2 PUSH1 0x40 MLOAD PUSH1 0x20 ADD PUSH2 0x18A SWAP2 SWAP1 PUSH2 0x5FD JUMP JUMPDEST PUSH1 0x40 MLOAD PUSH1 0x20 DUP2 DUP4 SUB SUB DUP2 MSTORE SWAP1 PUSH1 0x40 MSTORE SWAP1 POP SWAP2 SWAP1 POP JUMP JUMPDEST PUSH0 DUP2 PUSH20 0xFFFFFFFFFFFFFFFFFFFFFFFFFFFFFFFFFFFFFFFF AND BALANCE SWAP1 POP SWAP2 SWAP1 POP JUMP JUMPDEST PUSH0 PUSH1 0x60 PUSH0 PUSH0 DUP6 PUSH20 0xFFFFFFFFFFFFFFFFFFFFFFFFFFFFFFFFFFFFFFFF AND DUP6 PUSH1 0x40 MLOAD PUSH2 0x1EA SWAP2 SWAP1 PUSH2 0x651 JUMP JUMPDEST PUSH0 PUSH1 0x40 MLOAD DUP1 DUP4 SUB DUP2 PUSH0 DUP7 GAS CALL SWAP2 POP POP RETURNDATASIZE DUP1 PUSH0 DUP2 EQ PUSH2 0x223 JUMPI PUSH1 0x40 MLOAD SWAP2 POP PUSH1 0x1F NOT PUSH1 0x3F RETURNDATASIZE ADD AND DUP3 ADD PUSH1 0x40 MSTORE RETURNDATASIZE DUP3 MSTORE RETURNDATASIZE PUSH0 PUSH1 0x20 DUP5 ADD RETURNDATACOPY PUSH2 0x228 JUMP JUMPDEST PUSH1 0x60 SWAP2 POP JUMPDEST POP SWAP2 POP SWAP2 POP DUP2 DUP2 SWAP4 POP SWAP4 POP POP POP SWAP3 POP SWAP3 SWAP1 POP JUMP JUMPDEST PUSH0 DUP2 SWAP1 POP SWAP2 SWAP1 POP JUMP JUMPDEST PUSH2 0x24E DUP2 PUSH2 0x23C JUMP JUMPDEST DUP3 MSTORE POP POP JUMP JUMPDEST PUSH0 PUSH1 0x20 DUP3 ADD SWAP1 POP PUSH2 0x267 PUSH0 DUP4 ADD DUP5 PUSH2 0x245 JUMP JUMPDEST SWAP3 SWAP2 POP POP JUMP JUMPDEST PUSH0 PUSH1 0x40 MLOAD SWAP1 POP SWAP1 JUMP JUMPDEST PUSH0 PUSH0 REVERT JUMPDEST PUSH0 PUSH0 REVERT JUMPDEST PUSH0 PUSH20 0xFFFFFFFFFFFFFFFFFFFFFFFFFFFFFFFFFFFFFFFF DUP3 AND SWAP1 POP SWAP2 SWAP1 POP JUMP JUMPDEST PUSH0 PUSH2 0x2A7 DUP3 PUSH2 0x27E JUMP JUMPDEST SWAP1 POP SWAP2 SWAP1 POP JUMP JUMPDEST PUSH2 0x2B7 DUP2 PUSH2 0x29D JUMP JUMPDEST DUP2 EQ PUSH2 0x2C1 JUMPI PUSH0 PUSH0 REVERT JUMPDEST POP JUMP JUMPDEST PUSH0 DUP2 CALLDATALOAD SWAP1 POP PUSH2 0x2D2 DUP2 PUSH2 0x2AE JUMP JUMPDEST SWAP3 SWAP2 POP POP JUMP JUMPDEST PUSH0 PUSH0 PUSH1 0x40 DUP4 DUP6 SUB SLT ISZERO PUSH2 0x2EE JUMPI PUSH2 0x2ED PUSH2 0x276 JUMP JUMPDEST JUMPDEST PUSH0 PUSH2 0x2FB DUP6 DUP3 DUP7 ADD PUSH2 0x2C4 JUMP JUMPDEST SWAP3 POP POP PUSH1 0x20 PUSH2 0x30C DUP6 DUP3 DUP7 ADD PUSH2 0x2C4 JUMP JUMPDEST SWAP2 POP POP SWAP3 POP SWAP3 SWAP1 POP JUMP JUMPDEST PUSH0 DUP2 ISZERO ISZERO SWAP1 POP SWAP2 SWAP1 POP JUMP JUMPDEST PUSH2 0x32A DUP2 PUSH2 0x316 JUMP JUMPDEST DUP3 MSTORE POP POP JUMP JUMPDEST PUSH0 PUSH1 0x20 DUP3 ADD SWAP1 POP PUSH2 0x343 PUSH0 DUP4 ADD DUP5 PUSH2 0x321 JUMP JUMPDEST SWAP3 SWAP2 POP POP JUMP JUMPDEST PUSH0 PUSH1 0x20 DUP3 DUP5 SUB SLT ISZERO PUSH2 0x35E JUMPI PUSH2 0x35D PUSH2 0x276 JUMP JUMPDEST JUMPDEST PUSH0 PUSH2 0x36B DUP5 DUP3 DUP6 ADD PUSH2 0x2C4 JUMP JUMPDEST SWAP2 POP POP SWAP3 SWAP2 POP POP JUMP JUMPDEST PUSH0 DUP2 MLOAD SWAP1 POP SWAP2 SWAP1 POP JUMP JUMPDEST PUSH0 DUP3 DUP3 MSTORE PUSH1 0x20 DUP3 ADD SWAP1 POP SWAP3 SWAP2 POP POP JUMP JUMPDEST DUP3 DUP2 DUP4 MCOPY PUSH0 DUP4 DUP4 ADD MSTORE POP POP POP JUMP JUMPDEST PUSH0 PUSH1 0x1F NOT PUSH1 0x1F DUP4 ADD AND SWAP1 POP SWAP2 SWAP1 POP JUMP JUMPDEST PUSH0 PUSH2 0x3B6 DUP3 PUSH2 0x374 JUMP JUMPDEST PUSH2 0x3C0 DUP2 DUP6 PUSH2 0x37E JUMP JUMPDEST SWAP4 POP PUSH2 0x3D0 DUP2 DUP6 PUSH1 0x20 DUP7 ADD PUSH2 0x38E JUMP JUMPDEST PUSH2 0x3D9 DUP2 PUSH2 0x39C JUMP JUMPDEST DUP5 ADD SWAP2 POP POP SWAP3 SWAP2 POP POP JUMP JUMPDEST PUSH0 PUSH1 0x20 DUP3 ADD SWAP1 POP DUP2 DUP2 SUB PUSH0 DUP4 ADD MSTORE PUSH2 0x3FC DUP2 DUP5 PUSH2 0x3AC JUMP JUMPDEST SWAP1 POP SWAP3 SWAP2 POP POP JUMP JUMPDEST PUSH0 PUSH0 REVERT JUMPDEST PUSH0 PUSH0 REVERT JUMPDEST PUSH32 0x4E487B7100000000000000000000000000000000000000000000000000000000 PUSH0 MSTORE PUSH1 0x41 PUSH1 0x4 MSTORE PUSH1 0x24 PUSH0 REVERT JUMPDEST PUSH2 0x442 DUP3 PUSH2 0x39C JUMP JUMPDEST DUP2 ADD DUP2 DUP2 LT PUSH8 0xFFFFFFFFFFFFFFFF DUP3 GT OR ISZERO PUSH2 0x461 JUMPI PUSH2 0x460 PUSH2 0x40C JUMP JUMPDEST JUMPDEST DUP1 PUSH1 0x40 MSTORE POP POP POP JUMP JUMPDEST PUSH0 PUSH2 0x473 PUSH2 0x26D JUMP JUMPDEST SWAP1 POP PUSH2 0x47F DUP3 DUP3 PUSH2 0x439 JUMP JUMPDEST SWAP2 SWAP1 POP JUMP JUMPDEST PUSH0 PUSH8 0xFFFFFFFFFFFFFFFF DUP3 GT ISZERO PUSH2 0x49E JUMPI PUSH2 0x49D PUSH2 0x40C JUMP JUMPDEST JUMPDEST PUSH2 0x4A7 DUP3 PUSH2 0x39C JUMP JUMPDEST SWAP1 POP PUSH1 0x20 DUP2 ADD SWAP1 POP SWAP2 SWAP1 POP JUMP JUMPDEST DUP3 DUP2 DUP4 CALLDATACOPY PUSH0 DUP4 DUP4 ADD MSTORE POP POP POP JUMP JUMPDEST PUSH0 PUSH2 0x4D4 PUSH2 0x4CF DUP5 PUSH2 0x484 JUMP JUMPDEST PUSH2 0x46A JUMP JUMPDEST SWAP1 POP DUP3 DUP2 MSTORE PUSH1 0x20 DUP2 ADD DUP5 DUP5 DUP5 ADD GT ISZERO PUSH2 0x4F0 JUMPI PUSH2 0x4EF PUSH2 0x408 JUMP JUMPDEST JUMPDEST PUSH2 0x4FB DUP5 DUP3 DUP6 PUSH2 0x4B4 JUMP JUMPDEST POP SWAP4 SWAP3 POP POP POP JUMP JUMPDEST PUSH0 DUP3 PUSH1 0x1F DUP4 ADD SLT PUSH2 0x517 JUMPI PUSH2 0x516 PUSH2 0x404 JUMP JUMPDEST JUMPDEST DUP2 CALLDATALOAD PUSH2 0x527 DUP5 DUP3 PUSH1 0x20 DUP7 ADD PUSH2 0x4C2 JUMP JUMPDEST SWAP2 POP POP SWAP3 SWAP2 POP POP JUMP JUMPDEST PUSH0 PUSH0 PUSH1 0x40 DUP4 DUP6 SUB SLT ISZERO PUSH2 0x546 JUMPI PUSH2 0x545 PUSH2 0x276 JUMP JUMPDEST JUMPDEST PUSH0 PUSH2 0x553 DUP6 DUP3 DUP7 ADD PUSH2 0x2C4 JUMP JUMPDEST SWAP3 POP POP PUSH1 0x20 DUP4 ADD CALLDATALOAD PUSH8 0xFFFFFFFFFFFFFFFF DUP2 GT ISZERO PUSH2 0x574 JUMPI PUSH2 0x573 PUSH2 0x27A JUMP JUMPDEST JUMPDEST PUSH2 0x580 DUP6 DUP3 DUP7 ADD PUSH2 0x503 JUMP JUMPDEST SWAP2 POP POP SWAP3 POP SWAP3 SWAP1 POP JUMP JUMPDEST PUSH0 PUSH1 0x40 DUP3 ADD SWAP1 POP PUSH2 0x59D PUSH0 DUP4 ADD DUP6 PUSH2 0x321 JUMP JUMPDEST DUP2 DUP2 SUB PUSH1 0x20 DUP4 ADD MSTORE PUSH2 0x5AF DUP2 DUP5 PUSH2 0x3AC JUMP JUMPDEST SWAP1 POP SWAP4 SWAP3 POP POP POP JUMP JUMPDEST PUSH0 DUP2 PUSH1 0x60 SHL SWAP1 POP SWAP2 SWAP1 POP JUMP JUMPDEST PUSH0 PUSH2 0x5CE DUP3 PUSH2 0x5B8 JUMP JUMPDEST SWAP1 POP SWAP2 SWAP1 POP JUMP JUMPDEST PUSH0 PUSH2 0x5DF DUP3 PUSH2 0x5C4 JUMP JUMPDEST SWAP1 POP SWAP2 SWAP1 POP JUMP JUMPDEST PUSH2 0x5F7 PUSH2 0x5F2 DUP3 PUSH2 0x29D JUMP JUMPDEST PUSH2 0x5D5 JUMP JUMPDEST DUP3 MSTORE POP POP JUMP JUMPDEST PUSH0 PUSH2 0x608 DUP3 DUP5 PUSH2 0x5E6 JUMP JUMPDEST PUSH1 0x14 DUP3 ADD SWAP2 POP DUP2 SWAP1 POP SWAP3 SWAP2 POP POP JUMP JUMPDEST PUSH0 DUP2 SWAP1 POP SWAP3 SWAP2 POP POP JUMP JUMPDEST PUSH0 PUSH2 0x62B DUP3 PUSH2 0x374 JUMP JUMPDEST PUSH2 0x635 DUP2 DUP6 PUSH2 0x617 JUMP JUMPDEST SWAP4 POP PUSH2 0x645 DUP2 DUP6 PUSH1 0x20 DUP7 ADD PUSH2 0x38E JUMP JUMPDEST DUP1 DUP5 ADD SWAP2 POP POP SWAP3 SWAP2 POP POP JUMP JUMPDEST PUSH0 PUSH2 0x65C DUP3 DUP5 PUSH2 0x621 JUMP JUMPDEST SWAP2 POP DUP2 SWAP1 POP SWAP3 SWAP2 POP POP JUMP INVALID LOG2 PUSH5 0x6970667358 0x22 SLT KECCAK256 SUB SHL PUSH30 0x2FA5646159B2D499D5B91F76635DF43A91018AF508214A15F6FDDFBD3A64 PUSH20 0x6F6C634300081E00330000000000000000000000 "
				},
				"gasEstimates": {
					"creation": {
						"codeDepositCost": "338600",
						"executionCost": "372",
						"totalCost": "338972"
					},
					"external": {
						"compareAddress(address,address)": "infinite",
						"getBalance(address)": "3291",
						"getThisBalance()": "312",
						"lowCall(address,bytes)": "infinite",
						"tpBytes(address)": "infinite"
					}
				},
				"methodIdentifiers": {
					"compareAddress(address,address)": "95e885c0",
					"getBalance(address)": "f8b2cb4f",
					"getThisBalance()": "8e8cf4a8",
					"lowCall(address,bytes)": "fb71b26c",
					"tpBytes(address)": "b672e65b"
				}
			},
			"storageLayout": {
				"storage": [
					{
						"astId": 3,
						"contract": "test/demo7_address.sol:TestAddress",
						"label": "myAddress",
						"offset": 0,
						"slot": "0",
						"type": "t_address"
					}
				],
				"types": {
					"t_address": {
						"encoding": "inplace",
						"label": "address",
						"numberOfBytes": "20"
					}
				}
			},
			"userdoc": {
				"kind": "user",
				"methods": {},
				"version": 1
			}
		}
	}
}