{
	"array.sol": {
		"Array": {
			"abi": [
				{
					"inputs": [
						{
							"internalType": "uint256",
							"name": "x",
							"type": "uint256"
						}
					],
					"name": "add",
					"outputs": [],
					"stateMutability": "nonpayable",
					"type": "function"
				},
				{
					"inputs": [
						{
							"internalType": "uint256[]",
							"name": "x",
							"type": "uint256[]"
						}
					],
					"name": "addAll",
					"outputs": [],
					"stateMutability": "nonpayable",
					"type": "function"
				},
				{
					"inputs": [
						{
							"internalType": "string",
							"name": "x",
							"type": "string"
						}
					],
					"name": "addStr",
					"outputs": [],
					"stateMutability": "nonpayable",
					"type": "function"
				},
				{
					"inputs": [
						{
							"internalType": "uint256",
							"name": "",
							"type": "uint256"
						}
					],
					"name": "arr",
					"outputs": [
						{
							"internalType": "uint256",
							"name": "",
							"type": "uint256"
						}
					],
					"stateMutability": "view",
					"type": "function"
				},
				{
					"inputs": [
						{
							"internalType": "uint256",
							"name": "",
							"type": "uint256"
						}
					],
					"name": "arr2",
					"outputs": [
						{
							"internalType": "string",
							"name": "",
							"type": "string"
						}
					],
					"stateMutability": "view",
					"type": "function"
				},
				{
					"inputs": [],
					"name": "get",
					"outputs": [
						{
							"internalType": "string[]",
							"name": "",
							"type": "string[]"
						}
					],
					"stateMutability": "view",
					"type": "function"
				}
			],
			"devdoc": {
				"kind": "dev",
				"methods": {},
				"version": 1
			},
			"evm": {
				"assembly": "    /* \"array.sol\":60:733  contract Array{... */\n  mstore(0x40, 0x80)\n    /* \"array.sol\":81:113  uint[]  public  arr =[1,2,3,4,5] */\n  mload(0x40)\n  dup1\n  0xa0\n  add\n  0x40\n  mstore\n  dup1\n    /* \"array.sol\":103:104  1 */\n  0x01\n    /* \"array.sol\":81:113  uint[]  public  arr =[1,2,3,4,5] */\n  0xff\n  and\n  dup2\n  mstore\n  0x20\n  add\n    /* \"array.sol\":105:106  2 */\n  0x02\n    /* \"array.sol\":81:113  uint[]  public  arr =[1,2,3,4,5] */\n  0xff\n  and\n  dup2\n  mstore\n  0x20\n  add\n    /* \"array.sol\":107:108  3 */\n  0x03\n    /* \"array.sol\":81:113  uint[]  public  arr =[1,2,3,4,5] */\n  0xff\n  and\n  dup2\n  mstore\n  0x20\n  add\n    /* \"array.sol\":109:110  4 */\n  0x04\n    /* \"array.sol\":81:113  uint[]  public  arr =[1,2,3,4,5] */\n  0xff\n  and\n  dup2\n  mstore\n  0x20\n  add\n    /* \"array.sol\":111:112  5 */\n  0x05\n    /* \"array.sol\":81:113  uint[]  public  arr =[1,2,3,4,5] */\n  0xff\n  and\n  dup2\n  mstore\n  pop\n  0x00\n  swap1\n  0x05\n  tag_1\n  swap3\n  swap2\n  swap1\n  tag_2\n  jump\t// in\ntag_1:\n  pop\n    /* \"array.sol\":120:162  string[] public arr2 = [\"asd\",\"123\",\"qwe\"] */\n  mload(0x40)\n  dup1\n  0x60\n  add\n  0x40\n  mstore\n  dup1\n  mload(0x40)\n  dup1\n  0x40\n  add\n  0x40\n  mstore\n  dup1\n  0x03\n  dup2\n  mstore\n  0x20\n  add\n  0x6173640000000000000000000000000000000000000000000000000000000000\n  dup2\n  mstore\n  pop\n  dup2\n  mstore\n  0x20\n  add\n  mload(0x40)\n  dup1\n  0x40\n  add\n  0x40\n  mstore\n  dup1\n  0x03\n  dup2\n  mstore\n  0x20\n  add\n  0x3132330000000000000000000000000000000000000000000000000000000000\n  dup2\n  mstore\n  pop\n  dup2\n  mstore\n  0x20\n  add\n  mload(0x40)\n  dup1\n  0x40\n  add\n  0x40\n  mstore\n  dup1\n  0x03\n  dup2\n  mstore\n  0x20\n  add\n  0x7177650000000000000000000000000000000000000000000000000000000000\n  dup2\n  mstore\n  pop\n  dup2\n  mstore\n  pop\n  0x01\n  swap1\n  0x03\n  tag_3\n  swap3\n  swap2\n  swap1\n  tag_4\n  jump\t// in\ntag_3:\n  pop\n    /* \"array.sol\":60:733  contract Array{... */\n  callvalue\n  dup1\n  iszero\n  tag_5\n  jumpi\n  revert(0x00, 0x00)\ntag_5:\n  pop\n  jump(tag_6)\ntag_2:\n  dup3\n  dup1\n  sload\n  dup3\n  dup3\n  sstore\n  swap1\n  0x00\n  mstore\n  keccak256(0x00, 0x20)\n  swap1\n  dup2\n  add\n  swap3\n  dup3\n  iszero\n  tag_7\n  jumpi\n  swap2\n  0x20\n  mul\n  dup3\n  add\ntag_8:\n  dup3\n  dup2\n  gt\n  iszero\n  tag_9\n  jumpi\n  dup3\n  mload\n  dup3\n  swap1\n  0xff\n  and\n  swap1\n  sstore\n  swap2\n  0x20\n  add\n  swap2\n  swap1\n  0x01\n  add\n  swap1\n  jump(tag_8)\ntag_9:\ntag_7:\n  pop\n  swap1\n  pop\n  tag_10\n  swap2\n  swap1\n  tag_11\n  jump\t// in\ntag_10:\n  pop\n  swap1\n  jump\t// out\ntag_4:\n  dup3\n  dup1\n  sload\n  dup3\n  dup3\n  sstore\n  swap1\n  0x00\n  mstore\n  keccak256(0x00, 0x20)\n  swap1\n  dup2\n  add\n  swap3\n  dup3\n  iszero\n  tag_12\n  jumpi\n  swap2\n  0x20\n  mul\n  dup3\n  add\ntag_13:\n  dup3\n  dup2\n  gt\n  iszero\n  tag_14\n  jumpi\n  dup3\n  mload\n  dup3\n  swap1\n  dup2\n  tag_15\n  swap2\n  swap1\n  tag_16\n  jump\t// in\ntag_15:\n  pop\n  swap2\n  0x20\n  add\n  swap2\n  swap1\n  0x01\n  add\n  swap1\n  jump(tag_13)\ntag_14:\ntag_12:\n  pop\n  swap1\n  pop\n  tag_17\n  swap2\n  swap1\n  tag_18\n  jump\t// in\ntag_17:\n  pop\n  swap1\n  jump\t// out\ntag_11:\ntag_19:\n  dup1\n  dup3\n  gt\n  iszero\n  tag_20\n  jumpi\n  0x00\n  dup2\n  0x00\n  swap1\n  sstore\n  pop\n  0x01\n  add\n  jump(tag_19)\ntag_20:\n  pop\n  swap1\n  jump\t// out\ntag_18:\ntag_21:\n  dup1\n  dup3\n  gt\n  iszero\n  tag_22\n  jumpi\n  0x00\n  dup2\n  dup2\n  tag_23\n  swap2\n  swap1\n  tag_24\n  jump\t// in\ntag_23:\n  pop\n  0x01\n  add\n  jump(tag_21)\ntag_22:\n  pop\n  swap1\n  jump\t// out\ntag_24:\n  pop\n  dup1\n  sload\n  tag_25\n  swap1\n  tag_26\n  jump\t// in\ntag_25:\n  0x00\n  dup3\n  sstore\n  dup1\n  0x1f\n  lt\n  tag_28\n  jumpi\n  pop\n  jump(tag_27)\ntag_28:\n  0x1f\n  add\n  0x20\n  swap1\n  div\n  swap1\n  0x00\n  mstore\n  keccak256(0x00, 0x20)\n  swap1\n  dup2\n  add\n  swap1\n  tag_29\n  swap2\n  swap1\n  tag_11\n  jump\t// in\ntag_29:\ntag_27:\n  pop\n  jump\t// out\n    /* \"#utility.yul\":7:106   */\ntag_30:\n    /* \"#utility.yul\":59:65   */\n  0x00\n    /* \"#utility.yul\":93:98   */\n  dup2\n    /* \"#utility.yul\":87:99   */\n  mload\n    /* \"#utility.yul\":77:99   */\n  swap1\n  pop\n    /* \"#utility.yul\":7:106   */\n  swap2\n  swap1\n  pop\n  jump\t// out\n    /* \"#utility.yul\":112:292   */\ntag_31:\n    /* \"#utility.yul\":160:237   */\n  0x4e487b7100000000000000000000000000000000000000000000000000000000\n    /* \"#utility.yul\":157:158   */\n  0x00\n    /* \"#utility.yul\":150:238   */\n  mstore\n    /* \"#utility.yul\":257:261   */\n  0x41\n    /* \"#utility.yul\":254:255   */\n  0x04\n    /* \"#utility.yul\":247:262   */\n  mstore\n    /* \"#utility.yul\":281:285   */\n  0x24\n    /* \"#utility.yul\":278:279   */\n  0x00\n    /* \"#utility.yul\":271:286   */\n  revert\n    /* \"#utility.yul\":298:478   */\ntag_32:\n    /* \"#utility.yul\":346:423   */\n  0x4e487b7100000000000000000000000000000000000000000000000000000000\n    /* \"#utility.yul\":343:344   */\n  0x00\n    /* \"#utility.yul\":336:424   */\n  mstore\n    /* \"#utility.yul\":443:447   */\n  0x22\n    /* \"#utility.yul\":440:441   */\n  0x04\n    /* \"#utility.yul\":433:448   */\n  mstore\n    /* \"#utility.yul\":467:471   */\n  0x24\n    /* \"#utility.yul\":464:465   */\n  0x00\n    /* \"#utility.yul\":457:472   */\n  revert\n    /* \"#utility.yul\":484:804   */\ntag_26:\n    /* \"#utility.yul\":528:534   */\n  0x00\n    /* \"#utility.yul\":565:566   */\n  0x02\n    /* \"#utility.yul\":559:563   */\n  dup3\n    /* \"#utility.yul\":555:567   */\n  div\n    /* \"#utility.yul\":545:567   */\n  swap1\n  pop\n    /* \"#utility.yul\":612:613   */\n  0x01\n    /* \"#utility.yul\":606:610   */\n  dup3\n    /* \"#utility.yul\":602:614   */\n  and\n    /* \"#utility.yul\":633:651   */\n  dup1\n    /* \"#utility.yul\":623:704   */\n  tag_54\n  jumpi\n    /* \"#utility.yul\":689:693   */\n  0x7f\n    /* \"#utility.yul\":681:687   */\n  dup3\n    /* \"#utility.yul\":677:694   */\n  and\n    /* \"#utility.yul\":667:694   */\n  swap2\n  pop\n    /* \"#utility.yul\":623:704   */\ntag_54:\n    /* \"#utility.yul\":751:753   */\n  0x20\n    /* \"#utility.yul\":743:749   */\n  dup3\n    /* \"#utility.yul\":740:754   */\n  lt\n    /* \"#utility.yul\":720:738   */\n  dup2\n    /* \"#utility.yul\":717:755   */\n  sub\n    /* \"#utility.yul\":714:798   */\n  tag_55\n  jumpi\n    /* \"#utility.yul\":770:788   */\n  tag_56\n  tag_32\n  jump\t// in\ntag_56:\n    /* \"#utility.yul\":714:798   */\ntag_55:\n    /* \"#utility.yul\":535:804   */\n  pop\n    /* \"#utility.yul\":484:804   */\n  swap2\n  swap1\n  pop\n  jump\t// out\n    /* \"#utility.yul\":810:951   */\ntag_33:\n    /* \"#utility.yul\":859:863   */\n  0x00\n    /* \"#utility.yul\":882:885   */\n  dup2\n    /* \"#utility.yul\":874:885   */\n  swap1\n  pop\n    /* \"#utility.yul\":905:908   */\n  dup2\n    /* \"#utility.yul\":902:903   */\n  0x00\n    /* \"#utility.yul\":895:909   */\n  mstore\n    /* \"#utility.yul\":939:943   */\n  0x20\n    /* \"#utility.yul\":936:937   */\n  0x00\n    /* \"#utility.yul\":926:944   */\n  keccak256\n    /* \"#utility.yul\":918:944   */\n  swap1\n  pop\n    /* \"#utility.yul\":810:951   */\n  swap2\n  swap1\n  pop\n  jump\t// out\n    /* \"#utility.yul\":957:1050   */\ntag_34:\n    /* \"#utility.yul\":994:1000   */\n  0x00\n    /* \"#utility.yul\":1041:1043   */\n  0x20\n    /* \"#utility.yul\":1036:1038   */\n  0x1f\n    /* \"#utility.yul\":1029:1034   */\n  dup4\n    /* \"#utility.yul\":1025:1039   */\n  add\n    /* \"#utility.yul\":1021:1044   */\n  div\n    /* \"#utility.yul\":1011:1044   */\n  swap1\n  pop\n    /* \"#utility.yul\":957:1050   */\n  swap2\n  swap1\n  pop\n  jump\t// out\n    /* \"#utility.yul\":1056:1163   */\ntag_35:\n    /* \"#utility.yul\":1100:1108   */\n  0x00\n    /* \"#utility.yul\":1150:1155   */\n  dup3\n    /* \"#utility.yul\":1144:1148   */\n  dup3\n    /* \"#utility.yul\":1140:1156   */\n  shl\n    /* \"#utility.yul\":1119:1156   */\n  swap1\n  pop\n    /* \"#utility.yul\":1056:1163   */\n  swap3\n  swap2\n  pop\n  pop\n  jump\t// out\n    /* \"#utility.yul\":1169:1562   */\ntag_36:\n    /* \"#utility.yul\":1238:1244   */\n  0x00\n    /* \"#utility.yul\":1288:1289   */\n  0x08\n    /* \"#utility.yul\":1276:1286   */\n  dup4\n    /* \"#utility.yul\":1272:1290   */\n  mul\n    /* \"#utility.yul\":1311:1408   */\n  tag_61\n    /* \"#utility.yul\":1341:1407   */\n  0xffffffffffffffffffffffffffffffffffffffffffffffffffffffffffffffff\n    /* \"#utility.yul\":1330:1339   */\n  dup3\n    /* \"#utility.yul\":1311:1408   */\n  tag_35\n  jump\t// in\ntag_61:\n    /* \"#utility.yul\":1429:1468   */\n  tag_62\n    /* \"#utility.yul\":1459:1467   */\n  dup7\n    /* \"#utility.yul\":1448:1457   */\n  dup4\n    /* \"#utility.yul\":1429:1468   */\n  tag_35\n  jump\t// in\ntag_62:\n    /* \"#utility.yul\":1417:1468   */\n  swap6\n  pop\n    /* \"#utility.yul\":1501:1505   */\n  dup1\n    /* \"#utility.yul\":1497:1506   */\n  not\n    /* \"#utility.yul\":1490:1495   */\n  dup5\n    /* \"#utility.yul\":1486:1507   */\n  and\n    /* \"#utility.yul\":1477:1507   */\n  swap4\n  pop\n    /* \"#utility.yul\":1550:1554   */\n  dup1\n    /* \"#utility.yul\":1540:1548   */\n  dup7\n    /* \"#utility.yul\":1536:1555   */\n  and\n    /* \"#utility.yul\":1529:1534   */\n  dup5\n    /* \"#utility.yul\":1526:1556   */\n  or\n    /* \"#utility.yul\":1516:1556   */\n  swap3\n  pop\n    /* \"#utility.yul\":1245:1562   */\n  pop\n  pop\n    /* \"#utility.yul\":1169:1562   */\n  swap4\n  swap3\n  pop\n  pop\n  pop\n  jump\t// out\n    /* \"#utility.yul\":1568:1645   */\ntag_37:\n    /* \"#utility.yul\":1605:1612   */\n  0x00\n    /* \"#utility.yul\":1634:1639   */\n  dup2\n    /* \"#utility.yul\":1623:1639   */\n  swap1\n  pop\n    /* \"#utility.yul\":1568:1645   */\n  swap2\n  swap1\n  pop\n  jump\t// out\n    /* \"#utility.yul\":1651:1711   */\ntag_38:\n    /* \"#utility.yul\":1679:1682   */\n  0x00\n    /* \"#utility.yul\":1700:1705   */\n  dup2\n    /* \"#utility.yul\":1693:1705   */\n  swap1\n  pop\n    /* \"#utility.yul\":1651:1711   */\n  swap2\n  swap1\n  pop\n  jump\t// out\n    /* \"#utility.yul\":1717:1859   */\ntag_39:\n    /* \"#utility.yul\":1767:1776   */\n  0x00\n    /* \"#utility.yul\":1800:1853   */\n  tag_66\n    /* \"#utility.yul\":1818:1852   */\n  tag_67\n    /* \"#utility.yul\":1827:1851   */\n  tag_68\n    /* \"#utility.yul\":1845:1850   */\n  dup5\n    /* \"#utility.yul\":1827:1851   */\n  tag_37\n  jump\t// in\ntag_68:\n    /* \"#utility.yul\":1818:1852   */\n  tag_38\n  jump\t// in\ntag_67:\n    /* \"#utility.yul\":1800:1853   */\n  tag_37\n  jump\t// in\ntag_66:\n    /* \"#utility.yul\":1787:1853   */\n  swap1\n  pop\n    /* \"#utility.yul\":1717:1859   */\n  swap2\n  swap1\n  pop\n  jump\t// out\n    /* \"#utility.yul\":1865:1940   */\ntag_40:\n    /* \"#utility.yul\":1908:1911   */\n  0x00\n    /* \"#utility.yul\":1929:1934   */\n  dup2\n    /* \"#utility.yul\":1922:1934   */\n  swap1\n  pop\n    /* \"#utility.yul\":1865:1940   */\n  swap2\n  swap1\n  pop\n  jump\t// out\n    /* \"#utility.yul\":1946:2215   */\ntag_41:\n    /* \"#utility.yul\":2056:2095   */\n  tag_71\n    /* \"#utility.yul\":2087:2094   */\n  dup4\n    /* \"#utility.yul\":2056:2095   */\n  tag_39\n  jump\t// in\ntag_71:\n    /* \"#utility.yul\":2117:2208   */\n  tag_72\n    /* \"#utility.yul\":2166:2207   */\n  tag_73\n    /* \"#utility.yul\":2190:2206   */\n  dup3\n    /* \"#utility.yul\":2166:2207   */\n  tag_40\n  jump\t// in\ntag_73:\n    /* \"#utility.yul\":2158:2164   */\n  dup5\n    /* \"#utility.yul\":2151:2155   */\n  dup5\n    /* \"#utility.yul\":2145:2156   */\n  sload\n    /* \"#utility.yul\":2117:2208   */\n  tag_36\n  jump\t// in\ntag_72:\n    /* \"#utility.yul\":2111:2115   */\n  dup3\n    /* \"#utility.yul\":2104:2209   */\n  sstore\n    /* \"#utility.yul\":2022:2215   */\n  pop\n    /* \"#utility.yul\":1946:2215   */\n  pop\n  pop\n  pop\n  jump\t// out\n    /* \"#utility.yul\":2221:2294   */\ntag_42:\n    /* \"#utility.yul\":2266:2269   */\n  0x00\n    /* \"#utility.yul\":2287:2288   */\n  0x00\n    /* \"#utility.yul\":2280:2288   */\n  swap1\n  pop\n    /* \"#utility.yul\":2221:2294   */\n  swap1\n  jump\t// out\n    /* \"#utility.yul\":2300:2489   */\ntag_43:\n    /* \"#utility.yul\":2377:2409   */\n  tag_76\n  tag_42\n  jump\t// in\ntag_76:\n    /* \"#utility.yul\":2418:2483   */\n  tag_77\n    /* \"#utility.yul\":2476:2482   */\n  dup2\n    /* \"#utility.yul\":2468:2474   */\n  dup5\n    /* \"#utility.yul\":2462:2466   */\n  dup5\n    /* \"#utility.yul\":2418:2483   */\n  tag_41\n  jump\t// in\ntag_77:\n    /* \"#utility.yul\":2353:2489   */\n  pop\n    /* \"#utility.yul\":2300:2489   */\n  pop\n  pop\n  jump\t// out\n    /* \"#utility.yul\":2495:2681   */\ntag_44:\n    /* \"#utility.yul\":2555:2675   */\ntag_79:\n    /* \"#utility.yul\":2572:2575   */\n  dup2\n    /* \"#utility.yul\":2565:2570   */\n  dup2\n    /* \"#utility.yul\":2562:2576   */\n  lt\n    /* \"#utility.yul\":2555:2675   */\n  iszero\n  tag_81\n  jumpi\n    /* \"#utility.yul\":2626:2665   */\n  tag_82\n    /* \"#utility.yul\":2663:2664   */\n  0x00\n    /* \"#utility.yul\":2656:2661   */\n  dup3\n    /* \"#utility.yul\":2626:2665   */\n  tag_43\n  jump\t// in\ntag_82:\n    /* \"#utility.yul\":2599:2600   */\n  0x01\n    /* \"#utility.yul\":2592:2597   */\n  dup2\n    /* \"#utility.yul\":2588:2601   */\n  add\n    /* \"#utility.yul\":2579:2601   */\n  swap1\n  pop\n    /* \"#utility.yul\":2555:2675   */\n  jump(tag_79)\ntag_81:\n    /* \"#utility.yul\":2495:2681   */\n  pop\n  pop\n  jump\t// out\n    /* \"#utility.yul\":2687:3230   */\ntag_45:\n    /* \"#utility.yul\":2788:2790   */\n  0x1f\n    /* \"#utility.yul\":2783:2786   */\n  dup3\n    /* \"#utility.yul\":2780:2791   */\n  gt\n    /* \"#utility.yul\":2777:3223   */\n  iszero\n  tag_84\n  jumpi\n    /* \"#utility.yul\":2822:2860   */\n  tag_85\n    /* \"#utility.yul\":2854:2859   */\n  dup2\n    /* \"#utility.yul\":2822:2860   */\n  tag_33\n  jump\t// in\ntag_85:\n    /* \"#utility.yul\":2906:2935   */\n  tag_86\n    /* \"#utility.yul\":2924:2934   */\n  dup5\n    /* \"#utility.yul\":2906:2935   */\n  tag_34\n  jump\t// in\ntag_86:\n    /* \"#utility.yul\":2896:2904   */\n  dup2\n    /* \"#utility.yul\":2892:2936   */\n  add\n    /* \"#utility.yul\":3089:3091   */\n  0x20\n    /* \"#utility.yul\":3077:3087   */\n  dup6\n    /* \"#utility.yul\":3074:3092   */\n  lt\n    /* \"#utility.yul\":3071:3120   */\n  iszero\n  tag_87\n  jumpi\n    /* \"#utility.yul\":3110:3118   */\n  dup2\n    /* \"#utility.yul\":3095:3118   */\n  swap1\n  pop\n    /* \"#utility.yul\":3071:3120   */\ntag_87:\n    /* \"#utility.yul\":3133:3213   */\n  tag_88\n    /* \"#utility.yul\":3189:3211   */\n  tag_89\n    /* \"#utility.yul\":3207:3210   */\n  dup6\n    /* \"#utility.yul\":3189:3211   */\n  tag_34\n  jump\t// in\ntag_89:\n    /* \"#utility.yul\":3179:3187   */\n  dup4\n    /* \"#utility.yul\":3175:3212   */\n  add\n    /* \"#utility.yul\":3162:3173   */\n  dup3\n    /* \"#utility.yul\":3133:3213   */\n  tag_44\n  jump\t// in\ntag_88:\n    /* \"#utility.yul\":2792:3223   */\n  pop\n  pop\n    /* \"#utility.yul\":2777:3223   */\ntag_84:\n    /* \"#utility.yul\":2687:3230   */\n  pop\n  pop\n  pop\n  jump\t// out\n    /* \"#utility.yul\":3236:3353   */\ntag_46:\n    /* \"#utility.yul\":3290:3298   */\n  0x00\n    /* \"#utility.yul\":3340:3345   */\n  dup3\n    /* \"#utility.yul\":3334:3338   */\n  dup3\n    /* \"#utility.yul\":3330:3346   */\n  shr\n    /* \"#utility.yul\":3309:3346   */\n  swap1\n  pop\n    /* \"#utility.yul\":3236:3353   */\n  swap3\n  swap2\n  pop\n  pop\n  jump\t// out\n    /* \"#utility.yul\":3359:3528   */\ntag_47:\n    /* \"#utility.yul\":3403:3409   */\n  0x00\n    /* \"#utility.yul\":3436:3487   */\n  tag_92\n    /* \"#utility.yul\":3484:3485   */\n  0x00\n    /* \"#utility.yul\":3480:3486   */\n  not\n    /* \"#utility.yul\":3472:3477   */\n  dup5\n    /* \"#utility.yul\":3469:3470   */\n  0x08\n    /* \"#utility.yul\":3465:3478   */\n  mul\n    /* \"#utility.yul\":3436:3487   */\n  tag_46\n  jump\t// in\ntag_92:\n    /* \"#utility.yul\":3432:3488   */\n  not\n    /* \"#utility.yul\":3517:3521   */\n  dup1\n    /* \"#utility.yul\":3511:3515   */\n  dup4\n    /* \"#utility.yul\":3507:3522   */\n  and\n    /* \"#utility.yul\":3497:3522   */\n  swap2\n  pop\n    /* \"#utility.yul\":3410:3528   */\n  pop\n    /* \"#utility.yul\":3359:3528   */\n  swap3\n  swap2\n  pop\n  pop\n  jump\t// out\n    /* \"#utility.yul\":3533:3828   */\ntag_48:\n    /* \"#utility.yul\":3609:3613   */\n  0x00\n    /* \"#utility.yul\":3755:3784   */\n  tag_94\n    /* \"#utility.yul\":3780:3783   */\n  dup4\n    /* \"#utility.yul\":3774:3778   */\n  dup4\n    /* \"#utility.yul\":3755:3784   */\n  tag_47\n  jump\t// in\ntag_94:\n    /* \"#utility.yul\":3747:3784   */\n  swap2\n  pop\n    /* \"#utility.yul\":3817:3820   */\n  dup3\n    /* \"#utility.yul\":3814:3815   */\n  0x02\n    /* \"#utility.yul\":3810:3821   */\n  mul\n    /* \"#utility.yul\":3804:3808   */\n  dup3\n    /* \"#utility.yul\":3801:3822   */\n  or\n    /* \"#utility.yul\":3793:3822   */\n  swap1\n  pop\n    /* \"#utility.yul\":3533:3828   */\n  swap3\n  swap2\n  pop\n  pop\n  jump\t// out\n    /* \"#utility.yul\":3833:5228   */\ntag_16:\n    /* \"#utility.yul\":3950:3987   */\n  tag_96\n    /* \"#utility.yul\":3983:3986   */\n  dup3\n    /* \"#utility.yul\":3950:3987   */\n  tag_30\n  jump\t// in\ntag_96:\n    /* \"#utility.yul\":4052:4070   */\n  0xffffffffffffffff\n    /* \"#utility.yul\":4044:4050   */\n  dup2\n    /* \"#utility.yul\":4041:4071   */\n  gt\n    /* \"#utility.yul\":4038:4094   */\n  iszero\n  tag_97\n  jumpi\n    /* \"#utility.yul\":4074:4092   */\n  tag_98\n  tag_31\n  jump\t// in\ntag_98:\n    /* \"#utility.yul\":4038:4094   */\ntag_97:\n    /* \"#utility.yul\":4118:4156   */\n  tag_99\n    /* \"#utility.yul\":4150:4154   */\n  dup3\n    /* \"#utility.yul\":4144:4155   */\n  sload\n    /* \"#utility.yul\":4118:4156   */\n  tag_26\n  jump\t// in\ntag_99:\n    /* \"#utility.yul\":4203:4270   */\n  tag_100\n    /* \"#utility.yul\":4263:4269   */\n  dup3\n    /* \"#utility.yul\":4255:4261   */\n  dup3\n    /* \"#utility.yul\":4249:4253   */\n  dup6\n    /* \"#utility.yul\":4203:4270   */\n  tag_45\n  jump\t// in\ntag_100:\n    /* \"#utility.yul\":4297:4298   */\n  0x00\n    /* \"#utility.yul\":4321:4325   */\n  0x20\n    /* \"#utility.yul\":4308:4325   */\n  swap1\n  pop\n    /* \"#utility.yul\":4353:4355   */\n  0x1f\n    /* \"#utility.yul\":4345:4351   */\n  dup4\n    /* \"#utility.yul\":4342:4356   */\n  gt\n    /* \"#utility.yul\":4370:4371   */\n  0x01\n    /* \"#utility.yul\":4365:4983   */\n  dup2\n  eq\n  tag_102\n  jumpi\n    /* \"#utility.yul\":5027:5028   */\n  0x00\n    /* \"#utility.yul\":5044:5050   */\n  dup5\n    /* \"#utility.yul\":5041:5118   */\n  iszero\n  tag_103\n  jumpi\n    /* \"#utility.yul\":5093:5102   */\n  dup3\n    /* \"#utility.yul\":5088:5091   */\n  dup8\n    /* \"#utility.yul\":5084:5103   */\n  add\n    /* \"#utility.yul\":5078:5104   */\n  mload\n    /* \"#utility.yul\":5069:5104   */\n  swap1\n  pop\n    /* \"#utility.yul\":5041:5118   */\ntag_103:\n    /* \"#utility.yul\":5144:5211   */\n  tag_104\n    /* \"#utility.yul\":5204:5210   */\n  dup6\n    /* \"#utility.yul\":5197:5202   */\n  dup3\n    /* \"#utility.yul\":5144:5211   */\n  tag_48\n  jump\t// in\ntag_104:\n    /* \"#utility.yul\":5138:5142   */\n  dup7\n    /* \"#utility.yul\":5131:5212   */\n  sstore\n    /* \"#utility.yul\":5000:5222   */\n  pop\n    /* \"#utility.yul\":4335:5222   */\n  jump(tag_101)\n    /* \"#utility.yul\":4365:4983   */\ntag_102:\n    /* \"#utility.yul\":4417:4421   */\n  0x1f\n    /* \"#utility.yul\":4413:4422   */\n  not\n    /* \"#utility.yul\":4405:4411   */\n  dup5\n    /* \"#utility.yul\":4401:4423   */\n  and\n    /* \"#utility.yul\":4451:4488   */\n  tag_105\n    /* \"#utility.yul\":4483:4487   */\n  dup7\n    /* \"#utility.yul\":4451:4488   */\n  tag_33\n  jump\t// in\ntag_105:\n    /* \"#utility.yul\":4510:4511   */\n  0x00\n    /* \"#utility.yul\":4524:4732   */\ntag_106:\n    /* \"#utility.yul\":4538:4545   */\n  dup3\n    /* \"#utility.yul\":4535:4536   */\n  dup2\n    /* \"#utility.yul\":4532:4546   */\n  lt\n    /* \"#utility.yul\":4524:4732   */\n  iszero\n  tag_108\n  jumpi\n    /* \"#utility.yul\":4617:4626   */\n  dup5\n    /* \"#utility.yul\":4612:4615   */\n  dup10\n    /* \"#utility.yul\":4608:4627   */\n  add\n    /* \"#utility.yul\":4602:4628   */\n  mload\n    /* \"#utility.yul\":4594:4600   */\n  dup3\n    /* \"#utility.yul\":4587:4629   */\n  sstore\n    /* \"#utility.yul\":4668:4669   */\n  0x01\n    /* \"#utility.yul\":4660:4666   */\n  dup3\n    /* \"#utility.yul\":4656:4670   */\n  add\n    /* \"#utility.yul\":4646:4670   */\n  swap2\n  pop\n    /* \"#utility.yul\":4715:4717   */\n  0x20\n    /* \"#utility.yul\":4704:4713   */\n  dup6\n    /* \"#utility.yul\":4700:4718   */\n  add\n    /* \"#utility.yul\":4687:4718   */\n  swap5\n  pop\n    /* \"#utility.yul\":4561:4565   */\n  0x20\n    /* \"#utility.yul\":4558:4559   */\n  dup2\n    /* \"#utility.yul\":4554:4566   */\n  add\n    /* \"#utility.yul\":4549:4566   */\n  swap1\n  pop\n    /* \"#utility.yul\":4524:4732   */\n  jump(tag_106)\ntag_108:\n    /* \"#utility.yul\":4760:4766   */\n  dup7\n    /* \"#utility.yul\":4751:4758   */\n  dup4\n    /* \"#utility.yul\":4748:4767   */\n  lt\n    /* \"#utility.yul\":4745:4924   */\n  iszero\n  tag_109\n  jumpi\n    /* \"#utility.yul\":4818:4827   */\n  dup5\n    /* \"#utility.yul\":4813:4816   */\n  dup10\n    /* \"#utility.yul\":4809:4828   */\n  add\n    /* \"#utility.yul\":4803:4829   */\n  mload\n    /* \"#utility.yul\":4861:4909   */\n  tag_110\n    /* \"#utility.yul\":4903:4907   */\n  0x1f\n    /* \"#utility.yul\":4895:4901   */\n  dup10\n    /* \"#utility.yul\":4891:4908   */\n  and\n    /* \"#utility.yul\":4880:4889   */\n  dup3\n    /* \"#utility.yul\":4861:4909   */\n  tag_47\n  jump\t// in\ntag_110:\n    /* \"#utility.yul\":4853:4859   */\n  dup4\n    /* \"#utility.yul\":4846:4910   */\n  sstore\n    /* \"#utility.yul\":4768:4924   */\n  pop\n    /* \"#utility.yul\":4745:4924   */\ntag_109:\n    /* \"#utility.yul\":4970:4971   */\n  0x01\n    /* \"#utility.yul\":4966:4967   */\n  0x02\n    /* \"#utility.yul\":4958:4964   */\n  dup9\n    /* \"#utility.yul\":4954:4968   */\n  mul\n    /* \"#utility.yul\":4950:4972   */\n  add\n    /* \"#utility.yul\":4944:4948   */\n  dup9\n    /* \"#utility.yul\":4937:4973   */\n  sstore\n    /* \"#utility.yul\":4372:4983   */\n  pop\n  pop\n  pop\n    /* \"#utility.yul\":4335:5222   */\ntag_101:\n  pop\n    /* \"#utility.yul\":3925:5228   */\n  pop\n  pop\n  pop\n    /* \"#utility.yul\":3833:5228   */\n  pop\n  pop\n  jump\t// out\n    /* \"array.sol\":60:733  contract Array{... */\ntag_6:\n  dataSize(sub_0)\n  dup1\n  dataOffset(sub_0)\n  0x00\n  codecopy\n  0x00\n  return\nstop\n\nsub_0: assembly {\n        /* \"array.sol\":60:733  contract Array{... */\n      mstore(0x40, 0x80)\n      callvalue\n      dup1\n      iszero\n      tag_1\n      jumpi\n      revert(0x00, 0x00)\n    tag_1:\n      pop\n      jumpi(tag_2, lt(calldatasize, 0x04))\n      shr(0xe0, calldataload(0x00))\n      dup1\n      0x1003e2d2\n      eq\n      tag_3\n      jumpi\n      dup1\n      0x6d4ce63c\n      eq\n      tag_4\n      jumpi\n      dup1\n      0x71e5ee5f\n      eq\n      tag_5\n      jumpi\n      dup1\n      0x90a339d4\n      eq\n      tag_6\n      jumpi\n      dup1\n      0xedf0099b\n      eq\n      tag_7\n      jumpi\n      dup1\n      0xf982c2cd\n      eq\n      tag_8\n      jumpi\n    tag_2:\n      revert(0x00, 0x00)\n        /* \"array.sol\":260:318  function add(uint x) public {... */\n    tag_3:\n      tag_9\n      0x04\n      dup1\n      calldatasize\n      sub\n      dup2\n      add\n      swap1\n      tag_10\n      swap2\n      swap1\n      tag_11\n      jump\t// in\n    tag_10:\n      tag_12\n      jump\t// in\n    tag_9:\n      stop\n        /* \"array.sol\":171:254  function get() public view  returns (string[] memory){... */\n    tag_4:\n      tag_13\n      tag_14\n      jump\t// in\n    tag_13:\n      mload(0x40)\n      tag_15\n      swap2\n      swap1\n      tag_16\n      jump\t// in\n    tag_15:\n      mload(0x40)\n      dup1\n      swap2\n      sub\n      swap1\n      return\n        /* \"array.sol\":81:113  uint[]  public  arr =[1,2,3,4,5] */\n    tag_5:\n      tag_17\n      0x04\n      dup1\n      calldatasize\n      sub\n      dup2\n      add\n      swap1\n      tag_18\n      swap2\n      swap1\n      tag_11\n      jump\t// in\n    tag_18:\n      tag_19\n      jump\t// in\n    tag_17:\n      mload(0x40)\n      tag_20\n      swap2\n      swap1\n      tag_21\n      jump\t// in\n    tag_20:\n      mload(0x40)\n      dup1\n      swap2\n      sub\n      swap1\n      return\n        /* \"array.sol\":324:468  function addAll(uint[] memory x)public {... */\n    tag_6:\n      tag_22\n      0x04\n      dup1\n      calldatasize\n      sub\n      dup2\n      add\n      swap1\n      tag_23\n      swap2\n      swap1\n      tag_24\n      jump\t// in\n    tag_23:\n      tag_25\n      jump\t// in\n    tag_22:\n      stop\n        /* \"array.sol\":120:162  string[] public arr2 = [\"asd\",\"123\",\"qwe\"] */\n    tag_7:\n      tag_26\n      0x04\n      dup1\n      calldatasize\n      sub\n      dup2\n      add\n      swap1\n      tag_27\n      swap2\n      swap1\n      tag_11\n      jump\t// in\n    tag_27:\n      tag_28\n      jump\t// in\n    tag_26:\n      mload(0x40)\n      tag_29\n      swap2\n      swap1\n      tag_30\n      jump\t// in\n    tag_29:\n      mload(0x40)\n      dup1\n      swap2\n      sub\n      swap1\n      return\n        /* \"array.sol\":476:730  function addStr(string memory x)public {... */\n    tag_8:\n      tag_31\n      0x04\n      dup1\n      calldatasize\n      sub\n      dup2\n      add\n      swap1\n      tag_32\n      swap2\n      swap1\n      tag_33\n      jump\t// in\n    tag_32:\n      tag_34\n      jump\t// in\n    tag_31:\n      stop\n        /* \"array.sol\":260:318  function add(uint x) public {... */\n    tag_12:\n        /* \"array.sol\":299:302  arr */\n      0x00\n        /* \"array.sol\":308:309  x */\n      dup2\n        /* \"array.sol\":299:310  arr.push(x) */\n      swap1\n      dup1\n      0x01\n      dup2\n      sload\n      add\n      dup1\n      dup3\n      sstore\n      dup1\n      swap2\n      pop\n      pop\n      0x01\n      swap1\n      sub\n      swap1\n      0x00\n      mstore\n      keccak256(0x00, 0x20)\n      add\n      0x00\n      swap1\n      swap2\n      swap1\n      swap2\n      swap1\n      swap2\n      pop\n      sstore\n        /* \"array.sol\":260:318  function add(uint x) public {... */\n      pop\n      jump\t// out\n        /* \"array.sol\":171:254  function get() public view  returns (string[] memory){... */\n    tag_14:\n        /* \"array.sol\":208:223  string[] memory */\n      0x60\n        /* \"array.sol\":242:246  arr2 */\n      0x01\n        /* \"array.sol\":235:246  return arr2 */\n      dup1\n      sload\n      dup1\n      0x20\n      mul\n      0x20\n      add\n      mload(0x40)\n      swap1\n      dup2\n      add\n      0x40\n      mstore\n      dup1\n      swap3\n      swap2\n      swap1\n      dup2\n      dup2\n      mstore\n      0x20\n      add\n      0x00\n      swap1\n    tag_38:\n      dup3\n      dup3\n      lt\n      iszero\n      tag_39\n      jumpi\n      dup4\n      dup3\n      swap1\n      0x00\n      mstore\n      keccak256(0x00, 0x20)\n      add\n      dup1\n      sload\n      tag_41\n      swap1\n      tag_42\n      jump\t// in\n    tag_41:\n      dup1\n      0x1f\n      add\n      0x20\n      dup1\n      swap2\n      div\n      mul\n      0x20\n      add\n      mload(0x40)\n      swap1\n      dup2\n      add\n      0x40\n      mstore\n      dup1\n      swap3\n      swap2\n      swap1\n      dup2\n      dup2\n      mstore\n      0x20\n      add\n      dup3\n      dup1\n      sload\n      tag_43\n      swap1\n      tag_42\n      jump\t// in\n    tag_43:\n      dup1\n      iszero\n      tag_44\n      jumpi\n      dup1\n      0x1f\n      lt\n      tag_45\n      jumpi\n      0x0100\n      dup1\n      dup4\n      sload\n      div\n      mul\n      dup4\n      mstore\n      swap2\n      0x20\n      add\n      swap2\n      jump(tag_44)\n    tag_45:\n      dup3\n      add\n      swap2\n      swap1\n      0x00\n      mstore\n      keccak256(0x00, 0x20)\n      swap1\n    tag_46:\n      dup2\n      sload\n      dup2\n      mstore\n      swap1\n      0x01\n      add\n      swap1\n      0x20\n      add\n      dup1\n      dup4\n      gt\n      tag_46\n      jumpi\n      dup3\n      swap1\n      sub\n      0x1f\n      and\n      dup3\n      add\n      swap2\n    tag_44:\n      pop\n      pop\n      pop\n      pop\n      pop\n      dup2\n      mstore\n      0x20\n      add\n      swap1\n      0x01\n      add\n      swap1\n      jump(tag_38)\n    tag_39:\n      pop\n      pop\n      pop\n      pop\n      swap1\n      pop\n        /* \"array.sol\":171:254  function get() public view  returns (string[] memory){... */\n      swap1\n      jump\t// out\n        /* \"array.sol\":81:113  uint[]  public  arr =[1,2,3,4,5] */\n    tag_19:\n      0x00\n      dup2\n      dup2\n      sload\n      dup2\n      lt\n      tag_47\n      jumpi\n      0x00\n      dup1\n      revert\n    tag_47:\n      swap1\n      0x00\n      mstore\n      keccak256(0x00, 0x20)\n      add\n      0x00\n      swap2\n      pop\n      swap1\n      pop\n      sload\n      dup2\n      jump\t// out\n        /* \"array.sol\":324:468  function addAll(uint[] memory x)public {... */\n    tag_25:\n        /* \"array.sol\":379:385  uint i */\n      0x00\n        /* \"array.sol\":388:389  0 */\n      0x00\n        /* \"array.sol\":379:389  uint i = 0 */\n      swap1\n      pop\n        /* \"array.sol\":374:461  for (uint i = 0; i < x.length; i++) ... */\n    tag_50:\n        /* \"array.sol\":395:396  x */\n      dup2\n        /* \"array.sol\":395:403  x.length */\n      mload\n        /* \"array.sol\":391:392  i */\n      dup2\n        /* \"array.sol\":391:403  i < x.length */\n      lt\n        /* \"array.sol\":374:461  for (uint i = 0; i < x.length; i++) ... */\n      iszero\n      tag_51\n      jumpi\n        /* \"array.sol\":432:435  arr */\n      0x00\n        /* \"array.sol\":441:442  x */\n      dup3\n        /* \"array.sol\":443:444  i */\n      dup3\n        /* \"array.sol\":441:445  x[i] */\n      dup2\n      mload\n      dup2\n      lt\n      tag_53\n      jumpi\n      tag_54\n      tag_55\n      jump\t// in\n    tag_54:\n    tag_53:\n      0x20\n      mul\n      0x20\n      add\n      add\n      mload\n        /* \"array.sol\":432:446  arr.push(x[i]) */\n      swap1\n      dup1\n      0x01\n      dup2\n      sload\n      add\n      dup1\n      dup3\n      sstore\n      dup1\n      swap2\n      pop\n      pop\n      0x01\n      swap1\n      sub\n      swap1\n      0x00\n      mstore\n      keccak256(0x00, 0x20)\n      add\n      0x00\n      swap1\n      swap2\n      swap1\n      swap2\n      swap1\n      swap2\n      pop\n      sstore\n        /* \"array.sol\":405:408  i++ */\n      dup1\n      dup1\n      0x01\n      add\n      swap2\n      pop\n      pop\n        /* \"array.sol\":374:461  for (uint i = 0; i < x.length; i++) ... */\n      jump(tag_50)\n    tag_51:\n      pop\n        /* \"array.sol\":324:468  function addAll(uint[] memory x)public {... */\n      pop\n      jump\t// out\n        /* \"array.sol\":120:162  string[] public arr2 = [\"asd\",\"123\",\"qwe\"] */\n    tag_28:\n      0x01\n      dup2\n      dup2\n      sload\n      dup2\n      lt\n      tag_57\n      jumpi\n      0x00\n      dup1\n      revert\n    tag_57:\n      swap1\n      0x00\n      mstore\n      keccak256(0x00, 0x20)\n      add\n      0x00\n      swap2\n      pop\n      swap1\n      pop\n      dup1\n      sload\n      tag_59\n      swap1\n      tag_42\n      jump\t// in\n    tag_59:\n      dup1\n      0x1f\n      add\n      0x20\n      dup1\n      swap2\n      div\n      mul\n      0x20\n      add\n      mload(0x40)\n      swap1\n      dup2\n      add\n      0x40\n      mstore\n      dup1\n      swap3\n      swap2\n      swap1\n      dup2\n      dup2\n      mstore\n      0x20\n      add\n      dup3\n      dup1\n      sload\n      tag_60\n      swap1\n      tag_42\n      jump\t// in\n    tag_60:\n      dup1\n      iszero\n      tag_61\n      jumpi\n      dup1\n      0x1f\n      lt\n      tag_62\n      jumpi\n      0x0100\n      dup1\n      dup4\n      sload\n      div\n      mul\n      dup4\n      mstore\n      swap2\n      0x20\n      add\n      swap2\n      jump(tag_61)\n    tag_62:\n      dup3\n      add\n      swap2\n      swap1\n      0x00\n      mstore\n      keccak256(0x00, 0x20)\n      swap1\n    tag_63:\n      dup2\n      sload\n      dup2\n      mstore\n      swap1\n      0x01\n      add\n      swap1\n      0x20\n      add\n      dup1\n      dup4\n      gt\n      tag_63\n      jumpi\n      dup3\n      swap1\n      sub\n      0x1f\n      and\n      dup3\n      add\n      swap2\n    tag_61:\n      pop\n      pop\n      pop\n      pop\n      pop\n      dup2\n      jump\t// out\n        /* \"array.sol\":476:730  function addStr(string memory x)public {... */\n    tag_34:\n        /* \"array.sol\":526:542  bytes memory bys */\n      0x00\n        /* \"array.sol\":551:552  x */\n      dup2\n        /* \"array.sol\":526:553  bytes memory bys = bytes(x) */\n      swap1\n      pop\n        /* \"array.sol\":564:581  bytes memory temp */\n      0x00\n        /* \"array.sol\":594:595  1 */\n      0x01\n        /* \"array.sol\":584:596  new bytes(1) */\n      0xffffffffffffffff\n      dup2\n      gt\n      iszero\n      tag_65\n      jumpi\n      tag_66\n      tag_67\n      jump\t// in\n    tag_66:\n    tag_65:\n      mload(0x40)\n      swap1\n      dup1\n      dup3\n      mstore\n      dup1\n      0x1f\n      add\n      not(0x1f)\n      and\n      0x20\n      add\n      dup3\n      add\n      0x40\n      mstore\n      dup1\n      iszero\n      tag_68\n      jumpi\n      dup2\n      0x20\n      add\n      0x01\n      dup3\n      mul\n      dup1\n      calldatasize\n      dup4\n      calldatacopy\n      dup1\n      dup3\n      add\n      swap2\n      pop\n      pop\n      swap1\n      pop\n    tag_68:\n      pop\n        /* \"array.sol\":564:596  bytes memory temp = new bytes(1) */\n      swap1\n      pop\n        /* \"array.sol\":611:618  uint8 i */\n      0x00\n        /* \"array.sol\":621:622  0 */\n      0x00\n        /* \"array.sol\":611:622  uint8 i = 0 */\n      swap1\n      pop\n        /* \"array.sol\":607:723  for(uint8 i = 0;i < bys.length;i++){... */\n    tag_69:\n        /* \"array.sol\":627:630  bys */\n      dup3\n        /* \"array.sol\":627:637  bys.length */\n      mload\n        /* \"array.sol\":623:624  i */\n      dup2\n        /* \"array.sol\":623:637  i < bys.length */\n      0xff\n      and\n      lt\n        /* \"array.sol\":607:723  for(uint8 i = 0;i < bys.length;i++){... */\n      iszero\n      tag_70\n      jumpi\n        /* \"array.sol\":667:670  bys */\n      dup3\n        /* \"array.sol\":671:672  i */\n      dup2\n        /* \"array.sol\":667:673  bys[i] */\n      0xff\n      and\n      dup2\n      mload\n      dup2\n      lt\n      tag_72\n      jumpi\n      tag_73\n      tag_55\n      jump\t// in\n    tag_73:\n    tag_72:\n      0x20\n      add\n      add\n      mload\n      0xf8\n      shr\n      0xf8\n      shl\n        /* \"array.sol\":657:661  temp */\n      dup3\n        /* \"array.sol\":662:663  0 */\n      0x00\n        /* \"array.sol\":657:664  temp[0] */\n      dup2\n      mload\n      dup2\n      lt\n      tag_74\n      jumpi\n      tag_75\n      tag_55\n      jump\t// in\n    tag_75:\n    tag_74:\n      0x20\n      add\n      add\n        /* \"array.sol\":657:673  temp[0] = bys[i] */\n      swap1\n      not(0xffffffffffffffffffffffffffffffffffffffffffffffffffffffffffffff)\n      and\n      swap1\n      dup2\n      0x00\n      byte\n      swap1\n      mstore8\n      pop\n        /* \"array.sol\":688:692  arr2 */\n      0x01\n        /* \"array.sol\":705:709  temp */\n      dup3\n        /* \"array.sol\":688:711  arr2.push(string(temp)) */\n      swap1\n      dup1\n      0x01\n      dup2\n      sload\n      add\n      dup1\n      dup3\n      sstore\n      dup1\n      swap2\n      pop\n      pop\n      0x01\n      swap1\n      sub\n      swap1\n      0x00\n      mstore\n      keccak256(0x00, 0x20)\n      add\n      0x00\n      swap1\n      swap2\n      swap1\n      swap2\n      swap1\n      swap2\n      pop\n      swap1\n      dup2\n      tag_77\n      swap2\n      swap1\n      tag_78\n      jump\t// in\n    tag_77:\n      pop\n        /* \"array.sol\":638:641  i++ */\n      dup1\n      dup1\n      tag_79\n      swap1\n      tag_80\n      jump\t// in\n    tag_79:\n      swap2\n      pop\n      pop\n        /* \"array.sol\":607:723  for(uint8 i = 0;i < bys.length;i++){... */\n      jump(tag_69)\n    tag_70:\n      pop\n        /* \"array.sol\":515:730  {... */\n      pop\n      pop\n        /* \"array.sol\":476:730  function addStr(string memory x)public {... */\n      pop\n      jump\t// out\n        /* \"#utility.yul\":7:82   */\n    tag_81:\n        /* \"#utility.yul\":40:46   */\n      0x00\n        /* \"#utility.yul\":73:75   */\n      0x40\n        /* \"#utility.yul\":67:76   */\n      mload\n        /* \"#utility.yul\":57:76   */\n      swap1\n      pop\n        /* \"#utility.yul\":7:82   */\n      swap1\n      jump\t// out\n        /* \"#utility.yul\":88:205   */\n    tag_82:\n        /* \"#utility.yul\":197:198   */\n      0x00\n        /* \"#utility.yul\":194:195   */\n      0x00\n        /* \"#utility.yul\":187:199   */\n      revert\n        /* \"#utility.yul\":211:328   */\n    tag_83:\n        /* \"#utility.yul\":320:321   */\n      0x00\n        /* \"#utility.yul\":317:318   */\n      0x00\n        /* \"#utility.yul\":310:322   */\n      revert\n        /* \"#utility.yul\":334:411   */\n    tag_84:\n        /* \"#utility.yul\":371:378   */\n      0x00\n        /* \"#utility.yul\":400:405   */\n      dup2\n        /* \"#utility.yul\":389:405   */\n      swap1\n      pop\n        /* \"#utility.yul\":334:411   */\n      swap2\n      swap1\n      pop\n      jump\t// out\n        /* \"#utility.yul\":417:539   */\n    tag_85:\n        /* \"#utility.yul\":490:514   */\n      tag_137\n        /* \"#utility.yul\":508:513   */\n      dup2\n        /* \"#utility.yul\":490:514   */\n      tag_84\n      jump\t// in\n    tag_137:\n        /* \"#utility.yul\":483:488   */\n      dup2\n        /* \"#utility.yul\":480:515   */\n      eq\n        /* \"#utility.yul\":470:533   */\n      tag_138\n      jumpi\n        /* \"#utility.yul\":529:530   */\n      0x00\n        /* \"#utility.yul\":526:527   */\n      0x00\n        /* \"#utility.yul\":519:531   */\n      revert\n        /* \"#utility.yul\":470:533   */\n    tag_138:\n        /* \"#utility.yul\":417:539   */\n      pop\n      jump\t// out\n        /* \"#utility.yul\":545:684   */\n    tag_86:\n        /* \"#utility.yul\":591:596   */\n      0x00\n        /* \"#utility.yul\":629:635   */\n      dup2\n        /* \"#utility.yul\":616:636   */\n      calldataload\n        /* \"#utility.yul\":607:636   */\n      swap1\n      pop\n        /* \"#utility.yul\":645:678   */\n      tag_140\n        /* \"#utility.yul\":672:677   */\n      dup2\n        /* \"#utility.yul\":645:678   */\n      tag_85\n      jump\t// in\n    tag_140:\n        /* \"#utility.yul\":545:684   */\n      swap3\n      swap2\n      pop\n      pop\n      jump\t// out\n        /* \"#utility.yul\":690:1019   */\n    tag_11:\n        /* \"#utility.yul\":749:755   */\n      0x00\n        /* \"#utility.yul\":798:800   */\n      0x20\n        /* \"#utility.yul\":786:795   */\n      dup3\n        /* \"#utility.yul\":777:784   */\n      dup5\n        /* \"#utility.yul\":773:796   */\n      sub\n        /* \"#utility.yul\":769:801   */\n      slt\n        /* \"#utility.yul\":766:885   */\n      iszero\n      tag_142\n      jumpi\n        /* \"#utility.yul\":804:883   */\n      tag_143\n      tag_82\n      jump\t// in\n    tag_143:\n        /* \"#utility.yul\":766:885   */\n    tag_142:\n        /* \"#utility.yul\":924:925   */\n      0x00\n        /* \"#utility.yul\":949:1002   */\n      tag_144\n        /* \"#utility.yul\":994:1001   */\n      dup5\n        /* \"#utility.yul\":985:991   */\n      dup3\n        /* \"#utility.yul\":974:983   */\n      dup6\n        /* \"#utility.yul\":970:992   */\n      add\n        /* \"#utility.yul\":949:1002   */\n      tag_86\n      jump\t// in\n    tag_144:\n        /* \"#utility.yul\":939:1002   */\n      swap2\n      pop\n        /* \"#utility.yul\":895:1012   */\n      pop\n        /* \"#utility.yul\":690:1019   */\n      swap3\n      swap2\n      pop\n      pop\n      jump\t// out\n        /* \"#utility.yul\":1025:1149   */\n    tag_87:\n        /* \"#utility.yul\":1102:1108   */\n      0x00\n        /* \"#utility.yul\":1136:1141   */\n      dup2\n        /* \"#utility.yul\":1130:1142   */\n      mload\n        /* \"#utility.yul\":1120:1142   */\n      swap1\n      pop\n        /* \"#utility.yul\":1025:1149   */\n      swap2\n      swap1\n      pop\n      jump\t// out\n        /* \"#utility.yul\":1155:1349   */\n    tag_88:\n        /* \"#utility.yul\":1264:1275   */\n      0x00\n        /* \"#utility.yul\":1298:1304   */\n      dup3\n        /* \"#utility.yul\":1293:1296   */\n      dup3\n        /* \"#utility.yul\":1286:1305   */\n      mstore\n        /* \"#utility.yul\":1338:1342   */\n      0x20\n        /* \"#utility.yul\":1333:1336   */\n      dup3\n        /* \"#utility.yul\":1329:1343   */\n      add\n        /* \"#utility.yul\":1314:1343   */\n      swap1\n      pop\n        /* \"#utility.yul\":1155:1349   */\n      swap3\n      swap2\n      pop\n      pop\n      jump\t// out\n        /* \"#utility.yul\":1355:1497   */\n    tag_89:\n        /* \"#utility.yul\":1432:1436   */\n      0x00\n        /* \"#utility.yul\":1455:1458   */\n      dup2\n        /* \"#utility.yul\":1447:1458   */\n      swap1\n      pop\n        /* \"#utility.yul\":1485:1489   */\n      0x20\n        /* \"#utility.yul\":1480:1483   */\n      dup3\n        /* \"#utility.yul\":1476:1490   */\n      add\n        /* \"#utility.yul\":1468:1490   */\n      swap1\n      pop\n        /* \"#utility.yul\":1355:1497   */\n      swap2\n      swap1\n      pop\n      jump\t// out\n        /* \"#utility.yul\":1503:1602   */\n    tag_90:\n        /* \"#utility.yul\":1555:1561   */\n      0x00\n        /* \"#utility.yul\":1589:1594   */\n      dup2\n        /* \"#utility.yul\":1583:1595   */\n      mload\n        /* \"#utility.yul\":1573:1595   */\n      swap1\n      pop\n        /* \"#utility.yul\":1503:1602   */\n      swap2\n      swap1\n      pop\n      jump\t// out\n        /* \"#utility.yul\":1608:1767   */\n    tag_91:\n        /* \"#utility.yul\":1682:1693   */\n      0x00\n        /* \"#utility.yul\":1716:1722   */\n      dup3\n        /* \"#utility.yul\":1711:1714   */\n      dup3\n        /* \"#utility.yul\":1704:1723   */\n      mstore\n        /* \"#utility.yul\":1756:1760   */\n      0x20\n        /* \"#utility.yul\":1751:1754   */\n      dup3\n        /* \"#utility.yul\":1747:1761   */\n      add\n        /* \"#utility.yul\":1732:1761   */\n      swap1\n      pop\n        /* \"#utility.yul\":1608:1767   */\n      swap3\n      swap2\n      pop\n      pop\n      jump\t// out\n        /* \"#utility.yul\":1773:1912   */\n    tag_92:\n        /* \"#utility.yul\":1862:1868   */\n      dup3\n        /* \"#utility.yul\":1857:1860   */\n      dup2\n        /* \"#utility.yul\":1852:1855   */\n      dup4\n        /* \"#utility.yul\":1846:1869   */\n      mcopy\n        /* \"#utility.yul\":1903:1904   */\n      0x00\n        /* \"#utility.yul\":1894:1900   */\n      dup4\n        /* \"#utility.yul\":1889:1892   */\n      dup4\n        /* \"#utility.yul\":1885:1901   */\n      add\n        /* \"#utility.yul\":1878:1905   */\n      mstore\n        /* \"#utility.yul\":1773:1912   */\n      pop\n      pop\n      pop\n      jump\t// out\n        /* \"#utility.yul\":1918:2020   */\n    tag_93:\n        /* \"#utility.yul\":1959:1965   */\n      0x00\n        /* \"#utility.yul\":2010:2012   */\n      0x1f\n        /* \"#utility.yul\":2006:2013   */\n      not\n        /* \"#utility.yul\":2001:2003   */\n      0x1f\n        /* \"#utility.yul\":1994:1999   */\n      dup4\n        /* \"#utility.yul\":1990:2004   */\n      add\n        /* \"#utility.yul\":1986:2014   */\n      and\n        /* \"#utility.yul\":1976:2014   */\n      swap1\n      pop\n        /* \"#utility.yul\":1918:2020   */\n      swap2\n      swap1\n      pop\n      jump\t// out\n        /* \"#utility.yul\":2026:2383   */\n    tag_94:\n        /* \"#utility.yul\":2104:2107   */\n      0x00\n        /* \"#utility.yul\":2132:2171   */\n      tag_153\n        /* \"#utility.yul\":2165:2170   */\n      dup3\n        /* \"#utility.yul\":2132:2171   */\n      tag_90\n      jump\t// in\n    tag_153:\n        /* \"#utility.yul\":2187:2248   */\n      tag_154\n        /* \"#utility.yul\":2241:2247   */\n      dup2\n        /* \"#utility.yul\":2236:2239   */\n      dup6\n        /* \"#utility.yul\":2187:2248   */\n      tag_91\n      jump\t// in\n    tag_154:\n        /* \"#utility.yul\":2180:2248   */\n      swap4\n      pop\n        /* \"#utility.yul\":2257:2322   */\n      tag_155\n        /* \"#utility.yul\":2315:2321   */\n      dup2\n        /* \"#utility.yul\":2310:2313   */\n      dup6\n        /* \"#utility.yul\":2303:2307   */\n      0x20\n        /* \"#utility.yul\":2296:2301   */\n      dup7\n        /* \"#utility.yul\":2292:2308   */\n      add\n        /* \"#utility.yul\":2257:2322   */\n      tag_92\n      jump\t// in\n    tag_155:\n        /* \"#utility.yul\":2347:2376   */\n      tag_156\n        /* \"#utility.yul\":2369:2375   */\n      dup2\n        /* \"#utility.yul\":2347:2376   */\n      tag_93\n      jump\t// in\n    tag_156:\n        /* \"#utility.yul\":2342:2345   */\n      dup5\n        /* \"#utility.yul\":2338:2377   */\n      add\n        /* \"#utility.yul\":2331:2377   */\n      swap2\n      pop\n        /* \"#utility.yul\":2108:2383   */\n      pop\n        /* \"#utility.yul\":2026:2383   */\n      swap3\n      swap2\n      pop\n      pop\n      jump\t// out\n        /* \"#utility.yul\":2389:2585   */\n    tag_95:\n        /* \"#utility.yul\":2478:2488   */\n      0x00\n        /* \"#utility.yul\":2513:2579   */\n      tag_158\n        /* \"#utility.yul\":2575:2578   */\n      dup4\n        /* \"#utility.yul\":2567:2573   */\n      dup4\n        /* \"#utility.yul\":2513:2579   */\n      tag_94\n      jump\t// in\n    tag_158:\n        /* \"#utility.yul\":2499:2579   */\n      swap1\n      pop\n        /* \"#utility.yul\":2389:2585   */\n      swap3\n      swap2\n      pop\n      pop\n      jump\t// out\n        /* \"#utility.yul\":2591:2714   */\n    tag_96:\n        /* \"#utility.yul\":2671:2675   */\n      0x00\n        /* \"#utility.yul\":2703:2707   */\n      0x20\n        /* \"#utility.yul\":2698:2701   */\n      dup3\n        /* \"#utility.yul\":2694:2708   */\n      add\n        /* \"#utility.yul\":2686:2708   */\n      swap1\n      pop\n        /* \"#utility.yul\":2591:2714   */\n      swap2\n      swap1\n      pop\n      jump\t// out\n        /* \"#utility.yul\":2748:3739   */\n    tag_97:\n        /* \"#utility.yul\":2887:2890   */\n      0x00\n        /* \"#utility.yul\":2916:2980   */\n      tag_161\n        /* \"#utility.yul\":2974:2979   */\n      dup3\n        /* \"#utility.yul\":2916:2980   */\n      tag_87\n      jump\t// in\n    tag_161:\n        /* \"#utility.yul\":2996:3092   */\n      tag_162\n        /* \"#utility.yul\":3085:3091   */\n      dup2\n        /* \"#utility.yul\":3080:3083   */\n      dup6\n        /* \"#utility.yul\":2996:3092   */\n      tag_88\n      jump\t// in\n    tag_162:\n        /* \"#utility.yul\":2989:3092   */\n      swap4\n      pop\n        /* \"#utility.yul\":3118:3121   */\n      dup4\n        /* \"#utility.yul\":3163:3167   */\n      0x20\n        /* \"#utility.yul\":3155:3161   */\n      dup3\n        /* \"#utility.yul\":3151:3168   */\n      mul\n        /* \"#utility.yul\":3146:3149   */\n      dup6\n        /* \"#utility.yul\":3142:3169   */\n      add\n        /* \"#utility.yul\":3193:3259   */\n      tag_163\n        /* \"#utility.yul\":3253:3258   */\n      dup6\n        /* \"#utility.yul\":3193:3259   */\n      tag_89\n      jump\t// in\n    tag_163:\n        /* \"#utility.yul\":3282:3289   */\n      dup1\n        /* \"#utility.yul\":3313:3314   */\n      0x00\n        /* \"#utility.yul\":3298:3694   */\n    tag_164:\n        /* \"#utility.yul\":3323:3329   */\n      dup6\n        /* \"#utility.yul\":3320:3321   */\n      dup2\n        /* \"#utility.yul\":3317:3330   */\n      lt\n        /* \"#utility.yul\":3298:3694   */\n      iszero\n      tag_166\n      jumpi\n        /* \"#utility.yul\":3394:3403   */\n      dup5\n        /* \"#utility.yul\":3388:3392   */\n      dup5\n        /* \"#utility.yul\":3384:3404   */\n      sub\n        /* \"#utility.yul\":3379:3382   */\n      dup10\n        /* \"#utility.yul\":3372:3405   */\n      mstore\n        /* \"#utility.yul\":3445:3451   */\n      dup2\n        /* \"#utility.yul\":3439:3452   */\n      mload\n        /* \"#utility.yul\":3473:3557   */\n      tag_167\n        /* \"#utility.yul\":3552:3556   */\n      dup6\n        /* \"#utility.yul\":3537:3550   */\n      dup3\n        /* \"#utility.yul\":3473:3557   */\n      tag_95\n      jump\t// in\n    tag_167:\n        /* \"#utility.yul\":3465:3557   */\n      swap5\n      pop\n        /* \"#utility.yul\":3580:3650   */\n      tag_168\n        /* \"#utility.yul\":3643:3649   */\n      dup4\n        /* \"#utility.yul\":3580:3650   */\n      tag_96\n      jump\t// in\n    tag_168:\n        /* \"#utility.yul\":3570:3650   */\n      swap3\n      pop\n        /* \"#utility.yul\":3679:3683   */\n      0x20\n        /* \"#utility.yul\":3674:3677   */\n      dup11\n        /* \"#utility.yul\":3670:3684   */\n      add\n        /* \"#utility.yul\":3663:3684   */\n      swap10\n      pop\n        /* \"#utility.yul\":3358:3694   */\n      pop\n        /* \"#utility.yul\":3345:3346   */\n      0x01\n        /* \"#utility.yul\":3342:3343   */\n      dup2\n        /* \"#utility.yul\":3338:3347   */\n      add\n        /* \"#utility.yul\":3333:3347   */\n      swap1\n      pop\n        /* \"#utility.yul\":3298:3694   */\n      jump(tag_164)\n    tag_166:\n        /* \"#utility.yul\":3302:3316   */\n      pop\n        /* \"#utility.yul\":3710:3714   */\n      dup3\n        /* \"#utility.yul\":3703:3714   */\n      swap8\n      pop\n        /* \"#utility.yul\":3730:3733   */\n      dup8\n        /* \"#utility.yul\":3723:3733   */\n      swap6\n      pop\n        /* \"#utility.yul\":2892:3739   */\n      pop\n      pop\n      pop\n      pop\n      pop\n        /* \"#utility.yul\":2748:3739   */\n      swap3\n      swap2\n      pop\n      pop\n      jump\t// out\n        /* \"#utility.yul\":3745:4158   */\n    tag_16:\n        /* \"#utility.yul\":3908:3912   */\n      0x00\n        /* \"#utility.yul\":3946:3948   */\n      0x20\n        /* \"#utility.yul\":3935:3944   */\n      dup3\n        /* \"#utility.yul\":3931:3949   */\n      add\n        /* \"#utility.yul\":3923:3949   */\n      swap1\n      pop\n        /* \"#utility.yul\":3995:4004   */\n      dup2\n        /* \"#utility.yul\":3989:3993   */\n      dup2\n        /* \"#utility.yul\":3985:4005   */\n      sub\n        /* \"#utility.yul\":3981:3982   */\n      0x00\n        /* \"#utility.yul\":3970:3979   */\n      dup4\n        /* \"#utility.yul\":3966:3983   */\n      add\n        /* \"#utility.yul\":3959:4006   */\n      mstore\n        /* \"#utility.yul\":4023:4151   */\n      tag_170\n        /* \"#utility.yul\":4146:4150   */\n      dup2\n        /* \"#utility.yul\":4137:4143   */\n      dup5\n        /* \"#utility.yul\":4023:4151   */\n      tag_97\n      jump\t// in\n    tag_170:\n        /* \"#utility.yul\":4015:4151   */\n      swap1\n      pop\n        /* \"#utility.yul\":3745:4158   */\n      swap3\n      swap2\n      pop\n      pop\n      jump\t// out\n        /* \"#utility.yul\":4164:4282   */\n    tag_98:\n        /* \"#utility.yul\":4251:4275   */\n      tag_172\n        /* \"#utility.yul\":4269:4274   */\n      dup2\n        /* \"#utility.yul\":4251:4275   */\n      tag_84\n      jump\t// in\n    tag_172:\n        /* \"#utility.yul\":4246:4249   */\n      dup3\n        /* \"#utility.yul\":4239:4276   */\n      mstore\n        /* \"#utility.yul\":4164:4282   */\n      pop\n      pop\n      jump\t// out\n        /* \"#utility.yul\":4288:4510   */\n    tag_21:\n        /* \"#utility.yul\":4381:4385   */\n      0x00\n        /* \"#utility.yul\":4419:4421   */\n      0x20\n        /* \"#utility.yul\":4408:4417   */\n      dup3\n        /* \"#utility.yul\":4404:4422   */\n      add\n        /* \"#utility.yul\":4396:4422   */\n      swap1\n      pop\n        /* \"#utility.yul\":4432:4503   */\n      tag_174\n        /* \"#utility.yul\":4500:4501   */\n      0x00\n        /* \"#utility.yul\":4489:4498   */\n      dup4\n        /* \"#utility.yul\":4485:4502   */\n      add\n        /* \"#utility.yul\":4476:4482   */\n      dup5\n        /* \"#utility.yul\":4432:4503   */\n      tag_98\n      jump\t// in\n    tag_174:\n        /* \"#utility.yul\":4288:4510   */\n      swap3\n      swap2\n      pop\n      pop\n      jump\t// out\n        /* \"#utility.yul\":4516:4633   */\n    tag_99:\n        /* \"#utility.yul\":4625:4626   */\n      0x00\n        /* \"#utility.yul\":4622:4623   */\n      0x00\n        /* \"#utility.yul\":4615:4627   */\n      revert\n        /* \"#utility.yul\":4639:4819   */\n    tag_67:\n        /* \"#utility.yul\":4687:4764   */\n      0x4e487b7100000000000000000000000000000000000000000000000000000000\n        /* \"#utility.yul\":4684:4685   */\n      0x00\n        /* \"#utility.yul\":4677:4765   */\n      mstore\n        /* \"#utility.yul\":4784:4788   */\n      0x41\n        /* \"#utility.yul\":4781:4782   */\n      0x04\n        /* \"#utility.yul\":4774:4789   */\n      mstore\n        /* \"#utility.yul\":4808:4812   */\n      0x24\n        /* \"#utility.yul\":4805:4806   */\n      0x00\n        /* \"#utility.yul\":4798:4813   */\n      revert\n        /* \"#utility.yul\":4825:5106   */\n    tag_100:\n        /* \"#utility.yul\":4908:4935   */\n      tag_178\n        /* \"#utility.yul\":4930:4934   */\n      dup3\n        /* \"#utility.yul\":4908:4935   */\n      tag_93\n      jump\t// in\n    tag_178:\n        /* \"#utility.yul\":4900:4906   */\n      dup2\n        /* \"#utility.yul\":4896:4936   */\n      add\n        /* \"#utility.yul\":5038:5044   */\n      dup2\n        /* \"#utility.yul\":5026:5036   */\n      dup2\n        /* \"#utility.yul\":5023:5045   */\n      lt\n        /* \"#utility.yul\":5002:5020   */\n      0xffffffffffffffff\n        /* \"#utility.yul\":4990:5000   */\n      dup3\n        /* \"#utility.yul\":4987:5021   */\n      gt\n        /* \"#utility.yul\":4984:5046   */\n      or\n        /* \"#utility.yul\":4981:5069   */\n      iszero\n      tag_179\n      jumpi\n        /* \"#utility.yul\":5049:5067   */\n      tag_180\n      tag_67\n      jump\t// in\n    tag_180:\n        /* \"#utility.yul\":4981:5069   */\n    tag_179:\n        /* \"#utility.yul\":5089:5099   */\n      dup1\n        /* \"#utility.yul\":5085:5087   */\n      0x40\n        /* \"#utility.yul\":5078:5100   */\n      mstore\n        /* \"#utility.yul\":4868:5106   */\n      pop\n        /* \"#utility.yul\":4825:5106   */\n      pop\n      pop\n      jump\t// out\n        /* \"#utility.yul\":5112:5241   */\n    tag_101:\n        /* \"#utility.yul\":5146:5152   */\n      0x00\n        /* \"#utility.yul\":5173:5193   */\n      tag_182\n      tag_81\n      jump\t// in\n    tag_182:\n        /* \"#utility.yul\":5163:5193   */\n      swap1\n      pop\n        /* \"#utility.yul\":5202:5235   */\n      tag_183\n        /* \"#utility.yul\":5230:5234   */\n      dup3\n        /* \"#utility.yul\":5222:5228   */\n      dup3\n        /* \"#utility.yul\":5202:5235   */\n      tag_100\n      jump\t// in\n    tag_183:\n        /* \"#utility.yul\":5112:5241   */\n      swap2\n      swap1\n      pop\n      jump\t// out\n        /* \"#utility.yul\":5247:5558   */\n    tag_102:\n        /* \"#utility.yul\":5324:5328   */\n      0x00\n        /* \"#utility.yul\":5414:5432   */\n      0xffffffffffffffff\n        /* \"#utility.yul\":5406:5412   */\n      dup3\n        /* \"#utility.yul\":5403:5433   */\n      gt\n        /* \"#utility.yul\":5400:5456   */\n      iszero\n      tag_185\n      jumpi\n        /* \"#utility.yul\":5436:5454   */\n      tag_186\n      tag_67\n      jump\t// in\n    tag_186:\n        /* \"#utility.yul\":5400:5456   */\n    tag_185:\n        /* \"#utility.yul\":5486:5490   */\n      0x20\n        /* \"#utility.yul\":5478:5484   */\n      dup3\n        /* \"#utility.yul\":5474:5491   */\n      mul\n        /* \"#utility.yul\":5466:5491   */\n      swap1\n      pop\n        /* \"#utility.yul\":5546:5550   */\n      0x20\n        /* \"#utility.yul\":5540:5544   */\n      dup2\n        /* \"#utility.yul\":5536:5551   */\n      add\n        /* \"#utility.yul\":5528:5551   */\n      swap1\n      pop\n        /* \"#utility.yul\":5247:5558   */\n      swap2\n      swap1\n      pop\n      jump\t// out\n        /* \"#utility.yul\":5564:5681   */\n    tag_103:\n        /* \"#utility.yul\":5673:5674   */\n      0x00\n        /* \"#utility.yul\":5670:5671   */\n      0x00\n        /* \"#utility.yul\":5663:5675   */\n      revert\n        /* \"#utility.yul\":5704:6414   */\n    tag_104:\n        /* \"#utility.yul\":5800:5805   */\n      0x00\n        /* \"#utility.yul\":5825:5906   */\n      tag_189\n        /* \"#utility.yul\":5841:5905   */\n      tag_190\n        /* \"#utility.yul\":5898:5904   */\n      dup5\n        /* \"#utility.yul\":5841:5905   */\n      tag_102\n      jump\t// in\n    tag_190:\n        /* \"#utility.yul\":5825:5906   */\n      tag_101\n      jump\t// in\n    tag_189:\n        /* \"#utility.yul\":5816:5906   */\n      swap1\n      pop\n        /* \"#utility.yul\":5926:5931   */\n      dup1\n        /* \"#utility.yul\":5955:5961   */\n      dup4\n        /* \"#utility.yul\":5948:5953   */\n      dup3\n        /* \"#utility.yul\":5941:5962   */\n      mstore\n        /* \"#utility.yul\":5989:5993   */\n      0x20\n        /* \"#utility.yul\":5982:5987   */\n      dup3\n        /* \"#utility.yul\":5978:5994   */\n      add\n        /* \"#utility.yul\":5971:5994   */\n      swap1\n      pop\n        /* \"#utility.yul\":6042:6046   */\n      0x20\n        /* \"#utility.yul\":6034:6040   */\n      dup5\n        /* \"#utility.yul\":6030:6047   */\n      mul\n        /* \"#utility.yul\":6022:6028   */\n      dup4\n        /* \"#utility.yul\":6018:6048   */\n      add\n        /* \"#utility.yul\":6071:6074   */\n      dup6\n        /* \"#utility.yul\":6063:6069   */\n      dup2\n        /* \"#utility.yul\":6060:6075   */\n      gt\n        /* \"#utility.yul\":6057:6179   */\n      iszero\n      tag_191\n      jumpi\n        /* \"#utility.yul\":6090:6169   */\n      tag_192\n      tag_103\n      jump\t// in\n    tag_192:\n        /* \"#utility.yul\":6057:6179   */\n    tag_191:\n        /* \"#utility.yul\":6205:6211   */\n      dup4\n        /* \"#utility.yul\":6188:6408   */\n    tag_193:\n        /* \"#utility.yul\":6222:6228   */\n      dup2\n        /* \"#utility.yul\":6217:6220   */\n      dup2\n        /* \"#utility.yul\":6214:6229   */\n      lt\n        /* \"#utility.yul\":6188:6408   */\n      iszero\n      tag_195\n      jumpi\n        /* \"#utility.yul\":6297:6300   */\n      dup1\n        /* \"#utility.yul\":6326:6363   */\n      tag_196\n        /* \"#utility.yul\":6359:6362   */\n      dup9\n        /* \"#utility.yul\":6347:6357   */\n      dup3\n        /* \"#utility.yul\":6326:6363   */\n      tag_86\n      jump\t// in\n    tag_196:\n        /* \"#utility.yul\":6321:6324   */\n      dup5\n        /* \"#utility.yul\":6314:6364   */\n      mstore\n        /* \"#utility.yul\":6393:6397   */\n      0x20\n        /* \"#utility.yul\":6388:6391   */\n      dup5\n        /* \"#utility.yul\":6384:6398   */\n      add\n        /* \"#utility.yul\":6377:6398   */\n      swap4\n      pop\n        /* \"#utility.yul\":6264:6408   */\n      pop\n        /* \"#utility.yul\":6248:6252   */\n      0x20\n        /* \"#utility.yul\":6243:6246   */\n      dup2\n        /* \"#utility.yul\":6239:6253   */\n      add\n        /* \"#utility.yul\":6232:6253   */\n      swap1\n      pop\n        /* \"#utility.yul\":6188:6408   */\n      jump(tag_193)\n    tag_195:\n        /* \"#utility.yul\":6192:6213   */\n      pop\n        /* \"#utility.yul\":5806:6414   */\n      pop\n      pop\n        /* \"#utility.yul\":5704:6414   */\n      swap4\n      swap3\n      pop\n      pop\n      pop\n      jump\t// out\n        /* \"#utility.yul\":6437:6807   */\n    tag_105:\n        /* \"#utility.yul\":6508:6513   */\n      0x00\n        /* \"#utility.yul\":6557:6560   */\n      dup3\n        /* \"#utility.yul\":6550:6554   */\n      0x1f\n        /* \"#utility.yul\":6542:6548   */\n      dup4\n        /* \"#utility.yul\":6538:6555   */\n      add\n        /* \"#utility.yul\":6534:6561   */\n      slt\n        /* \"#utility.yul\":6524:6646   */\n      tag_198\n      jumpi\n        /* \"#utility.yul\":6565:6644   */\n      tag_199\n      tag_99\n      jump\t// in\n    tag_199:\n        /* \"#utility.yul\":6524:6646   */\n    tag_198:\n        /* \"#utility.yul\":6682:6688   */\n      dup2\n        /* \"#utility.yul\":6669:6689   */\n      calldataload\n        /* \"#utility.yul\":6707:6801   */\n      tag_200\n        /* \"#utility.yul\":6797:6800   */\n      dup5\n        /* \"#utility.yul\":6789:6795   */\n      dup3\n        /* \"#utility.yul\":6782:6786   */\n      0x20\n        /* \"#utility.yul\":6774:6780   */\n      dup7\n        /* \"#utility.yul\":6770:6787   */\n      add\n        /* \"#utility.yul\":6707:6801   */\n      tag_104\n      jump\t// in\n    tag_200:\n        /* \"#utility.yul\":6698:6801   */\n      swap2\n      pop\n        /* \"#utility.yul\":6514:6807   */\n      pop\n        /* \"#utility.yul\":6437:6807   */\n      swap3\n      swap2\n      pop\n      pop\n      jump\t// out\n        /* \"#utility.yul\":6813:7352   */\n    tag_24:\n        /* \"#utility.yul\":6897:6903   */\n      0x00\n        /* \"#utility.yul\":6946:6948   */\n      0x20\n        /* \"#utility.yul\":6934:6943   */\n      dup3\n        /* \"#utility.yul\":6925:6932   */\n      dup5\n        /* \"#utility.yul\":6921:6944   */\n      sub\n        /* \"#utility.yul\":6917:6949   */\n      slt\n        /* \"#utility.yul\":6914:7033   */\n      iszero\n      tag_202\n      jumpi\n        /* \"#utility.yul\":6952:7031   */\n      tag_203\n      tag_82\n      jump\t// in\n    tag_203:\n        /* \"#utility.yul\":6914:7033   */\n    tag_202:\n        /* \"#utility.yul\":7100:7101   */\n      0x00\n        /* \"#utility.yul\":7089:7098   */\n      dup3\n        /* \"#utility.yul\":7085:7102   */\n      add\n        /* \"#utility.yul\":7072:7103   */\n      calldataload\n        /* \"#utility.yul\":7130:7148   */\n      0xffffffffffffffff\n        /* \"#utility.yul\":7122:7128   */\n      dup2\n        /* \"#utility.yul\":7119:7149   */\n      gt\n        /* \"#utility.yul\":7116:7233   */\n      iszero\n      tag_204\n      jumpi\n        /* \"#utility.yul\":7152:7231   */\n      tag_205\n      tag_83\n      jump\t// in\n    tag_205:\n        /* \"#utility.yul\":7116:7233   */\n    tag_204:\n        /* \"#utility.yul\":7257:7335   */\n      tag_206\n        /* \"#utility.yul\":7327:7334   */\n      dup5\n        /* \"#utility.yul\":7318:7324   */\n      dup3\n        /* \"#utility.yul\":7307:7316   */\n      dup6\n        /* \"#utility.yul\":7303:7325   */\n      add\n        /* \"#utility.yul\":7257:7335   */\n      tag_105\n      jump\t// in\n    tag_206:\n        /* \"#utility.yul\":7247:7335   */\n      swap2\n      pop\n        /* \"#utility.yul\":7043:7345   */\n      pop\n        /* \"#utility.yul\":6813:7352   */\n      swap3\n      swap2\n      pop\n      pop\n      jump\t// out\n        /* \"#utility.yul\":7358:7527   */\n    tag_106:\n        /* \"#utility.yul\":7442:7453   */\n      0x00\n        /* \"#utility.yul\":7476:7482   */\n      dup3\n        /* \"#utility.yul\":7471:7474   */\n      dup3\n        /* \"#utility.yul\":7464:7483   */\n      mstore\n        /* \"#utility.yul\":7516:7520   */\n      0x20\n        /* \"#utility.yul\":7511:7514   */\n      dup3\n        /* \"#utility.yul\":7507:7521   */\n      add\n        /* \"#utility.yul\":7492:7521   */\n      swap1\n      pop\n        /* \"#utility.yul\":7358:7527   */\n      swap3\n      swap2\n      pop\n      pop\n      jump\t// out\n        /* \"#utility.yul\":7533:7910   */\n    tag_107:\n        /* \"#utility.yul\":7621:7624   */\n      0x00\n        /* \"#utility.yul\":7649:7688   */\n      tag_209\n        /* \"#utility.yul\":7682:7687   */\n      dup3\n        /* \"#utility.yul\":7649:7688   */\n      tag_90\n      jump\t// in\n    tag_209:\n        /* \"#utility.yul\":7704:7775   */\n      tag_210\n        /* \"#utility.yul\":7768:7774   */\n      dup2\n        /* \"#utility.yul\":7763:7766   */\n      dup6\n        /* \"#utility.yul\":7704:7775   */\n      tag_106\n      jump\t// in\n    tag_210:\n        /* \"#utility.yul\":7697:7775   */\n      swap4\n      pop\n        /* \"#utility.yul\":7784:7849   */\n      tag_211\n        /* \"#utility.yul\":7842:7848   */\n      dup2\n        /* \"#utility.yul\":7837:7840   */\n      dup6\n        /* \"#utility.yul\":7830:7834   */\n      0x20\n        /* \"#utility.yul\":7823:7828   */\n      dup7\n        /* \"#utility.yul\":7819:7835   */\n      add\n        /* \"#utility.yul\":7784:7849   */\n      tag_92\n      jump\t// in\n    tag_211:\n        /* \"#utility.yul\":7874:7903   */\n      tag_212\n        /* \"#utility.yul\":7896:7902   */\n      dup2\n        /* \"#utility.yul\":7874:7903   */\n      tag_93\n      jump\t// in\n    tag_212:\n        /* \"#utility.yul\":7869:7872   */\n      dup5\n        /* \"#utility.yul\":7865:7904   */\n      add\n        /* \"#utility.yul\":7858:7904   */\n      swap2\n      pop\n        /* \"#utility.yul\":7625:7910   */\n      pop\n        /* \"#utility.yul\":7533:7910   */\n      swap3\n      swap2\n      pop\n      pop\n      jump\t// out\n        /* \"#utility.yul\":7916:8229   */\n    tag_30:\n        /* \"#utility.yul\":8029:8033   */\n      0x00\n        /* \"#utility.yul\":8067:8069   */\n      0x20\n        /* \"#utility.yul\":8056:8065   */\n      dup3\n        /* \"#utility.yul\":8052:8070   */\n      add\n        /* \"#utility.yul\":8044:8070   */\n      swap1\n      pop\n        /* \"#utility.yul\":8116:8125   */\n      dup2\n        /* \"#utility.yul\":8110:8114   */\n      dup2\n        /* \"#utility.yul\":8106:8126   */\n      sub\n        /* \"#utility.yul\":8102:8103   */\n      0x00\n        /* \"#utility.yul\":8091:8100   */\n      dup4\n        /* \"#utility.yul\":8087:8104   */\n      add\n        /* \"#utility.yul\":8080:8127   */\n      mstore\n        /* \"#utility.yul\":8144:8222   */\n      tag_214\n        /* \"#utility.yul\":8217:8221   */\n      dup2\n        /* \"#utility.yul\":8208:8214   */\n      dup5\n        /* \"#utility.yul\":8144:8222   */\n      tag_107\n      jump\t// in\n    tag_214:\n        /* \"#utility.yul\":8136:8222   */\n      swap1\n      pop\n        /* \"#utility.yul\":7916:8229   */\n      swap3\n      swap2\n      pop\n      pop\n      jump\t// out\n        /* \"#utility.yul\":8235:8352   */\n    tag_108:\n        /* \"#utility.yul\":8344:8345   */\n      0x00\n        /* \"#utility.yul\":8341:8342   */\n      0x00\n        /* \"#utility.yul\":8334:8346   */\n      revert\n        /* \"#utility.yul\":8358:8666   */\n    tag_109:\n        /* \"#utility.yul\":8420:8424   */\n      0x00\n        /* \"#utility.yul\":8510:8528   */\n      0xffffffffffffffff\n        /* \"#utility.yul\":8502:8508   */\n      dup3\n        /* \"#utility.yul\":8499:8529   */\n      gt\n        /* \"#utility.yul\":8496:8552   */\n      iszero\n      tag_217\n      jumpi\n        /* \"#utility.yul\":8532:8550   */\n      tag_218\n      tag_67\n      jump\t// in\n    tag_218:\n        /* \"#utility.yul\":8496:8552   */\n    tag_217:\n        /* \"#utility.yul\":8570:8599   */\n      tag_219\n        /* \"#utility.yul\":8592:8598   */\n      dup3\n        /* \"#utility.yul\":8570:8599   */\n      tag_93\n      jump\t// in\n    tag_219:\n        /* \"#utility.yul\":8562:8599   */\n      swap1\n      pop\n        /* \"#utility.yul\":8654:8658   */\n      0x20\n        /* \"#utility.yul\":8648:8652   */\n      dup2\n        /* \"#utility.yul\":8644:8659   */\n      add\n        /* \"#utility.yul\":8636:8659   */\n      swap1\n      pop\n        /* \"#utility.yul\":8358:8666   */\n      swap2\n      swap1\n      pop\n      jump\t// out\n        /* \"#utility.yul\":8672:8820   */\n    tag_110:\n        /* \"#utility.yul\":8770:8776   */\n      dup3\n        /* \"#utility.yul\":8765:8768   */\n      dup2\n        /* \"#utility.yul\":8760:8763   */\n      dup4\n        /* \"#utility.yul\":8747:8777   */\n      calldatacopy\n        /* \"#utility.yul\":8811:8812   */\n      0x00\n        /* \"#utility.yul\":8802:8808   */\n      dup4\n        /* \"#utility.yul\":8797:8800   */\n      dup4\n        /* \"#utility.yul\":8793:8809   */\n      add\n        /* \"#utility.yul\":8786:8813   */\n      mstore\n        /* \"#utility.yul\":8672:8820   */\n      pop\n      pop\n      pop\n      jump\t// out\n        /* \"#utility.yul\":8826:9251   */\n    tag_111:\n        /* \"#utility.yul\":8904:8909   */\n      0x00\n        /* \"#utility.yul\":8929:8995   */\n      tag_222\n        /* \"#utility.yul\":8945:8994   */\n      tag_223\n        /* \"#utility.yul\":8987:8993   */\n      dup5\n        /* \"#utility.yul\":8945:8994   */\n      tag_109\n      jump\t// in\n    tag_223:\n        /* \"#utility.yul\":8929:8995   */\n      tag_101\n      jump\t// in\n    tag_222:\n        /* \"#utility.yul\":8920:8995   */\n      swap1\n      pop\n        /* \"#utility.yul\":9018:9024   */\n      dup3\n        /* \"#utility.yul\":9011:9016   */\n      dup2\n        /* \"#utility.yul\":9004:9025   */\n      mstore\n        /* \"#utility.yul\":9056:9060   */\n      0x20\n        /* \"#utility.yul\":9049:9054   */\n      dup2\n        /* \"#utility.yul\":9045:9061   */\n      add\n        /* \"#utility.yul\":9094:9097   */\n      dup5\n        /* \"#utility.yul\":9085:9091   */\n      dup5\n        /* \"#utility.yul\":9080:9083   */\n      dup5\n        /* \"#utility.yul\":9076:9092   */\n      add\n        /* \"#utility.yul\":9073:9098   */\n      gt\n        /* \"#utility.yul\":9070:9182   */\n      iszero\n      tag_224\n      jumpi\n        /* \"#utility.yul\":9101:9180   */\n      tag_225\n      tag_108\n      jump\t// in\n    tag_225:\n        /* \"#utility.yul\":9070:9182   */\n    tag_224:\n        /* \"#utility.yul\":9191:9245   */\n      tag_226\n        /* \"#utility.yul\":9238:9244   */\n      dup5\n        /* \"#utility.yul\":9233:9236   */\n      dup3\n        /* \"#utility.yul\":9228:9231   */\n      dup6\n        /* \"#utility.yul\":9191:9245   */\n      tag_110\n      jump\t// in\n    tag_226:\n        /* \"#utility.yul\":8910:9251   */\n      pop\n        /* \"#utility.yul\":8826:9251   */\n      swap4\n      swap3\n      pop\n      pop\n      pop\n      jump\t// out\n        /* \"#utility.yul\":9271:9611   */\n    tag_112:\n        /* \"#utility.yul\":9327:9332   */\n      0x00\n        /* \"#utility.yul\":9376:9379   */\n      dup3\n        /* \"#utility.yul\":9369:9373   */\n      0x1f\n        /* \"#utility.yul\":9361:9367   */\n      dup4\n        /* \"#utility.yul\":9357:9374   */\n      add\n        /* \"#utility.yul\":9353:9380   */\n      slt\n        /* \"#utility.yul\":9343:9465   */\n      tag_228\n      jumpi\n        /* \"#utility.yul\":9384:9463   */\n      tag_229\n      tag_99\n      jump\t// in\n    tag_229:\n        /* \"#utility.yul\":9343:9465   */\n    tag_228:\n        /* \"#utility.yul\":9501:9507   */\n      dup2\n        /* \"#utility.yul\":9488:9508   */\n      calldataload\n        /* \"#utility.yul\":9526:9605   */\n      tag_230\n        /* \"#utility.yul\":9601:9604   */\n      dup5\n        /* \"#utility.yul\":9593:9599   */\n      dup3\n        /* \"#utility.yul\":9586:9590   */\n      0x20\n        /* \"#utility.yul\":9578:9584   */\n      dup7\n        /* \"#utility.yul\":9574:9591   */\n      add\n        /* \"#utility.yul\":9526:9605   */\n      tag_111\n      jump\t// in\n    tag_230:\n        /* \"#utility.yul\":9517:9605   */\n      swap2\n      pop\n        /* \"#utility.yul\":9333:9611   */\n      pop\n        /* \"#utility.yul\":9271:9611   */\n      swap3\n      swap2\n      pop\n      pop\n      jump\t// out\n        /* \"#utility.yul\":9617:10126   */\n    tag_33:\n        /* \"#utility.yul\":9686:9692   */\n      0x00\n        /* \"#utility.yul\":9735:9737   */\n      0x20\n        /* \"#utility.yul\":9723:9732   */\n      dup3\n        /* \"#utility.yul\":9714:9721   */\n      dup5\n        /* \"#utility.yul\":9710:9733   */\n      sub\n        /* \"#utility.yul\":9706:9738   */\n      slt\n        /* \"#utility.yul\":9703:9822   */\n      iszero\n      tag_232\n      jumpi\n        /* \"#utility.yul\":9741:9820   */\n      tag_233\n      tag_82\n      jump\t// in\n    tag_233:\n        /* \"#utility.yul\":9703:9822   */\n    tag_232:\n        /* \"#utility.yul\":9889:9890   */\n      0x00\n        /* \"#utility.yul\":9878:9887   */\n      dup3\n        /* \"#utility.yul\":9874:9891   */\n      add\n        /* \"#utility.yul\":9861:9892   */\n      calldataload\n        /* \"#utility.yul\":9919:9937   */\n      0xffffffffffffffff\n        /* \"#utility.yul\":9911:9917   */\n      dup2\n        /* \"#utility.yul\":9908:9938   */\n      gt\n        /* \"#utility.yul\":9905:10022   */\n      iszero\n      tag_234\n      jumpi\n        /* \"#utility.yul\":9941:10020   */\n      tag_235\n      tag_83\n      jump\t// in\n    tag_235:\n        /* \"#utility.yul\":9905:10022   */\n    tag_234:\n        /* \"#utility.yul\":10046:10109   */\n      tag_236\n        /* \"#utility.yul\":10101:10108   */\n      dup5\n        /* \"#utility.yul\":10092:10098   */\n      dup3\n        /* \"#utility.yul\":10081:10090   */\n      dup6\n        /* \"#utility.yul\":10077:10099   */\n      add\n        /* \"#utility.yul\":10046:10109   */\n      tag_112\n      jump\t// in\n    tag_236:\n        /* \"#utility.yul\":10036:10109   */\n      swap2\n      pop\n        /* \"#utility.yul\":9832:10119   */\n      pop\n        /* \"#utility.yul\":9617:10126   */\n      swap3\n      swap2\n      pop\n      pop\n      jump\t// out\n        /* \"#utility.yul\":10132:10312   */\n    tag_113:\n        /* \"#utility.yul\":10180:10257   */\n      0x4e487b7100000000000000000000000000000000000000000000000000000000\n        /* \"#utility.yul\":10177:10178   */\n      0x00\n        /* \"#utility.yul\":10170:10258   */\n      mstore\n        /* \"#utility.yul\":10277:10281   */\n      0x22\n        /* \"#utility.yul\":10274:10275   */\n      0x04\n        /* \"#utility.yul\":10267:10282   */\n      mstore\n        /* \"#utility.yul\":10301:10305   */\n      0x24\n        /* \"#utility.yul\":10298:10299   */\n      0x00\n        /* \"#utility.yul\":10291:10306   */\n      revert\n        /* \"#utility.yul\":10318:10638   */\n    tag_42:\n        /* \"#utility.yul\":10362:10368   */\n      0x00\n        /* \"#utility.yul\":10399:10400   */\n      0x02\n        /* \"#utility.yul\":10393:10397   */\n      dup3\n        /* \"#utility.yul\":10389:10401   */\n      div\n        /* \"#utility.yul\":10379:10401   */\n      swap1\n      pop\n        /* \"#utility.yul\":10446:10447   */\n      0x01\n        /* \"#utility.yul\":10440:10444   */\n      dup3\n        /* \"#utility.yul\":10436:10448   */\n      and\n        /* \"#utility.yul\":10467:10485   */\n      dup1\n        /* \"#utility.yul\":10457:10538   */\n      tag_239\n      jumpi\n        /* \"#utility.yul\":10523:10527   */\n      0x7f\n        /* \"#utility.yul\":10515:10521   */\n      dup3\n        /* \"#utility.yul\":10511:10528   */\n      and\n        /* \"#utility.yul\":10501:10528   */\n      swap2\n      pop\n        /* \"#utility.yul\":10457:10538   */\n    tag_239:\n        /* \"#utility.yul\":10585:10587   */\n      0x20\n        /* \"#utility.yul\":10577:10583   */\n      dup3\n        /* \"#utility.yul\":10574:10588   */\n      lt\n        /* \"#utility.yul\":10554:10572   */\n      dup2\n        /* \"#utility.yul\":10551:10589   */\n      sub\n        /* \"#utility.yul\":10548:10632   */\n      tag_240\n      jumpi\n        /* \"#utility.yul\":10604:10622   */\n      tag_241\n      tag_113\n      jump\t// in\n    tag_241:\n        /* \"#utility.yul\":10548:10632   */\n    tag_240:\n        /* \"#utility.yul\":10369:10638   */\n      pop\n        /* \"#utility.yul\":10318:10638   */\n      swap2\n      swap1\n      pop\n      jump\t// out\n        /* \"#utility.yul\":10644:10824   */\n    tag_55:\n        /* \"#utility.yul\":10692:10769   */\n      0x4e487b7100000000000000000000000000000000000000000000000000000000\n        /* \"#utility.yul\":10689:10690   */\n      0x00\n        /* \"#utility.yul\":10682:10770   */\n      mstore\n        /* \"#utility.yul\":10789:10793   */\n      0x32\n        /* \"#utility.yul\":10786:10787   */\n      0x04\n        /* \"#utility.yul\":10779:10794   */\n      mstore\n        /* \"#utility.yul\":10813:10817   */\n      0x24\n        /* \"#utility.yul\":10810:10811   */\n      0x00\n        /* \"#utility.yul\":10803:10818   */\n      revert\n        /* \"#utility.yul\":10830:10971   */\n    tag_114:\n        /* \"#utility.yul\":10879:10883   */\n      0x00\n        /* \"#utility.yul\":10902:10905   */\n      dup2\n        /* \"#utility.yul\":10894:10905   */\n      swap1\n      pop\n        /* \"#utility.yul\":10925:10928   */\n      dup2\n        /* \"#utility.yul\":10922:10923   */\n      0x00\n        /* \"#utility.yul\":10915:10929   */\n      mstore\n        /* \"#utility.yul\":10959:10963   */\n      0x20\n        /* \"#utility.yul\":10956:10957   */\n      0x00\n        /* \"#utility.yul\":10946:10964   */\n      keccak256\n        /* \"#utility.yul\":10938:10964   */\n      swap1\n      pop\n        /* \"#utility.yul\":10830:10971   */\n      swap2\n      swap1\n      pop\n      jump\t// out\n        /* \"#utility.yul\":10977:11070   */\n    tag_115:\n        /* \"#utility.yul\":11014:11020   */\n      0x00\n        /* \"#utility.yul\":11061:11063   */\n      0x20\n        /* \"#utility.yul\":11056:11058   */\n      0x1f\n        /* \"#utility.yul\":11049:11054   */\n      dup4\n        /* \"#utility.yul\":11045:11059   */\n      add\n        /* \"#utility.yul\":11041:11064   */\n      div\n        /* \"#utility.yul\":11031:11064   */\n      swap1\n      pop\n        /* \"#utility.yul\":10977:11070   */\n      swap2\n      swap1\n      pop\n      jump\t// out\n        /* \"#utility.yul\":11076:11183   */\n    tag_116:\n        /* \"#utility.yul\":11120:11128   */\n      0x00\n        /* \"#utility.yul\":11170:11175   */\n      dup3\n        /* \"#utility.yul\":11164:11168   */\n      dup3\n        /* \"#utility.yul\":11160:11176   */\n      shl\n        /* \"#utility.yul\":11139:11176   */\n      swap1\n      pop\n        /* \"#utility.yul\":11076:11183   */\n      swap3\n      swap2\n      pop\n      pop\n      jump\t// out\n        /* \"#utility.yul\":11189:11582   */\n    tag_117:\n        /* \"#utility.yul\":11258:11264   */\n      0x00\n        /* \"#utility.yul\":11308:11309   */\n      0x08\n        /* \"#utility.yul\":11296:11306   */\n      dup4\n        /* \"#utility.yul\":11292:11310   */\n      mul\n        /* \"#utility.yul\":11331:11428   */\n      tag_247\n        /* \"#utility.yul\":11361:11427   */\n      0xffffffffffffffffffffffffffffffffffffffffffffffffffffffffffffffff\n        /* \"#utility.yul\":11350:11359   */\n      dup3\n        /* \"#utility.yul\":11331:11428   */\n      tag_116\n      jump\t// in\n    tag_247:\n        /* \"#utility.yul\":11449:11488   */\n      tag_248\n        /* \"#utility.yul\":11479:11487   */\n      dup7\n        /* \"#utility.yul\":11468:11477   */\n      dup4\n        /* \"#utility.yul\":11449:11488   */\n      tag_116\n      jump\t// in\n    tag_248:\n        /* \"#utility.yul\":11437:11488   */\n      swap6\n      pop\n        /* \"#utility.yul\":11521:11525   */\n      dup1\n        /* \"#utility.yul\":11517:11526   */\n      not\n        /* \"#utility.yul\":11510:11515   */\n      dup5\n        /* \"#utility.yul\":11506:11527   */\n      and\n        /* \"#utility.yul\":11497:11527   */\n      swap4\n      pop\n        /* \"#utility.yul\":11570:11574   */\n      dup1\n        /* \"#utility.yul\":11560:11568   */\n      dup7\n        /* \"#utility.yul\":11556:11575   */\n      and\n        /* \"#utility.yul\":11549:11554   */\n      dup5\n        /* \"#utility.yul\":11546:11576   */\n      or\n        /* \"#utility.yul\":11536:11576   */\n      swap3\n      pop\n        /* \"#utility.yul\":11265:11582   */\n      pop\n      pop\n        /* \"#utility.yul\":11189:11582   */\n      swap4\n      swap3\n      pop\n      pop\n      pop\n      jump\t// out\n        /* \"#utility.yul\":11588:11648   */\n    tag_118:\n        /* \"#utility.yul\":11616:11619   */\n      0x00\n        /* \"#utility.yul\":11637:11642   */\n      dup2\n        /* \"#utility.yul\":11630:11642   */\n      swap1\n      pop\n        /* \"#utility.yul\":11588:11648   */\n      swap2\n      swap1\n      pop\n      jump\t// out\n        /* \"#utility.yul\":11654:11796   */\n    tag_119:\n        /* \"#utility.yul\":11704:11713   */\n      0x00\n        /* \"#utility.yul\":11737:11790   */\n      tag_251\n        /* \"#utility.yul\":11755:11789   */\n      tag_252\n        /* \"#utility.yul\":11764:11788   */\n      tag_253\n        /* \"#utility.yul\":11782:11787   */\n      dup5\n        /* \"#utility.yul\":11764:11788   */\n      tag_84\n      jump\t// in\n    tag_253:\n        /* \"#utility.yul\":11755:11789   */\n      tag_118\n      jump\t// in\n    tag_252:\n        /* \"#utility.yul\":11737:11790   */\n      tag_84\n      jump\t// in\n    tag_251:\n        /* \"#utility.yul\":11724:11790   */\n      swap1\n      pop\n        /* \"#utility.yul\":11654:11796   */\n      swap2\n      swap1\n      pop\n      jump\t// out\n        /* \"#utility.yul\":11802:11877   */\n    tag_120:\n        /* \"#utility.yul\":11845:11848   */\n      0x00\n        /* \"#utility.yul\":11866:11871   */\n      dup2\n        /* \"#utility.yul\":11859:11871   */\n      swap1\n      pop\n        /* \"#utility.yul\":11802:11877   */\n      swap2\n      swap1\n      pop\n      jump\t// out\n        /* \"#utility.yul\":11883:12152   */\n    tag_121:\n        /* \"#utility.yul\":11993:12032   */\n      tag_256\n        /* \"#utility.yul\":12024:12031   */\n      dup4\n        /* \"#utility.yul\":11993:12032   */\n      tag_119\n      jump\t// in\n    tag_256:\n        /* \"#utility.yul\":12054:12145   */\n      tag_257\n        /* \"#utility.yul\":12103:12144   */\n      tag_258\n        /* \"#utility.yul\":12127:12143   */\n      dup3\n        /* \"#utility.yul\":12103:12144   */\n      tag_120\n      jump\t// in\n    tag_258:\n        /* \"#utility.yul\":12095:12101   */\n      dup5\n        /* \"#utility.yul\":12088:12092   */\n      dup5\n        /* \"#utility.yul\":12082:12093   */\n      sload\n        /* \"#utility.yul\":12054:12145   */\n      tag_117\n      jump\t// in\n    tag_257:\n        /* \"#utility.yul\":12048:12052   */\n      dup3\n        /* \"#utility.yul\":12041:12146   */\n      sstore\n        /* \"#utility.yul\":11959:12152   */\n      pop\n        /* \"#utility.yul\":11883:12152   */\n      pop\n      pop\n      pop\n      jump\t// out\n        /* \"#utility.yul\":12158:12231   */\n    tag_122:\n        /* \"#utility.yul\":12203:12206   */\n      0x00\n        /* \"#utility.yul\":12224:12225   */\n      0x00\n        /* \"#utility.yul\":12217:12225   */\n      swap1\n      pop\n        /* \"#utility.yul\":12158:12231   */\n      swap1\n      jump\t// out\n        /* \"#utility.yul\":12237:12426   */\n    tag_123:\n        /* \"#utility.yul\":12314:12346   */\n      tag_261\n      tag_122\n      jump\t// in\n    tag_261:\n        /* \"#utility.yul\":12355:12420   */\n      tag_262\n        /* \"#utility.yul\":12413:12419   */\n      dup2\n        /* \"#utility.yul\":12405:12411   */\n      dup5\n        /* \"#utility.yul\":12399:12403   */\n      dup5\n        /* \"#utility.yul\":12355:12420   */\n      tag_121\n      jump\t// in\n    tag_262:\n        /* \"#utility.yul\":12290:12426   */\n      pop\n        /* \"#utility.yul\":12237:12426   */\n      pop\n      pop\n      jump\t// out\n        /* \"#utility.yul\":12432:12618   */\n    tag_124:\n        /* \"#utility.yul\":12492:12612   */\n    tag_264:\n        /* \"#utility.yul\":12509:12512   */\n      dup2\n        /* \"#utility.yul\":12502:12507   */\n      dup2\n        /* \"#utility.yul\":12499:12513   */\n      lt\n        /* \"#utility.yul\":12492:12612   */\n      iszero\n      tag_266\n      jumpi\n        /* \"#utility.yul\":12563:12602   */\n      tag_267\n        /* \"#utility.yul\":12600:12601   */\n      0x00\n        /* \"#utility.yul\":12593:12598   */\n      dup3\n        /* \"#utility.yul\":12563:12602   */\n      tag_123\n      jump\t// in\n    tag_267:\n        /* \"#utility.yul\":12536:12537   */\n      0x01\n        /* \"#utility.yul\":12529:12534   */\n      dup2\n        /* \"#utility.yul\":12525:12538   */\n      add\n        /* \"#utility.yul\":12516:12538   */\n      swap1\n      pop\n        /* \"#utility.yul\":12492:12612   */\n      jump(tag_264)\n    tag_266:\n        /* \"#utility.yul\":12432:12618   */\n      pop\n      pop\n      jump\t// out\n        /* \"#utility.yul\":12624:13167   */\n    tag_125:\n        /* \"#utility.yul\":12725:12727   */\n      0x1f\n        /* \"#utility.yul\":12720:12723   */\n      dup3\n        /* \"#utility.yul\":12717:12728   */\n      gt\n        /* \"#utility.yul\":12714:13160   */\n      iszero\n      tag_269\n      jumpi\n        /* \"#utility.yul\":12759:12797   */\n      tag_270\n        /* \"#utility.yul\":12791:12796   */\n      dup2\n        /* \"#utility.yul\":12759:12797   */\n      tag_114\n      jump\t// in\n    tag_270:\n        /* \"#utility.yul\":12843:12872   */\n      tag_271\n        /* \"#utility.yul\":12861:12871   */\n      dup5\n        /* \"#utility.yul\":12843:12872   */\n      tag_115\n      jump\t// in\n    tag_271:\n        /* \"#utility.yul\":12833:12841   */\n      dup2\n        /* \"#utility.yul\":12829:12873   */\n      add\n        /* \"#utility.yul\":13026:13028   */\n      0x20\n        /* \"#utility.yul\":13014:13024   */\n      dup6\n        /* \"#utility.yul\":13011:13029   */\n      lt\n        /* \"#utility.yul\":13008:13057   */\n      iszero\n      tag_272\n      jumpi\n        /* \"#utility.yul\":13047:13055   */\n      dup2\n        /* \"#utility.yul\":13032:13055   */\n      swap1\n      pop\n        /* \"#utility.yul\":13008:13057   */\n    tag_272:\n        /* \"#utility.yul\":13070:13150   */\n      tag_273\n        /* \"#utility.yul\":13126:13148   */\n      tag_274\n        /* \"#utility.yul\":13144:13147   */\n      dup6\n        /* \"#utility.yul\":13126:13148   */\n      tag_115\n      jump\t// in\n    tag_274:\n        /* \"#utility.yul\":13116:13124   */\n      dup4\n        /* \"#utility.yul\":13112:13149   */\n      add\n        /* \"#utility.yul\":13099:13110   */\n      dup3\n        /* \"#utility.yul\":13070:13150   */\n      tag_124\n      jump\t// in\n    tag_273:\n        /* \"#utility.yul\":12729:13160   */\n      pop\n      pop\n        /* \"#utility.yul\":12714:13160   */\n    tag_269:\n        /* \"#utility.yul\":12624:13167   */\n      pop\n      pop\n      pop\n      jump\t// out\n        /* \"#utility.yul\":13173:13290   */\n    tag_126:\n        /* \"#utility.yul\":13227:13235   */\n      0x00\n        /* \"#utility.yul\":13277:13282   */\n      dup3\n        /* \"#utility.yul\":13271:13275   */\n      dup3\n        /* \"#utility.yul\":13267:13283   */\n      shr\n        /* \"#utility.yul\":13246:13283   */\n      swap1\n      pop\n        /* \"#utility.yul\":13173:13290   */\n      swap3\n      swap2\n      pop\n      pop\n      jump\t// out\n        /* \"#utility.yul\":13296:13465   */\n    tag_127:\n        /* \"#utility.yul\":13340:13346   */\n      0x00\n        /* \"#utility.yul\":13373:13424   */\n      tag_277\n        /* \"#utility.yul\":13421:13422   */\n      0x00\n        /* \"#utility.yul\":13417:13423   */\n      not\n        /* \"#utility.yul\":13409:13414   */\n      dup5\n        /* \"#utility.yul\":13406:13407   */\n      0x08\n        /* \"#utility.yul\":13402:13415   */\n      mul\n        /* \"#utility.yul\":13373:13424   */\n      tag_126\n      jump\t// in\n    tag_277:\n        /* \"#utility.yul\":13369:13425   */\n      not\n        /* \"#utility.yul\":13454:13458   */\n      dup1\n        /* \"#utility.yul\":13448:13452   */\n      dup4\n        /* \"#utility.yul\":13444:13459   */\n      and\n        /* \"#utility.yul\":13434:13459   */\n      swap2\n      pop\n        /* \"#utility.yul\":13347:13465   */\n      pop\n        /* \"#utility.yul\":13296:13465   */\n      swap3\n      swap2\n      pop\n      pop\n      jump\t// out\n        /* \"#utility.yul\":13470:13765   */\n    tag_128:\n        /* \"#utility.yul\":13546:13550   */\n      0x00\n        /* \"#utility.yul\":13692:13721   */\n      tag_279\n        /* \"#utility.yul\":13717:13720   */\n      dup4\n        /* \"#utility.yul\":13711:13715   */\n      dup4\n        /* \"#utility.yul\":13692:13721   */\n      tag_127\n      jump\t// in\n    tag_279:\n        /* \"#utility.yul\":13684:13721   */\n      swap2\n      pop\n        /* \"#utility.yul\":13754:13757   */\n      dup3\n        /* \"#utility.yul\":13751:13752   */\n      0x02\n        /* \"#utility.yul\":13747:13758   */\n      mul\n        /* \"#utility.yul\":13741:13745   */\n      dup3\n        /* \"#utility.yul\":13738:13759   */\n      or\n        /* \"#utility.yul\":13730:13759   */\n      swap1\n      pop\n        /* \"#utility.yul\":13470:13765   */\n      swap3\n      swap2\n      pop\n      pop\n      jump\t// out\n        /* \"#utility.yul\":13770:15165   */\n    tag_78:\n        /* \"#utility.yul\":13887:13924   */\n      tag_281\n        /* \"#utility.yul\":13920:13923   */\n      dup3\n        /* \"#utility.yul\":13887:13924   */\n      tag_90\n      jump\t// in\n    tag_281:\n        /* \"#utility.yul\":13989:14007   */\n      0xffffffffffffffff\n        /* \"#utility.yul\":13981:13987   */\n      dup2\n        /* \"#utility.yul\":13978:14008   */\n      gt\n        /* \"#utility.yul\":13975:14031   */\n      iszero\n      tag_282\n      jumpi\n        /* \"#utility.yul\":14011:14029   */\n      tag_283\n      tag_67\n      jump\t// in\n    tag_283:\n        /* \"#utility.yul\":13975:14031   */\n    tag_282:\n        /* \"#utility.yul\":14055:14093   */\n      tag_284\n        /* \"#utility.yul\":14087:14091   */\n      dup3\n        /* \"#utility.yul\":14081:14092   */\n      sload\n        /* \"#utility.yul\":14055:14093   */\n      tag_42\n      jump\t// in\n    tag_284:\n        /* \"#utility.yul\":14140:14207   */\n      tag_285\n        /* \"#utility.yul\":14200:14206   */\n      dup3\n        /* \"#utility.yul\":14192:14198   */\n      dup3\n        /* \"#utility.yul\":14186:14190   */\n      dup6\n        /* \"#utility.yul\":14140:14207   */\n      tag_125\n      jump\t// in\n    tag_285:\n        /* \"#utility.yul\":14234:14235   */\n      0x00\n        /* \"#utility.yul\":14258:14262   */\n      0x20\n        /* \"#utility.yul\":14245:14262   */\n      swap1\n      pop\n        /* \"#utility.yul\":14290:14292   */\n      0x1f\n        /* \"#utility.yul\":14282:14288   */\n      dup4\n        /* \"#utility.yul\":14279:14293   */\n      gt\n        /* \"#utility.yul\":14307:14308   */\n      0x01\n        /* \"#utility.yul\":14302:14920   */\n      dup2\n      eq\n      tag_287\n      jumpi\n        /* \"#utility.yul\":14964:14965   */\n      0x00\n        /* \"#utility.yul\":14981:14987   */\n      dup5\n        /* \"#utility.yul\":14978:15055   */\n      iszero\n      tag_288\n      jumpi\n        /* \"#utility.yul\":15030:15039   */\n      dup3\n        /* \"#utility.yul\":15025:15028   */\n      dup8\n        /* \"#utility.yul\":15021:15040   */\n      add\n        /* \"#utility.yul\":15015:15041   */\n      mload\n        /* \"#utility.yul\":15006:15041   */\n      swap1\n      pop\n        /* \"#utility.yul\":14978:15055   */\n    tag_288:\n        /* \"#utility.yul\":15081:15148   */\n      tag_289\n        /* \"#utility.yul\":15141:15147   */\n      dup6\n        /* \"#utility.yul\":15134:15139   */\n      dup3\n        /* \"#utility.yul\":15081:15148   */\n      tag_128\n      jump\t// in\n    tag_289:\n        /* \"#utility.yul\":15075:15079   */\n      dup7\n        /* \"#utility.yul\":15068:15149   */\n      sstore\n        /* \"#utility.yul\":14937:15159   */\n      pop\n        /* \"#utility.yul\":14272:15159   */\n      jump(tag_286)\n        /* \"#utility.yul\":14302:14920   */\n    tag_287:\n        /* \"#utility.yul\":14354:14358   */\n      0x1f\n        /* \"#utility.yul\":14350:14359   */\n      not\n        /* \"#utility.yul\":14342:14348   */\n      dup5\n        /* \"#utility.yul\":14338:14360   */\n      and\n        /* \"#utility.yul\":14388:14425   */\n      tag_290\n        /* \"#utility.yul\":14420:14424   */\n      dup7\n        /* \"#utility.yul\":14388:14425   */\n      tag_114\n      jump\t// in\n    tag_290:\n        /* \"#utility.yul\":14447:14448   */\n      0x00\n        /* \"#utility.yul\":14461:14669   */\n    tag_291:\n        /* \"#utility.yul\":14475:14482   */\n      dup3\n        /* \"#utility.yul\":14472:14473   */\n      dup2\n        /* \"#utility.yul\":14469:14483   */\n      lt\n        /* \"#utility.yul\":14461:14669   */\n      iszero\n      tag_293\n      jumpi\n        /* \"#utility.yul\":14554:14563   */\n      dup5\n        /* \"#utility.yul\":14549:14552   */\n      dup10\n        /* \"#utility.yul\":14545:14564   */\n      add\n        /* \"#utility.yul\":14539:14565   */\n      mload\n        /* \"#utility.yul\":14531:14537   */\n      dup3\n        /* \"#utility.yul\":14524:14566   */\n      sstore\n        /* \"#utility.yul\":14605:14606   */\n      0x01\n        /* \"#utility.yul\":14597:14603   */\n      dup3\n        /* \"#utility.yul\":14593:14607   */\n      add\n        /* \"#utility.yul\":14583:14607   */\n      swap2\n      pop\n        /* \"#utility.yul\":14652:14654   */\n      0x20\n        /* \"#utility.yul\":14641:14650   */\n      dup6\n        /* \"#utility.yul\":14637:14655   */\n      add\n        /* \"#utility.yul\":14624:14655   */\n      swap5\n      pop\n        /* \"#utility.yul\":14498:14502   */\n      0x20\n        /* \"#utility.yul\":14495:14496   */\n      dup2\n        /* \"#utility.yul\":14491:14503   */\n      add\n        /* \"#utility.yul\":14486:14503   */\n      swap1\n      pop\n        /* \"#utility.yul\":14461:14669   */\n      jump(tag_291)\n    tag_293:\n        /* \"#utility.yul\":14697:14703   */\n      dup7\n        /* \"#utility.yul\":14688:14695   */\n      dup4\n        /* \"#utility.yul\":14685:14704   */\n      lt\n        /* \"#utility.yul\":14682:14861   */\n      iszero\n      tag_294\n      jumpi\n        /* \"#utility.yul\":14755:14764   */\n      dup5\n        /* \"#utility.yul\":14750:14753   */\n      dup10\n        /* \"#utility.yul\":14746:14765   */\n      add\n        /* \"#utility.yul\":14740:14766   */\n      mload\n        /* \"#utility.yul\":14798:14846   */\n      tag_295\n        /* \"#utility.yul\":14840:14844   */\n      0x1f\n        /* \"#utility.yul\":14832:14838   */\n      dup10\n        /* \"#utility.yul\":14828:14845   */\n      and\n        /* \"#utility.yul\":14817:14826   */\n      dup3\n        /* \"#utility.yul\":14798:14846   */\n      tag_127\n      jump\t// in\n    tag_295:\n        /* \"#utility.yul\":14790:14796   */\n      dup4\n        /* \"#utility.yul\":14783:14847   */\n      sstore\n        /* \"#utility.yul\":14705:14861   */\n      pop\n        /* \"#utility.yul\":14682:14861   */\n    tag_294:\n        /* \"#utility.yul\":14907:14908   */\n      0x01\n        /* \"#utility.yul\":14903:14904   */\n      0x02\n        /* \"#utility.yul\":14895:14901   */\n      dup9\n        /* \"#utility.yul\":14891:14905   */\n      mul\n        /* \"#utility.yul\":14887:14909   */\n      add\n        /* \"#utility.yul\":14881:14885   */\n      dup9\n        /* \"#utility.yul\":14874:14910   */\n      sstore\n        /* \"#utility.yul\":14309:14920   */\n      pop\n      pop\n      pop\n        /* \"#utility.yul\":14272:15159   */\n    tag_286:\n      pop\n        /* \"#utility.yul\":13862:15165   */\n      pop\n      pop\n      pop\n        /* \"#utility.yul\":13770:15165   */\n      pop\n      pop\n      jump\t// out\n        /* \"#utility.yul\":15171:15351   */\n    tag_129:\n        /* \"#utility.yul\":15219:15296   */\n      0x4e487b7100000000000000000000000000000000000000000000000000000000\n        /* \"#utility.yul\":15216:15217   */\n      0x00\n        /* \"#utility.yul\":15209:15297   */\n      mstore\n        /* \"#utility.yul\":15316:15320   */\n      0x11\n        /* \"#utility.yul\":15313:15314   */\n      0x04\n        /* \"#utility.yul\":15306:15321   */\n      mstore\n        /* \"#utility.yul\":15340:15344   */\n      0x24\n        /* \"#utility.yul\":15337:15338   */\n      0x00\n        /* \"#utility.yul\":15330:15345   */\n      revert\n        /* \"#utility.yul\":15357:15443   */\n    tag_130:\n        /* \"#utility.yul\":15392:15399   */\n      0x00\n        /* \"#utility.yul\":15432:15436   */\n      0xff\n        /* \"#utility.yul\":15425:15430   */\n      dup3\n        /* \"#utility.yul\":15421:15437   */\n      and\n        /* \"#utility.yul\":15410:15437   */\n      swap1\n      pop\n        /* \"#utility.yul\":15357:15443   */\n      swap2\n      swap1\n      pop\n      jump\t// out\n        /* \"#utility.yul\":15449:15616   */\n    tag_80:\n        /* \"#utility.yul\":15486:15489   */\n      0x00\n        /* \"#utility.yul\":15509:15531   */\n      tag_299\n        /* \"#utility.yul\":15525:15530   */\n      dup3\n        /* \"#utility.yul\":15509:15531   */\n      tag_130\n      jump\t// in\n    tag_299:\n        /* \"#utility.yul\":15500:15531   */\n      swap2\n      pop\n        /* \"#utility.yul\":15553:15557   */\n      0xff\n        /* \"#utility.yul\":15546:15551   */\n      dup3\n        /* \"#utility.yul\":15543:15558   */\n      sub\n        /* \"#utility.yul\":15540:15581   */\n      tag_300\n      jumpi\n        /* \"#utility.yul\":15561:15579   */\n      tag_301\n      tag_129\n      jump\t// in\n    tag_301:\n        /* \"#utility.yul\":15540:15581   */\n    tag_300:\n        /* \"#utility.yul\":15608:15609   */\n      0x01\n        /* \"#utility.yul\":15601:15606   */\n      dup3\n        /* \"#utility.yul\":15597:15610   */\n      add\n        /* \"#utility.yul\":15590:15610   */\n      swap1\n      pop\n        /* \"#utility.yul\":15449:15616   */\n      swap2\n      swap1\n      pop\n      jump\t// out\n\n    auxdata: 0xa26469706673582212200962c8f6eb29d28b8f634eac5c77f03b5147e644e4daa4ad93bd2c7a16dd31ae64736f6c634300081e0033\n}\n",
				"bytecode": {
					"linkReferences": {},
					"object": "60806040526040518060a00160405280600160ff168152602001600260ff168152602001600360ff168152602001600460ff168152602001600560ff168152505f90600561004e92919061012b565b5060405180606001604052806040518060400160405280600381526020017f617364000000000000000000000000000000000000000000000000000000000081525081526020016040518060400160405280600381526020017f313233000000000000000000000000000000000000000000000000000000000081525081526020016040518060400160405280600381526020017f7177650000000000000000000000000000000000000000000000000000000000815250815250600190600361011992919061017b565b50348015610125575f5ffd5b50610559565b828054828255905f5260205f2090810192821561016a579160200282015b82811115610169578251829060ff16905591602001919060010190610149565b5b50905061017791906101d2565b5090565b828054828255905f5260205f209081019282156101c1579160200282015b828111156101c05782518290816101b0919061048a565b5091602001919060010190610199565b5b5090506101ce91906101ed565b5090565b5b808211156101e9575f815f9055506001016101d3565b5090565b5b8082111561020c575f81816102039190610210565b506001016101ee565b5090565b50805461021c906102b1565b5f825580601f1061022d575061024a565b601f0160209004905f5260205f209081019061024991906101d2565b5b50565b5f81519050919050565b7f4e487b71000000000000000000000000000000000000000000000000000000005f52604160045260245ffd5b7f4e487b71000000000000000000000000000000000000000000000000000000005f52602260045260245ffd5b5f60028204905060018216806102c857607f821691505b6020821081036102db576102da610284565b5b50919050565b5f819050815f5260205f209050919050565b5f6020601f8301049050919050565b5f82821b905092915050565b5f6008830261033d7fffffffffffffffffffffffffffffffffffffffffffffffffffffffffffffffff82610302565b6103478683610302565b95508019841693508086168417925050509392505050565b5f819050919050565b5f819050919050565b5f61038b6103866103818461035f565b610368565b61035f565b9050919050565b5f819050919050565b6103a483610371565b6103b86103b082610392565b84845461030e565b825550505050565b5f5f905090565b6103cf6103c0565b6103da81848461039b565b505050565b5b818110156103fd576103f25f826103c7565b6001810190506103e0565b5050565b601f82111561044257610413816102e1565b61041c846102f3565b8101602085101561042b578190505b61043f610437856102f3565b8301826103df565b50505b505050565b5f82821c905092915050565b5f6104625f1984600802610447565b1980831691505092915050565b5f61047a8383610453565b9150826002028217905092915050565b6104938261024d565b67ffffffffffffffff8111156104ac576104ab610257565b5b6104b682546102b1565b6104c1828285610401565b5f60209050601f8311600181146104f2575f84156104e0578287015190505b6104ea858261046f565b865550610551565b601f198416610500866102e1565b5f5b8281101561052757848901518255600182019150602085019450602081019050610502565b868310156105445784890151610540601f891682610453565b8355505b6001600288020188555050505b505050505050565b610cc0806105665f395ff3fe608060405234801561000f575f5ffd5b5060043610610060575f3560e01c80631003e2d2146100645780636d4ce63c1461008057806371e5ee5f1461009e57806390a339d4146100ce578063edf0099b146100ea578063f982c2cd1461011a575b5f5ffd5b61007e600480360381019061007991906104ac565b610136565b005b61008861015e565b6040516100959190610602565b60405180910390f35b6100b860048036038101906100b391906104ac565b610232565b6040516100c59190610631565b60405180910390f35b6100e860048036038101906100e3919061078a565b610251565b005b61010460048036038101906100ff91906104ac565b6102af565b6040516101119190610819565b60405180910390f35b610134600480360381019061012f91906108e9565b610355565b005b5f81908060018154018082558091505060019003905f5260205f20015f909190919091505550565b60606001805480602002602001604051908101604052809291908181526020015f905b82821015610229578382905f5260205f2001805461019e9061095d565b80601f01602080910402602001604051908101604052809291908181526020018280546101ca9061095d565b80156102155780601f106101ec57610100808354040283529160200191610215565b820191905f5260205f20905b8154815290600101906020018083116101f857829003601f168201915b505050505081526020019060010190610181565b50505050905090565b5f8181548110610240575f80fd5b905f5260205f20015f915090505481565b5f5f90505b81518110156102ab575f8282815181106102735761027261098d565b5b6020026020010151908060018154018082558091505060019003905f5260205f20015f90919091909150558080600101915050610256565b5050565b600181815481106102be575f80fd5b905f5260205f20015f9150905080546102d69061095d565b80601f01602080910402602001604051908101604052809291908181526020018280546103029061095d565b801561034d5780601f106103245761010080835404028352916020019161034d565b820191905f5260205f20905b81548152906001019060200180831161033057829003601f168201915b505050505081565b5f8190505f600167ffffffffffffffff8111156103755761037461064e565b5b6040519080825280601f01601f1916602001820160405280156103a75781602001600182028036833780820191505090505b5090505f5f90505b82518160ff16101561046257828160ff16815181106103d1576103d061098d565b5b602001015160f81c60f81b825f815181106103ef576103ee61098d565b5b60200101907effffffffffffffffffffffffffffffffffffffffffffffffffffffffffffff191690815f1a905350600182908060018154018082558091505060019003905f5260205f20015f90919091909150908161044e9190610b5a565b50808061045a90610c62565b9150506103af565b50505050565b5f604051905090565b5f5ffd5b5f5ffd5b5f819050919050565b61048b81610479565b8114610495575f5ffd5b50565b5f813590506104a681610482565b92915050565b5f602082840312156104c1576104c0610471565b5b5f6104ce84828501610498565b91505092915050565b5f81519050919050565b5f82825260208201905092915050565b5f819050602082019050919050565b5f81519050919050565b5f82825260208201905092915050565b8281835e5f83830152505050565b5f601f19601f8301169050919050565b5f61054282610500565b61054c818561050a565b935061055c81856020860161051a565b61056581610528565b840191505092915050565b5f61057b8383610538565b905092915050565b5f602082019050919050565b5f610599826104d7565b6105a381856104e1565b9350836020820285016105b5856104f1565b805f5b858110156105f057848403895281516105d18582610570565b94506105dc83610583565b925060208a019950506001810190506105b8565b50829750879550505050505092915050565b5f6020820190508181035f83015261061a818461058f565b905092915050565b61062b81610479565b82525050565b5f6020820190506106445f830184610622565b92915050565b5f5ffd5b7f4e487b71000000000000000000000000000000000000000000000000000000005f52604160045260245ffd5b61068482610528565b810181811067ffffffffffffffff821117156106a3576106a261064e565b5b80604052505050565b5f6106b5610468565b90506106c1828261067b565b919050565b5f67ffffffffffffffff8211156106e0576106df61064e565b5b602082029050602081019050919050565b5f5ffd5b5f610707610702846106c6565b6106ac565b9050808382526020820190506020840283018581111561072a576107296106f1565b5b835b81811015610753578061073f8882610498565b84526020840193505060208101905061072c565b5050509392505050565b5f82601f8301126107715761077061064a565b5b81356107818482602086016106f5565b91505092915050565b5f6020828403121561079f5761079e610471565b5b5f82013567ffffffffffffffff8111156107bc576107bb610475565b5b6107c88482850161075d565b91505092915050565b5f82825260208201905092915050565b5f6107eb82610500565b6107f581856107d1565b935061080581856020860161051a565b61080e81610528565b840191505092915050565b5f6020820190508181035f83015261083181846107e1565b905092915050565b5f5ffd5b5f67ffffffffffffffff8211156108575761085661064e565b5b61086082610528565b9050602081019050919050565b828183375f83830152505050565b5f61088d6108888461083d565b6106ac565b9050828152602081018484840111156108a9576108a8610839565b5b6108b484828561086d565b509392505050565b5f82601f8301126108d0576108cf61064a565b5b81356108e084826020860161087b565b91505092915050565b5f602082840312156108fe576108fd610471565b5b5f82013567ffffffffffffffff81111561091b5761091a610475565b5b610927848285016108bc565b91505092915050565b7f4e487b71000000000000000000000000000000000000000000000000000000005f52602260045260245ffd5b5f600282049050600182168061097457607f821691505b60208210810361098757610986610930565b5b50919050565b7f4e487b71000000000000000000000000000000000000000000000000000000005f52603260045260245ffd5b5f819050815f5260205f209050919050565b5f6020601f8301049050919050565b5f82821b905092915050565b5f60088302610a167fffffffffffffffffffffffffffffffffffffffffffffffffffffffffffffffff826109db565b610a2086836109db565b95508019841693508086168417925050509392505050565b5f819050919050565b5f610a5b610a56610a5184610479565b610a38565b610479565b9050919050565b5f819050919050565b610a7483610a41565b610a88610a8082610a62565b8484546109e7565b825550505050565b5f5f905090565b610a9f610a90565b610aaa818484610a6b565b505050565b5b81811015610acd57610ac25f82610a97565b600181019050610ab0565b5050565b601f821115610b1257610ae3816109ba565b610aec846109cc565b81016020851015610afb578190505b610b0f610b07856109cc565b830182610aaf565b50505b505050565b5f82821c905092915050565b5f610b325f1984600802610b17565b1980831691505092915050565b5f610b4a8383610b23565b9150826002028217905092915050565b610b6382610500565b67ffffffffffffffff811115610b7c57610b7b61064e565b5b610b86825461095d565b610b91828285610ad1565b5f60209050601f831160018114610bc2575f8415610bb0578287015190505b610bba8582610b3f565b865550610c21565b601f198416610bd0866109ba565b5f5b82811015610bf757848901518255600182019150602085019450602081019050610bd2565b86831015610c145784890151610c10601f891682610b23565b8355505b6001600288020188555050505b505050505050565b7f4e487b71000000000000000000000000000000000000000000000000000000005f52601160045260245ffd5b5f60ff82169050919050565b5f610c6c82610c56565b915060ff8203610c7f57610c7e610c29565b5b60018201905091905056fea26469706673582212200962c8f6eb29d28b8f634eac5c77f03b5147e644e4daa4ad93bd2c7a16dd31ae64736f6c634300081e0033",
					"opcodes": "PUSH1 0x80 PUSH1 0x40 MSTORE PUSH1 0x40 MLOAD DUP1 PUSH1 0xA0 ADD PUSH1 0x40 MSTORE DUP1 PUSH1 0x1 PUSH1 0xFF AND DUP2 MSTORE PUSH1 0x20 ADD PUSH1 0x2 PUSH1 0xFF AND DUP2 MSTORE PUSH1 0x20 ADD PUSH1 0x3 PUSH1 0xFF AND DUP2 MSTORE PUSH1 0x20 ADD PUSH1 0x4 PUSH1 0xFF AND DUP2 MSTORE PUSH1 0x20 ADD PUSH1 0x5 PUSH1 0xFF AND DUP2 MSTORE POP PUSH0 SWAP1 PUSH1 0x5 PUSH2 0x4E SWAP3 SWAP2 SWAP1 PUSH2 0x12B JUMP JUMPDEST POP PUSH1 0x40 MLOAD DUP1 PUSH1 0x60 ADD PUSH1 0x40 MSTORE DUP1 PUSH1 0x40 MLOAD DUP1 PUSH1 0x40 ADD PUSH1 0x40 MSTORE DUP1 PUSH1 0x3 DUP2 MSTORE PUSH1 0x20 ADD PUSH32 0x6173640000000000000000000000000000000000000000000000000000000000 DUP2 MSTORE POP DUP2 MSTORE PUSH1 0x20 ADD PUSH1 0x40 MLOAD DUP1 PUSH1 0x40 ADD PUSH1 0x40 MSTORE DUP1 PUSH1 0x3 DUP2 MSTORE PUSH1 0x20 ADD PUSH32 0x3132330000000000000000000000000000000000000000000000000000000000 DUP2 MSTORE POP DUP2 MSTORE PUSH1 0x20 ADD PUSH1 0x40 MLOAD DUP1 PUSH1 0x40 ADD PUSH1 0x40 MSTORE DUP1 PUSH1 0x3 DUP2 MSTORE PUSH1 0x20 ADD PUSH32 0x7177650000000000000000000000000000000000000000000000000000000000 DUP2 MSTORE POP DUP2 MSTORE POP PUSH1 0x1 SWAP1 PUSH1 0x3 PUSH2 0x119 SWAP3 SWAP2 SWAP1 PUSH2 0x17B JUMP JUMPDEST POP CALLVALUE DUP1 ISZERO PUSH2 0x125 JUMPI PUSH0 PUSH0 REVERT JUMPDEST POP PUSH2 0x559 JUMP JUMPDEST DUP3 DUP1 SLOAD DUP3 DUP3 SSTORE SWAP1 PUSH0 MSTORE PUSH1 0x20 PUSH0 KECCAK256 SWAP1 DUP2 ADD SWAP3 DUP3 ISZERO PUSH2 0x16A JUMPI SWAP2 PUSH1 0x20 MUL DUP3 ADD JUMPDEST DUP3 DUP2 GT ISZERO PUSH2 0x169 JUMPI DUP3 MLOAD DUP3 SWAP1 PUSH1 0xFF AND SWAP1 SSTORE SWAP2 PUSH1 0x20 ADD SWAP2 SWAP1 PUSH1 0x1 ADD SWAP1 PUSH2 0x149 JUMP JUMPDEST JUMPDEST POP SWAP1 POP PUSH2 0x177 SWAP2 SWAP1 PUSH2 0x1D2 JUMP JUMPDEST POP SWAP1 JUMP JUMPDEST DUP3 DUP1 SLOAD DUP3 DUP3 SSTORE SWAP1 PUSH0 MSTORE PUSH1 0x20 PUSH0 KECCAK256 SWAP1 DUP2 ADD SWAP3 DUP3 ISZERO PUSH2 0x1C1 JUMPI SWAP2 PUSH1 0x20 MUL DUP3 ADD JUMPDEST DUP3 DUP2 GT ISZERO PUSH2 0x1C0 JUMPI DUP3 MLOAD DUP3 SWAP1 DUP2 PUSH2 0x1B0 SWAP2 SWAP1 PUSH2 0x48A JUMP JUMPDEST POP SWAP2 PUSH1 0x20 ADD SWAP2 SWAP1 PUSH1 0x1 ADD SWAP1 PUSH2 0x199 JUMP JUMPDEST JUMPDEST POP SWAP1 POP PUSH2 0x1CE SWAP2 SWAP1 PUSH2 0x1ED JUMP JUMPDEST POP SWAP1 JUMP JUMPDEST JUMPDEST DUP1 DUP3 GT ISZERO PUSH2 0x1E9 JUMPI PUSH0 DUP2 PUSH0 SWAP1 SSTORE POP PUSH1 0x1 ADD PUSH2 0x1D3 JUMP JUMPDEST POP SWAP1 JUMP JUMPDEST JUMPDEST DUP1 DUP3 GT ISZERO PUSH2 0x20C JUMPI PUSH0 DUP2 DUP2 PUSH2 0x203 SWAP2 SWAP1 PUSH2 0x210 JUMP JUMPDEST POP PUSH1 0x1 ADD PUSH2 0x1EE JUMP JUMPDEST POP SWAP1 JUMP JUMPDEST POP DUP1 SLOAD PUSH2 0x21C SWAP1 PUSH2 0x2B1 JUMP JUMPDEST PUSH0 DUP3 SSTORE DUP1 PUSH1 0x1F LT PUSH2 0x22D JUMPI POP PUSH2 0x24A JUMP JUMPDEST PUSH1 0x1F ADD PUSH1 0x20 SWAP1 DIV SWAP1 PUSH0 MSTORE PUSH1 0x20 PUSH0 KECCAK256 SWAP1 DUP2 ADD SWAP1 PUSH2 0x249 SWAP2 SWAP1 PUSH2 0x1D2 JUMP JUMPDEST JUMPDEST POP JUMP JUMPDEST PUSH0 DUP2 MLOAD SWAP1 POP SWAP2 SWAP1 POP JUMP JUMPDEST PUSH32 0x4E487B7100000000000000000000000000000000000000000000000000000000 PUSH0 MSTORE PUSH1 0x41 PUSH1 0x4 MSTORE PUSH1 0x24 PUSH0 REVERT JUMPDEST PUSH32 0x4E487B7100000000000000000000000000000000000000000000000000000000 PUSH0 MSTORE PUSH1 0x22 PUSH1 0x4 MSTORE PUSH1 0x24 PUSH0 REVERT JUMPDEST PUSH0 PUSH1 0x2 DUP3 DIV SWAP1 POP PUSH1 0x1 DUP3 AND DUP1 PUSH2 0x2C8 JUMPI PUSH1 0x7F DUP3 AND SWAP2 POP JUMPDEST PUSH1 0x20 DUP3 LT DUP2 SUB PUSH2 0x2DB JUMPI PUSH2 0x2DA PUSH2 0x284 JUMP JUMPDEST JUMPDEST POP SWAP2 SWAP1 POP JUMP JUMPDEST PUSH0 DUP2 SWAP1 POP DUP2 PUSH0 MSTORE PUSH1 0x20 PUSH0 KECCAK256 SWAP1 POP SWAP2 SWAP1 POP JUMP JUMPDEST PUSH0 PUSH1 0x20 PUSH1 0x1F DUP4 ADD DIV SWAP1 POP SWAP2 SWAP1 POP JUMP JUMPDEST PUSH0 DUP3 DUP3 SHL SWAP1 POP SWAP3 SWAP2 POP POP JUMP JUMPDEST PUSH0 PUSH1 0x8 DUP4 MUL PUSH2 0x33D PUSH32 0xFFFFFFFFFFFFFFFFFFFFFFFFFFFFFFFFFFFFFFFFFFFFFFFFFFFFFFFFFFFFFFFF DUP3 PUSH2 0x302 JUMP JUMPDEST PUSH2 0x347 DUP7 DUP4 PUSH2 0x302 JUMP JUMPDEST SWAP6 POP DUP1 NOT DUP5 AND SWAP4 POP DUP1 DUP7 AND DUP5 OR SWAP3 POP POP POP SWAP4 SWAP3 POP POP POP JUMP JUMPDEST PUSH0 DUP2 SWAP1 POP SWAP2 SWAP1 POP JUMP JUMPDEST PUSH0 DUP2 SWAP1 POP SWAP2 SWAP1 POP JUMP JUMPDEST PUSH0 PUSH2 0x38B PUSH2 0x386 PUSH2 0x381 DUP5 PUSH2 0x35F JUMP JUMPDEST PUSH2 0x368 JUMP JUMPDEST PUSH2 0x35F JUMP JUMPDEST SWAP1 POP SWAP2 SWAP1 POP JUMP JUMPDEST PUSH0 DUP2 SWAP1 POP SWAP2 SWAP1 POP JUMP JUMPDEST PUSH2 0x3A4 DUP4 PUSH2 0x371 JUMP JUMPDEST PUSH2 0x3B8 PUSH2 0x3B0 DUP3 PUSH2 0x392 JUMP JUMPDEST DUP5 DUP5 SLOAD PUSH2 0x30E JUMP JUMPDEST DUP3 SSTORE POP POP POP POP JUMP JUMPDEST PUSH0 PUSH0 SWAP1 POP SWAP1 JUMP JUMPDEST PUSH2 0x3CF PUSH2 0x3C0 JUMP JUMPDEST PUSH2 0x3DA DUP2 DUP5 DUP5 PUSH2 0x39B JUMP JUMPDEST POP POP POP JUMP JUMPDEST JUMPDEST DUP2 DUP2 LT ISZERO PUSH2 0x3FD JUMPI PUSH2 0x3F2 PUSH0 DUP3 PUSH2 0x3C7 JUMP JUMPDEST PUSH1 0x1 DUP2 ADD SWAP1 POP PUSH2 0x3E0 JUMP JUMPDEST POP POP JUMP JUMPDEST PUSH1 0x1F DUP3 GT ISZERO PUSH2 0x442 JUMPI PUSH2 0x413 DUP2 PUSH2 0x2E1 JUMP JUMPDEST PUSH2 0x41C DUP5 PUSH2 0x2F3 JUMP JUMPDEST DUP2 ADD PUSH1 0x20 DUP6 LT ISZERO PUSH2 0x42B JUMPI DUP2 SWAP1 POP JUMPDEST PUSH2 0x43F PUSH2 0x437 DUP6 PUSH2 0x2F3 JUMP JUMPDEST DUP4 ADD DUP3 PUSH2 0x3DF JUMP JUMPDEST POP POP JUMPDEST POP POP POP JUMP JUMPDEST PUSH0 DUP3 DUP3 SHR SWAP1 POP SWAP3 SWAP2 POP POP JUMP JUMPDEST PUSH0 PUSH2 0x462 PUSH0 NOT DUP5 PUSH1 0x8 MUL PUSH2 0x447 JUMP JUMPDEST NOT DUP1 DUP4 AND SWAP2 POP POP SWAP3 SWAP2 POP POP JUMP JUMPDEST PUSH0 PUSH2 0x47A DUP4 DUP4 PUSH2 0x453 JUMP JUMPDEST SWAP2 POP DUP3 PUSH1 0x2 MUL DUP3 OR SWAP1 POP SWAP3 SWAP2 POP POP JUMP JUMPDEST PUSH2 0x493 DUP3 PUSH2 0x24D JUMP JUMPDEST PUSH8 0xFFFFFFFFFFFFFFFF DUP2 GT ISZERO PUSH2 0x4AC JUMPI PUSH2 0x4AB PUSH2 0x257 JUMP JUMPDEST JUMPDEST PUSH2 0x4B6 DUP3 SLOAD PUSH2 0x2B1 JUMP JUMPDEST PUSH2 0x4C1 DUP3 DUP3 DUP6 PUSH2 0x401 JUMP JUMPDEST PUSH0 PUSH1 0x20 SWAP1 POP PUSH1 0x1F DUP4 GT PUSH1 0x1 DUP2 EQ PUSH2 0x4F2 JUMPI PUSH0 DUP5 ISZERO PUSH2 0x4E0 JUMPI DUP3 DUP8 ADD MLOAD SWAP1 POP JUMPDEST PUSH2 0x4EA DUP6 DUP3 PUSH2 0x46F JUMP JUMPDEST DUP7 SSTORE POP PUSH2 0x551 JUMP JUMPDEST PUSH1 0x1F NOT DUP5 AND PUSH2 0x500 DUP7 PUSH2 0x2E1 JUMP JUMPDEST PUSH0 JUMPDEST DUP3 DUP2 LT ISZERO PUSH2 0x527 JUMPI DUP5 DUP10 ADD MLOAD DUP3 SSTORE PUSH1 0x1 DUP3 ADD SWAP2 POP PUSH1 0x20 DUP6 ADD SWAP5 POP PUSH1 0x20 DUP2 ADD SWAP1 POP PUSH2 0x502 JUMP JUMPDEST DUP7 DUP4 LT ISZERO PUSH2 0x544 JUMPI DUP5 DUP10 ADD MLOAD PUSH2 0x540 PUSH1 0x1F DUP10 AND DUP3 PUSH2 0x453 JUMP JUMPDEST DUP4 SSTORE POP JUMPDEST PUSH1 0x1 PUSH1 0x2 DUP9 MUL ADD DUP9 SSTORE POP POP POP JUMPDEST POP POP POP POP POP POP JUMP JUMPDEST PUSH2 0xCC0 DUP1 PUSH2 0x566 PUSH0 CODECOPY PUSH0 RETURN INVALID PUSH1 0x80 PUSH1 0x40 MSTORE CALLVALUE DUP1 ISZERO PUSH2 0xF JUMPI PUSH0 PUSH0 REVERT JUMPDEST POP PUSH1 0x4 CALLDATASIZE LT PUSH2 0x60 JUMPI PUSH0 CALLDATALOAD PUSH1 0xE0 SHR DUP1 PUSH4 0x1003E2D2 EQ PUSH2 0x64 JUMPI DUP1 PUSH4 0x6D4CE63C EQ PUSH2 0x80 JUMPI DUP1 PUSH4 0x71E5EE5F EQ PUSH2 0x9E JUMPI DUP1 PUSH4 0x90A339D4 EQ PUSH2 0xCE JUMPI DUP1 PUSH4 0xEDF0099B EQ PUSH2 0xEA JUMPI DUP1 PUSH4 0xF982C2CD EQ PUSH2 0x11A JUMPI JUMPDEST PUSH0 PUSH0 REVERT JUMPDEST PUSH2 0x7E PUSH1 0x4 DUP1 CALLDATASIZE SUB DUP2 ADD SWAP1 PUSH2 0x79 SWAP2 SWAP1 PUSH2 0x4AC JUMP JUMPDEST PUSH2 0x136 JUMP JUMPDEST STOP JUMPDEST PUSH2 0x88 PUSH2 0x15E JUMP JUMPDEST PUSH1 0x40 MLOAD PUSH2 0x95 SWAP2 SWAP1 PUSH2 0x602 JUMP JUMPDEST PUSH1 0x40 MLOAD DUP1 SWAP2 SUB SWAP1 RETURN JUMPDEST PUSH2 0xB8 PUSH1 0x4 DUP1 CALLDATASIZE SUB DUP2 ADD SWAP1 PUSH2 0xB3 SWAP2 SWAP1 PUSH2 0x4AC JUMP JUMPDEST PUSH2 0x232 JUMP JUMPDEST PUSH1 0x40 MLOAD PUSH2 0xC5 SWAP2 SWAP1 PUSH2 0x631 JUMP JUMPDEST PUSH1 0x40 MLOAD DUP1 SWAP2 SUB SWAP1 RETURN JUMPDEST PUSH2 0xE8 PUSH1 0x4 DUP1 CALLDATASIZE SUB DUP2 ADD SWAP1 PUSH2 0xE3 SWAP2 SWAP1 PUSH2 0x78A JUMP JUMPDEST PUSH2 0x251 JUMP JUMPDEST STOP JUMPDEST PUSH2 0x104 PUSH1 0x4 DUP1 CALLDATASIZE SUB DUP2 ADD SWAP1 PUSH2 0xFF SWAP2 SWAP1 PUSH2 0x4AC JUMP JUMPDEST PUSH2 0x2AF JUMP JUMPDEST PUSH1 0x40 MLOAD PUSH2 0x111 SWAP2 SWAP1 PUSH2 0x819 JUMP JUMPDEST PUSH1 0x40 MLOAD DUP1 SWAP2 SUB SWAP1 RETURN JUMPDEST PUSH2 0x134 PUSH1 0x4 DUP1 CALLDATASIZE SUB DUP2 ADD SWAP1 PUSH2 0x12F SWAP2 SWAP1 PUSH2 0x8E9 JUMP JUMPDEST PUSH2 0x355 JUMP JUMPDEST STOP JUMPDEST PUSH0 DUP2 SWAP1 DUP1 PUSH1 0x1 DUP2 SLOAD ADD DUP1 DUP3 SSTORE DUP1 SWAP2 POP POP PUSH1 0x1 SWAP1 SUB SWAP1 PUSH0 MSTORE PUSH1 0x20 PUSH0 KECCAK256 ADD PUSH0 SWAP1 SWAP2 SWAP1 SWAP2 SWAP1 SWAP2 POP SSTORE POP JUMP JUMPDEST PUSH1 0x60 PUSH1 0x1 DUP1 SLOAD DUP1 PUSH1 0x20 MUL PUSH1 0x20 ADD PUSH1 0x40 MLOAD SWAP1 DUP2 ADD PUSH1 0x40 MSTORE DUP1 SWAP3 SWAP2 SWAP1 DUP2 DUP2 MSTORE PUSH1 0x20 ADD PUSH0 SWAP1 JUMPDEST DUP3 DUP3 LT ISZERO PUSH2 0x229 JUMPI DUP4 DUP3 SWAP1 PUSH0 MSTORE PUSH1 0x20 PUSH0 KECCAK256 ADD DUP1 SLOAD PUSH2 0x19E SWAP1 PUSH2 0x95D JUMP JUMPDEST DUP1 PUSH1 0x1F ADD PUSH1 0x20 DUP1 SWAP2 DIV MUL PUSH1 0x20 ADD PUSH1 0x40 MLOAD SWAP1 DUP2 ADD PUSH1 0x40 MSTORE DUP1 SWAP3 SWAP2 SWAP1 DUP2 DUP2 MSTORE PUSH1 0x20 ADD DUP3 DUP1 SLOAD PUSH2 0x1CA SWAP1 PUSH2 0x95D JUMP JUMPDEST DUP1 ISZERO PUSH2 0x215 JUMPI DUP1 PUSH1 0x1F LT PUSH2 0x1EC JUMPI PUSH2 0x100 DUP1 DUP4 SLOAD DIV MUL DUP4 MSTORE SWAP2 PUSH1 0x20 ADD SWAP2 PUSH2 0x215 JUMP JUMPDEST DUP3 ADD SWAP2 SWAP1 PUSH0 MSTORE PUSH1 0x20 PUSH0 KECCAK256 SWAP1 JUMPDEST DUP2 SLOAD DUP2 MSTORE SWAP1 PUSH1 0x1 ADD SWAP1 PUSH1 0x20 ADD DUP1 DUP4 GT PUSH2 0x1F8 JUMPI DUP3 SWAP1 SUB PUSH1 0x1F AND DUP3 ADD SWAP2 JUMPDEST POP POP POP POP POP DUP2 MSTORE PUSH1 0x20 ADD SWAP1 PUSH1 0x1 ADD SWAP1 PUSH2 0x181 JUMP JUMPDEST POP POP POP POP SWAP1 POP SWAP1 JUMP JUMPDEST PUSH0 DUP2 DUP2 SLOAD DUP2 LT PUSH2 0x240 JUMPI PUSH0 DUP1 REVERT JUMPDEST SWAP1 PUSH0 MSTORE PUSH1 0x20 PUSH0 KECCAK256 ADD PUSH0 SWAP2 POP SWAP1 POP SLOAD DUP2 JUMP JUMPDEST PUSH0 PUSH0 SWAP1 POP JUMPDEST DUP2 MLOAD DUP2 LT ISZERO PUSH2 0x2AB JUMPI PUSH0 DUP3 DUP3 DUP2 MLOAD DUP2 LT PUSH2 0x273 JUMPI PUSH2 0x272 PUSH2 0x98D JUMP JUMPDEST JUMPDEST PUSH1 0x20 MUL PUSH1 0x20 ADD ADD MLOAD SWAP1 DUP1 PUSH1 0x1 DUP2 SLOAD ADD DUP1 DUP3 SSTORE DUP1 SWAP2 POP POP PUSH1 0x1 SWAP1 SUB SWAP1 PUSH0 MSTORE PUSH1 0x20 PUSH0 KECCAK256 ADD PUSH0 SWAP1 SWAP2 SWAP1 SWAP2 SWAP1 SWAP2 POP SSTORE DUP1 DUP1 PUSH1 0x1 ADD SWAP2 POP POP PUSH2 0x256 JUMP JUMPDEST POP POP JUMP JUMPDEST PUSH1 0x1 DUP2 DUP2 SLOAD DUP2 LT PUSH2 0x2BE JUMPI PUSH0 DUP1 REVERT JUMPDEST SWAP1 PUSH0 MSTORE PUSH1 0x20 PUSH0 KECCAK256 ADD PUSH0 SWAP2 POP SWAP1 POP DUP1 SLOAD PUSH2 0x2D6 SWAP1 PUSH2 0x95D JUMP JUMPDEST DUP1 PUSH1 0x1F ADD PUSH1 0x20 DUP1 SWAP2 DIV MUL PUSH1 0x20 ADD PUSH1 0x40 MLOAD SWAP1 DUP2 ADD PUSH1 0x40 MSTORE DUP1 SWAP3 SWAP2 SWAP1 DUP2 DUP2 MSTORE PUSH1 0x20 ADD DUP3 DUP1 SLOAD PUSH2 0x302 SWAP1 PUSH2 0x95D JUMP JUMPDEST DUP1 ISZERO PUSH2 0x34D JUMPI DUP1 PUSH1 0x1F LT PUSH2 0x324 JUMPI PUSH2 0x100 DUP1 DUP4 SLOAD DIV MUL DUP4 MSTORE SWAP2 PUSH1 0x20 ADD SWAP2 PUSH2 0x34D JUMP JUMPDEST DUP3 ADD SWAP2 SWAP1 PUSH0 MSTORE PUSH1 0x20 PUSH0 KECCAK256 SWAP1 JUMPDEST DUP2 SLOAD DUP2 MSTORE SWAP1 PUSH1 0x1 ADD SWAP1 PUSH1 0x20 ADD DUP1 DUP4 GT PUSH2 0x330 JUMPI DUP3 SWAP1 SUB PUSH1 0x1F AND DUP3 ADD SWAP2 JUMPDEST POP POP POP POP POP DUP2 JUMP JUMPDEST PUSH0 DUP2 SWAP1 POP PUSH0 PUSH1 0x1 PUSH8 0xFFFFFFFFFFFFFFFF DUP2 GT ISZERO PUSH2 0x375 JUMPI PUSH2 0x374 PUSH2 0x64E JUMP JUMPDEST JUMPDEST PUSH1 0x40 MLOAD SWAP1 DUP1 DUP3 MSTORE DUP1 PUSH1 0x1F ADD PUSH1 0x1F NOT AND PUSH1 0x20 ADD DUP3 ADD PUSH1 0x40 MSTORE DUP1 ISZERO PUSH2 0x3A7 JUMPI DUP2 PUSH1 0x20 ADD PUSH1 0x1 DUP3 MUL DUP1 CALLDATASIZE DUP4 CALLDATACOPY DUP1 DUP3 ADD SWAP2 POP POP SWAP1 POP JUMPDEST POP SWAP1 POP PUSH0 PUSH0 SWAP1 POP JUMPDEST DUP3 MLOAD DUP2 PUSH1 0xFF AND LT ISZERO PUSH2 0x462 JUMPI DUP3 DUP2 PUSH1 0xFF AND DUP2 MLOAD DUP2 LT PUSH2 0x3D1 JUMPI PUSH2 0x3D0 PUSH2 0x98D JUMP JUMPDEST JUMPDEST PUSH1 0x20 ADD ADD MLOAD PUSH1 0xF8 SHR PUSH1 0xF8 SHL DUP3 PUSH0 DUP2 MLOAD DUP2 LT PUSH2 0x3EF JUMPI PUSH2 0x3EE PUSH2 0x98D JUMP JUMPDEST JUMPDEST PUSH1 0x20 ADD ADD SWAP1 PUSH31 0xFFFFFFFFFFFFFFFFFFFFFFFFFFFFFFFFFFFFFFFFFFFFFFFFFFFFFFFFFFFFFF NOT AND SWAP1 DUP2 PUSH0 BYTE SWAP1 MSTORE8 POP PUSH1 0x1 DUP3 SWAP1 DUP1 PUSH1 0x1 DUP2 SLOAD ADD DUP1 DUP3 SSTORE DUP1 SWAP2 POP POP PUSH1 0x1 SWAP1 SUB SWAP1 PUSH0 MSTORE PUSH1 0x20 PUSH0 KECCAK256 ADD PUSH0 SWAP1 SWAP2 SWAP1 SWAP2 SWAP1 SWAP2 POP SWAP1 DUP2 PUSH2 0x44E SWAP2 SWAP1 PUSH2 0xB5A JUMP JUMPDEST POP DUP1 DUP1 PUSH2 0x45A SWAP1 PUSH2 0xC62 JUMP JUMPDEST SWAP2 POP POP PUSH2 0x3AF JUMP JUMPDEST POP POP POP POP JUMP JUMPDEST PUSH0 PUSH1 0x40 MLOAD SWAP1 POP SWAP1 JUMP JUMPDEST PUSH0 PUSH0 REVERT JUMPDEST PUSH0 PUSH0 REVERT JUMPDEST PUSH0 DUP2 SWAP1 POP SWAP2 SWAP1 POP JUMP JUMPDEST PUSH2 0x48B DUP2 PUSH2 0x479 JUMP JUMPDEST DUP2 EQ PUSH2 0x495 JUMPI PUSH0 PUSH0 REVERT JUMPDEST POP JUMP JUMPDEST PUSH0 DUP2 CALLDATALOAD SWAP1 POP PUSH2 0x4A6 DUP2 PUSH2 0x482 JUMP JUMPDEST SWAP3 SWAP2 POP POP JUMP JUMPDEST PUSH0 PUSH1 0x20 DUP3 DUP5 SUB SLT ISZERO PUSH2 0x4C1 JUMPI PUSH2 0x4C0 PUSH2 0x471 JUMP JUMPDEST JUMPDEST PUSH0 PUSH2 0x4CE DUP5 DUP3 DUP6 ADD PUSH2 0x498 JUMP JUMPDEST SWAP2 POP POP SWAP3 SWAP2 POP POP JUMP JUMPDEST PUSH0 DUP2 MLOAD SWAP1 POP SWAP2 SWAP1 POP JUMP JUMPDEST PUSH0 DUP3 DUP3 MSTORE PUSH1 0x20 DUP3 ADD SWAP1 POP SWAP3 SWAP2 POP POP JUMP JUMPDEST PUSH0 DUP2 SWAP1 POP PUSH1 0x20 DUP3 ADD SWAP1 POP SWAP2 SWAP1 POP JUMP JUMPDEST PUSH0 DUP2 MLOAD SWAP1 POP SWAP2 SWAP1 POP JUMP JUMPDEST PUSH0 DUP3 DUP3 MSTORE PUSH1 0x20 DUP3 ADD SWAP1 POP SWAP3 SWAP2 POP POP JUMP JUMPDEST DUP3 DUP2 DUP4 MCOPY PUSH0 DUP4 DUP4 ADD MSTORE POP POP POP JUMP JUMPDEST PUSH0 PUSH1 0x1F NOT PUSH1 0x1F DUP4 ADD AND SWAP1 POP SWAP2 SWAP1 POP JUMP JUMPDEST PUSH0 PUSH2 0x542 DUP3 PUSH2 0x500 JUMP JUMPDEST PUSH2 0x54C DUP2 DUP6 PUSH2 0x50A JUMP JUMPDEST SWAP4 POP PUSH2 0x55C DUP2 DUP6 PUSH1 0x20 DUP7 ADD PUSH2 0x51A JUMP JUMPDEST PUSH2 0x565 DUP2 PUSH2 0x528 JUMP JUMPDEST DUP5 ADD SWAP2 POP POP SWAP3 SWAP2 POP POP JUMP JUMPDEST PUSH0 PUSH2 0x57B DUP4 DUP4 PUSH2 0x538 JUMP JUMPDEST SWAP1 POP SWAP3 SWAP2 POP POP JUMP JUMPDEST PUSH0 PUSH1 0x20 DUP3 ADD SWAP1 POP SWAP2 SWAP1 POP JUMP JUMPDEST PUSH0 PUSH2 0x599 DUP3 PUSH2 0x4D7 JUMP JUMPDEST PUSH2 0x5A3 DUP2 DUP6 PUSH2 0x4E1 JUMP JUMPDEST SWAP4 POP DUP4 PUSH1 0x20 DUP3 MUL DUP6 ADD PUSH2 0x5B5 DUP6 PUSH2 0x4F1 JUMP JUMPDEST DUP1 PUSH0 JUMPDEST DUP6 DUP2 LT ISZERO PUSH2 0x5F0 JUMPI DUP5 DUP5 SUB DUP10 MSTORE DUP2 MLOAD PUSH2 0x5D1 DUP6 DUP3 PUSH2 0x570 JUMP JUMPDEST SWAP5 POP PUSH2 0x5DC DUP4 PUSH2 0x583 JUMP JUMPDEST SWAP3 POP PUSH1 0x20 DUP11 ADD SWAP10 POP POP PUSH1 0x1 DUP2 ADD SWAP1 POP PUSH2 0x5B8 JUMP JUMPDEST POP DUP3 SWAP8 POP DUP8 SWAP6 POP POP POP POP POP POP SWAP3 SWAP2 POP POP JUMP JUMPDEST PUSH0 PUSH1 0x20 DUP3 ADD SWAP1 POP DUP2 DUP2 SUB PUSH0 DUP4 ADD MSTORE PUSH2 0x61A DUP2 DUP5 PUSH2 0x58F JUMP JUMPDEST SWAP1 POP SWAP3 SWAP2 POP POP JUMP JUMPDEST PUSH2 0x62B DUP2 PUSH2 0x479 JUMP JUMPDEST DUP3 MSTORE POP POP JUMP JUMPDEST PUSH0 PUSH1 0x20 DUP3 ADD SWAP1 POP PUSH2 0x644 PUSH0 DUP4 ADD DUP5 PUSH2 0x622 JUMP JUMPDEST SWAP3 SWAP2 POP POP JUMP JUMPDEST PUSH0 PUSH0 REVERT JUMPDEST PUSH32 0x4E487B7100000000000000000000000000000000000000000000000000000000 PUSH0 MSTORE PUSH1 0x41 PUSH1 0x4 MSTORE PUSH1 0x24 PUSH0 REVERT JUMPDEST PUSH2 0x684 DUP3 PUSH2 0x528 JUMP JUMPDEST DUP2 ADD DUP2 DUP2 LT PUSH8 0xFFFFFFFFFFFFFFFF DUP3 GT OR ISZERO PUSH2 0x6A3 JUMPI PUSH2 0x6A2 PUSH2 0x64E JUMP JUMPDEST JUMPDEST DUP1 PUSH1 0x40 MSTORE POP POP POP JUMP JUMPDEST PUSH0 PUSH2 0x6B5 PUSH2 0x468 JUMP JUMPDEST SWAP1 POP PUSH2 0x6C1 DUP3 DUP3 PUSH2 0x67B JUMP JUMPDEST SWAP2 SWAP1 POP JUMP JUMPDEST PUSH0 PUSH8 0xFFFFFFFFFFFFFFFF DUP3 GT ISZERO PUSH2 0x6E0 JUMPI PUSH2 0x6DF PUSH2 0x64E JUMP JUMPDEST JUMPDEST PUSH1 0x20 DUP3 MUL SWAP1 POP PUSH1 0x20 DUP2 ADD SWAP1 POP SWAP2 SWAP1 POP JUMP JUMPDEST PUSH0 PUSH0 REVERT JUMPDEST PUSH0 PUSH2 0x707 PUSH2 0x702 DUP5 PUSH2 0x6C6 JUMP JUMPDEST PUSH2 0x6AC JUMP JUMPDEST SWAP1 POP DUP1 DUP4 DUP3 MSTORE PUSH1 0x20 DUP3 ADD SWAP1 POP PUSH1 0x20 DUP5 MUL DUP4 ADD DUP6 DUP2 GT ISZERO PUSH2 0x72A JUMPI PUSH2 0x729 PUSH2 0x6F1 JUMP JUMPDEST JUMPDEST DUP4 JUMPDEST DUP2 DUP2 LT ISZERO PUSH2 0x753 JUMPI DUP1 PUSH2 0x73F DUP9 DUP3 PUSH2 0x498 JUMP JUMPDEST DUP5 MSTORE PUSH1 0x20 DUP5 ADD SWAP4 POP POP PUSH1 0x20 DUP2 ADD SWAP1 POP PUSH2 0x72C JUMP JUMPDEST POP POP POP SWAP4 SWAP3 POP POP POP JUMP JUMPDEST PUSH0 DUP3 PUSH1 0x1F DUP4 ADD SLT PUSH2 0x771 JUMPI PUSH2 0x770 PUSH2 0x64A JUMP JUMPDEST JUMPDEST DUP2 CALLDATALOAD PUSH2 0x781 DUP5 DUP3 PUSH1 0x20 DUP7 ADD PUSH2 0x6F5 JUMP JUMPDEST SWAP2 POP POP SWAP3 SWAP2 POP POP JUMP JUMPDEST PUSH0 PUSH1 0x20 DUP3 DUP5 SUB SLT ISZERO PUSH2 0x79F JUMPI PUSH2 0x79E PUSH2 0x471 JUMP JUMPDEST JUMPDEST PUSH0 DUP3 ADD CALLDATALOAD PUSH8 0xFFFFFFFFFFFFFFFF DUP2 GT ISZERO PUSH2 0x7BC JUMPI PUSH2 0x7BB PUSH2 0x475 JUMP JUMPDEST JUMPDEST PUSH2 0x7C8 DUP5 DUP3 DUP6 ADD PUSH2 0x75D JUMP JUMPDEST SWAP2 POP POP SWAP3 SWAP2 POP POP JUMP JUMPDEST PUSH0 DUP3 DUP3 MSTORE PUSH1 0x20 DUP3 ADD SWAP1 POP SWAP3 SWAP2 POP POP JUMP JUMPDEST PUSH0 PUSH2 0x7EB DUP3 PUSH2 0x500 JUMP JUMPDEST PUSH2 0x7F5 DUP2 DUP6 PUSH2 0x7D1 JUMP JUMPDEST SWAP4 POP PUSH2 0x805 DUP2 DUP6 PUSH1 0x20 DUP7 ADD PUSH2 0x51A JUMP JUMPDEST PUSH2 0x80E DUP2 PUSH2 0x528 JUMP JUMPDEST DUP5 ADD SWAP2 POP POP SWAP3 SWAP2 POP POP JUMP JUMPDEST PUSH0 PUSH1 0x20 DUP3 ADD SWAP1 POP DUP2 DUP2 SUB PUSH0 DUP4 ADD MSTORE PUSH2 0x831 DUP2 DUP5 PUSH2 0x7E1 JUMP JUMPDEST SWAP1 POP SWAP3 SWAP2 POP POP JUMP JUMPDEST PUSH0 PUSH0 REVERT JUMPDEST PUSH0 PUSH8 0xFFFFFFFFFFFFFFFF DUP3 GT ISZERO PUSH2 0x857 JUMPI PUSH2 0x856 PUSH2 0x64E JUMP JUMPDEST JUMPDEST PUSH2 0x860 DUP3 PUSH2 0x528 JUMP JUMPDEST SWAP1 POP PUSH1 0x20 DUP2 ADD SWAP1 POP SWAP2 SWAP1 POP JUMP JUMPDEST DUP3 DUP2 DUP4 CALLDATACOPY PUSH0 DUP4 DUP4 ADD MSTORE POP POP POP JUMP JUMPDEST PUSH0 PUSH2 0x88D PUSH2 0x888 DUP5 PUSH2 0x83D JUMP JUMPDEST PUSH2 0x6AC JUMP JUMPDEST SWAP1 POP DUP3 DUP2 MSTORE PUSH1 0x20 DUP2 ADD DUP5 DUP5 DUP5 ADD GT ISZERO PUSH2 0x8A9 JUMPI PUSH2 0x8A8 PUSH2 0x839 JUMP JUMPDEST JUMPDEST PUSH2 0x8B4 DUP5 DUP3 DUP6 PUSH2 0x86D JUMP JUMPDEST POP SWAP4 SWAP3 POP POP POP JUMP JUMPDEST PUSH0 DUP3 PUSH1 0x1F DUP4 ADD SLT PUSH2 0x8D0 JUMPI PUSH2 0x8CF PUSH2 0x64A JUMP JUMPDEST JUMPDEST DUP2 CALLDATALOAD PUSH2 0x8E0 DUP5 DUP3 PUSH1 0x20 DUP7 ADD PUSH2 0x87B JUMP JUMPDEST SWAP2 POP POP SWAP3 SWAP2 POP POP JUMP JUMPDEST PUSH0 PUSH1 0x20 DUP3 DUP5 SUB SLT ISZERO PUSH2 0x8FE JUMPI PUSH2 0x8FD PUSH2 0x471 JUMP JUMPDEST JUMPDEST PUSH0 DUP3 ADD CALLDATALOAD PUSH8 0xFFFFFFFFFFFFFFFF DUP2 GT ISZERO PUSH2 0x91B JUMPI PUSH2 0x91A PUSH2 0x475 JUMP JUMPDEST JUMPDEST PUSH2 0x927 DUP5 DUP3 DUP6 ADD PUSH2 0x8BC JUMP JUMPDEST SWAP2 POP POP SWAP3 SWAP2 POP POP JUMP JUMPDEST PUSH32 0x4E487B7100000000000000000000000000000000000000000000000000000000 PUSH0 MSTORE PUSH1 0x22 PUSH1 0x4 MSTORE PUSH1 0x24 PUSH0 REVERT JUMPDEST PUSH0 PUSH1 0x2 DUP3 DIV SWAP1 POP PUSH1 0x1 DUP3 AND DUP1 PUSH2 0x974 JUMPI PUSH1 0x7F DUP3 AND SWAP2 POP JUMPDEST PUSH1 0x20 DUP3 LT DUP2 SUB PUSH2 0x987 JUMPI PUSH2 0x986 PUSH2 0x930 JUMP JUMPDEST JUMPDEST POP SWAP2 SWAP1 POP JUMP JUMPDEST PUSH32 0x4E487B7100000000000000000000000000000000000000000000000000000000 PUSH0 MSTORE PUSH1 0x32 PUSH1 0x4 MSTORE PUSH1 0x24 PUSH0 REVERT JUMPDEST PUSH0 DUP2 SWAP1 POP DUP2 PUSH0 MSTORE PUSH1 0x20 PUSH0 KECCAK256 SWAP1 POP SWAP2 SWAP1 POP JUMP JUMPDEST PUSH0 PUSH1 0x20 PUSH1 0x1F DUP4 ADD DIV SWAP1 POP SWAP2 SWAP1 POP JUMP JUMPDEST PUSH0 DUP3 DUP3 SHL SWAP1 POP SWAP3 SWAP2 POP POP JUMP JUMPDEST PUSH0 PUSH1 0x8 DUP4 MUL PUSH2 0xA16 PUSH32 0xFFFFFFFFFFFFFFFFFFFFFFFFFFFFFFFFFFFFFFFFFFFFFFFFFFFFFFFFFFFFFFFF DUP3 PUSH2 0x9DB JUMP JUMPDEST PUSH2 0xA20 DUP7 DUP4 PUSH2 0x9DB JUMP JUMPDEST SWAP6 POP DUP1 NOT DUP5 AND SWAP4 POP DUP1 DUP7 AND DUP5 OR SWAP3 POP POP POP SWAP4 SWAP3 POP POP POP JUMP JUMPDEST PUSH0 DUP2 SWAP1 POP SWAP2 SWAP1 POP JUMP JUMPDEST PUSH0 PUSH2 0xA5B PUSH2 0xA56 PUSH2 0xA51 DUP5 PUSH2 0x479 JUMP JUMPDEST PUSH2 0xA38 JUMP JUMPDEST PUSH2 0x479 JUMP JUMPDEST SWAP1 POP SWAP2 SWAP1 POP JUMP JUMPDEST PUSH0 DUP2 SWAP1 POP SWAP2 SWAP1 POP JUMP JUMPDEST PUSH2 0xA74 DUP4 PUSH2 0xA41 JUMP JUMPDEST PUSH2 0xA88 PUSH2 0xA80 DUP3 PUSH2 0xA62 JUMP JUMPDEST DUP5 DUP5 SLOAD PUSH2 0x9E7 JUMP JUMPDEST DUP3 SSTORE POP POP POP POP JUMP JUMPDEST PUSH0 PUSH0 SWAP1 POP SWAP1 JUMP JUMPDEST PUSH2 0xA9F PUSH2 0xA90 JUMP JUMPDEST PUSH2 0xAAA DUP2 DUP5 DUP5 PUSH2 0xA6B JUMP JUMPDEST POP POP POP JUMP JUMPDEST JUMPDEST DUP2 DUP2 LT ISZERO PUSH2 0xACD JUMPI PUSH2 0xAC2 PUSH0 DUP3 PUSH2 0xA97 JUMP JUMPDEST PUSH1 0x1 DUP2 ADD SWAP1 POP PUSH2 0xAB0 JUMP JUMPDEST POP POP JUMP JUMPDEST PUSH1 0x1F DUP3 GT ISZERO PUSH2 0xB12 JUMPI PUSH2 0xAE3 DUP2 PUSH2 0x9BA JUMP JUMPDEST PUSH2 0xAEC DUP5 PUSH2 0x9CC JUMP JUMPDEST DUP2 ADD PUSH1 0x20 DUP6 LT ISZERO PUSH2 0xAFB JUMPI DUP2 SWAP1 POP JUMPDEST PUSH2 0xB0F PUSH2 0xB07 DUP6 PUSH2 0x9CC JUMP JUMPDEST DUP4 ADD DUP3 PUSH2 0xAAF JUMP JUMPDEST POP POP JUMPDEST POP POP POP JUMP JUMPDEST PUSH0 DUP3 DUP3 SHR SWAP1 POP SWAP3 SWAP2 POP POP JUMP JUMPDEST PUSH0 PUSH2 0xB32 PUSH0 NOT DUP5 PUSH1 0x8 MUL PUSH2 0xB17 JUMP JUMPDEST NOT DUP1 DUP4 AND SWAP2 POP POP SWAP3 SWAP2 POP POP JUMP JUMPDEST PUSH0 PUSH2 0xB4A DUP4 DUP4 PUSH2 0xB23 JUMP JUMPDEST SWAP2 POP DUP3 PUSH1 0x2 MUL DUP3 OR SWAP1 POP SWAP3 SWAP2 POP POP JUMP JUMPDEST PUSH2 0xB63 DUP3 PUSH2 0x500 JUMP JUMPDEST PUSH8 0xFFFFFFFFFFFFFFFF DUP2 GT ISZERO PUSH2 0xB7C JUMPI PUSH2 0xB7B PUSH2 0x64E JUMP JUMPDEST JUMPDEST PUSH2 0xB86 DUP3 SLOAD PUSH2 0x95D JUMP JUMPDEST PUSH2 0xB91 DUP3 DUP3 DUP6 PUSH2 0xAD1 JUMP JUMPDEST PUSH0 PUSH1 0x20 SWAP1 POP PUSH1 0x1F DUP4 GT PUSH1 0x1 DUP2 EQ PUSH2 0xBC2 JUMPI PUSH0 DUP5 ISZERO PUSH2 0xBB0 JUMPI DUP3 DUP8 ADD MLOAD SWAP1 POP JUMPDEST PUSH2 0xBBA DUP6 DUP3 PUSH2 0xB3F JUMP JUMPDEST DUP7 SSTORE POP PUSH2 0xC21 JUMP JUMPDEST PUSH1 0x1F NOT DUP5 AND PUSH2 0xBD0 DUP7 PUSH2 0x9BA JUMP JUMPDEST PUSH0 JUMPDEST DUP3 DUP2 LT ISZERO PUSH2 0xBF7 JUMPI DUP5 DUP10 ADD MLOAD DUP3 SSTORE PUSH1 0x1 DUP3 ADD SWAP2 POP PUSH1 0x20 DUP6 ADD SWAP5 POP PUSH1 0x20 DUP2 ADD SWAP1 POP PUSH2 0xBD2 JUMP JUMPDEST DUP7 DUP4 LT ISZERO PUSH2 0xC14 JUMPI DUP5 DUP10 ADD MLOAD PUSH2 0xC10 PUSH1 0x1F DUP10 AND DUP3 PUSH2 0xB23 JUMP JUMPDEST DUP4 SSTORE POP JUMPDEST PUSH1 0x1 PUSH1 0x2 DUP9 MUL ADD DUP9 SSTORE POP POP POP JUMPDEST POP POP POP POP POP POP JUMP JUMPDEST PUSH32 0x4E487B7100000000000000000000000000000000000000000000000000000000 PUSH0 MSTORE PUSH1 0x11 PUSH1 0x4 MSTORE PUSH1 0x24 PUSH0 REVERT JUMPDEST PUSH0 PUSH1 0xFF DUP3 AND SWAP1 POP SWAP2 SWAP1 POP JUMP JUMPDEST PUSH0 PUSH2 0xC6C DUP3 PUSH2 0xC56 JUMP JUMPDEST SWAP2 POP PUSH1 0xFF DUP3 SUB PUSH2 0xC7F JUMPI PUSH2 0xC7E PUSH2 0xC29 JUMP JUMPDEST JUMPDEST PUSH1 0x1 DUP3 ADD SWAP1 POP SWAP2 SWAP1 POP JUMP INVALID LOG2 PUSH5 0x6970667358 0x22 SLT KECCAK256 MULMOD PUSH3 0xC8F6EB 0x29 0xD2 DUP12 DUP16 PUSH4 0x4EAC5C77 CREATE EXTCODESIZE MLOAD SELFBALANCE DUPN 0x44 RETF 0xDA LOG4 0xAD SWAP4 0xBD 0x2C PUSH27 0x16DD31AE64736F6C634300081E0033000000000000000000000000 "
				},
				"gasEstimates": {
					"creation": {
						"codeDepositCost": "652800",
						"executionCost": "infinite",
						"totalCost": "infinite"
					},
					"external": {
						"add(uint256)": "46798",
						"addAll(uint256[])": "infinite",
						"addStr(string)": "infinite",
						"arr(uint256)": "infinite",
						"arr2(uint256)": "infinite",
						"get()": "infinite"
					}
				},
				"methodIdentifiers": {
					"add(uint256)": "1003e2d2",
					"addAll(uint256[])": "90a339d4",
					"addStr(string)": "f982c2cd",
					"arr(uint256)": "71e5ee5f",
					"arr2(uint256)": "edf0099b",
					"get()": "6d4ce63c"
				}
			},
			"storageLayout": {
				"storage": [
					{
						"astId": 10,
						"contract": "array.sol:Array",
						"label": "arr",
						"offset": 0,
						"slot": "0",
						"type": "t_array(t_uint256)dyn_storage"
					},
					{
						"astId": 17,
						"contract": "array.sol:Array",
						"label": "arr2",
						"offset": 0,
						"slot": "1",
						"type": "t_array(t_string_storage)dyn_storage"
					}
				],
				"types": {
					"t_array(t_string_storage)dyn_storage": {
						"base": "t_string_storage",
						"encoding": "dynamic_array",
						"label": "string[]",
						"numberOfBytes": "32"
					},
					"t_array(t_uint256)dyn_storage": {
						"base": "t_uint256",
						"encoding": "dynamic_array",
						"label": "uint256[]",
						"numberOfBytes": "32"
					},
					"t_string_storage": {
						"encoding": "bytes",
						"label": "string",
						"numberOfBytes": "32"
					},
					"t_uint256": {
						"encoding": "inplace",
						"label": "uint256",
						"numberOfBytes": "32"
					}
				}
			},
			"userdoc": {
				"kind": "user",
				"methods": {},
				"version": 1
			}
		}
	}
}