{
	"data": {
		"bytecode": {
			"linkReferences": {},
			"object": "6080604052348015600e575f5ffd5b506107138061001c5f395ff3fe608060405234801561000f575f5ffd5b5060043610610034575f3560e01c80635d69b88c14610038578063a4f402e114610068575b5f5ffd5b610052600480360381019061004d9190610475565b610084565b60405161005f91906105a2565b60405180910390f35b610082600480360381019061007d91906105c2565b6102c2565b005b60605f835190505f835190505f818361009d9190610636565b67ffffffffffffffff8111156100b6576100b5610306565b5b6040519080825280602002602001820160405280156100e45781602001602082028036833780820191505090505b5090505f5f90505f5f90505f5f90505b858310801561010257508482105b156101eb5787828151811061011a57610119610669565b5b602002602001015189848151811061013557610134610669565b5b60200260200101511161018f5788838151811061015557610154610669565b5b60200260200101518482815181106101705761016f610669565b5b602002602001018181525050828061018790610696565b9350506101d8565b8782815181106101a2576101a1610669565b5b60200260200101518482815181106101bd576101bc610669565b5b60200260200101818152505081806101d490610696565b9250505b80806101e390610696565b9150506100f4565b5b8583101561024f5788838151811061020757610206610669565b5b602002602001015184828151811061022257610221610669565b5b602002602001018181525050828061023990610696565b935050808061024790610696565b9150506101ec565b5b848210156102b35787828151811061026b5761026a610669565b5b602002602001015184828151811061028657610285610669565b5b602002602001018181525050818061029d90610696565b92505080806102ab90610696565b915050610250565b83965050505050505092915050565b5f5f90505b81518110156102dd5780806001019150506102c7565b5050565b5f604051905090565b5f5ffd5b5f5ffd5b5f5ffd5b5f601f19601f8301169050919050565b7f4e487b71000000000000000000000000000000000000000000000000000000005f52604160045260245ffd5b61033c826102f6565b810181811067ffffffffffffffff8211171561035b5761035a610306565b5b80604052505050565b5f61036d6102e1565b90506103798282610333565b919050565b5f67ffffffffffffffff82111561039857610397610306565b5b602082029050602081019050919050565b5f5ffd5b5f819050919050565b6103bf816103ad565b81146103c9575f5ffd5b50565b5f813590506103da816103b6565b92915050565b5f6103f26103ed8461037e565b610364565b90508083825260208201905060208402830185811115610415576104146103a9565b5b835b8181101561043e578061042a88826103cc565b845260208401935050602081019050610417565b5050509392505050565b5f82601f83011261045c5761045b6102f2565b5b813561046c8482602086016103e0565b91505092915050565b5f5f6040838503121561048b5761048a6102ea565b5b5f83013567ffffffffffffffff8111156104a8576104a76102ee565b5b6104b485828601610448565b925050602083013567ffffffffffffffff8111156104d5576104d46102ee565b5b6104e185828601610448565b9150509250929050565b5f81519050919050565b5f82825260208201905092915050565b5f819050602082019050919050565b61051d816103ad565b82525050565b5f61052e8383610514565b60208301905092915050565b5f602082019050919050565b5f610550826104eb565b61055a81856104f5565b935061056583610505565b805f5b8381101561059557815161057c8882610523565b97506105878361053a565b925050600181019050610568565b5085935050505092915050565b5f6020820190508181035f8301526105ba8184610546565b905092915050565b5f602082840312156105d7576105d66102ea565b5b5f82013567ffffffffffffffff8111156105f4576105f36102ee565b5b61060084828501610448565b91505092915050565b7f4e487b71000000000000000000000000000000000000000000000000000000005f52601160045260245ffd5b5f610640826103ad565b915061064b836103ad565b925082820190508082111561066357610662610609565b5b92915050565b7f4e487b71000000000000000000000000000000000000000000000000000000005f52603260045260245ffd5b5f6106a0826103ad565b91507fffffffffffffffffffffffffffffffffffffffffffffffffffffffffffffffff82036106d2576106d1610609565b5b60018201905091905056fea26469706673582212209bda50c794dc0e4f5782b7b542b044b91d1331c61e5833c0e65bc43010ee5cd164736f6c634300081e0033",
			"opcodes": "PUSH1 0x80 PUSH1 0x40 MSTORE CALLVALUE DUP1 ISZERO PUSH1 0xE JUMPI PUSH0 PUSH0 REVERT JUMPDEST POP PUSH2 0x713 DUP1 PUSH2 0x1C PUSH0 CODECOPY PUSH0 RETURN INVALID PUSH1 0x80 PUSH1 0x40 MSTORE CALLVALUE DUP1 ISZERO PUSH2 0xF JUMPI PUSH0 PUSH0 REVERT JUMPDEST POP PUSH1 0x4 CALLDATASIZE LT PUSH2 0x34 JUMPI PUSH0 CALLDATALOAD PUSH1 0xE0 SHR DUP1 PUSH4 0x5D69B88C EQ PUSH2 0x38 JUMPI DUP1 PUSH4 0xA4F402E1 EQ PUSH2 0x68 JUMPI JUMPDEST PUSH0 PUSH0 REVERT JUMPDEST PUSH2 0x52 PUSH1 0x4 DUP1 CALLDATASIZE SUB DUP2 ADD SWAP1 PUSH2 0x4D SWAP2 SWAP1 PUSH2 0x475 JUMP JUMPDEST PUSH2 0x84 JUMP JUMPDEST PUSH1 0x40 MLOAD PUSH2 0x5F SWAP2 SWAP1 PUSH2 0x5A2 JUMP JUMPDEST PUSH1 0x40 MLOAD DUP1 SWAP2 SUB SWAP1 RETURN JUMPDEST PUSH2 0x82 PUSH1 0x4 DUP1 CALLDATASIZE SUB DUP2 ADD SWAP1 PUSH2 0x7D SWAP2 SWAP1 PUSH2 0x5C2 JUMP JUMPDEST PUSH2 0x2C2 JUMP JUMPDEST STOP JUMPDEST PUSH1 0x60 PUSH0 DUP4 MLOAD SWAP1 POP PUSH0 DUP4 MLOAD SWAP1 POP PUSH0 DUP2 DUP4 PUSH2 0x9D SWAP2 SWAP1 PUSH2 0x636 JUMP JUMPDEST PUSH8 0xFFFFFFFFFFFFFFFF DUP2 GT ISZERO PUSH2 0xB6 JUMPI PUSH2 0xB5 PUSH2 0x306 JUMP JUMPDEST JUMPDEST PUSH1 0x40 MLOAD SWAP1 DUP1 DUP3 MSTORE DUP1 PUSH1 0x20 MUL PUSH1 0x20 ADD DUP3 ADD PUSH1 0x40 MSTORE DUP1 ISZERO PUSH2 0xE4 JUMPI DUP2 PUSH1 0x20 ADD PUSH1 0x20 DUP3 MUL DUP1 CALLDATASIZE DUP4 CALLDATACOPY DUP1 DUP3 ADD SWAP2 POP POP SWAP1 POP JUMPDEST POP SWAP1 POP PUSH0 PUSH0 SWAP1 POP PUSH0 PUSH0 SWAP1 POP PUSH0 PUSH0 SWAP1 POP JUMPDEST DUP6 DUP4 LT DUP1 ISZERO PUSH2 0x102 JUMPI POP DUP5 DUP3 LT JUMPDEST ISZERO PUSH2 0x1EB JUMPI DUP8 DUP3 DUP2 MLOAD DUP2 LT PUSH2 0x11A JUMPI PUSH2 0x119 PUSH2 0x669 JUMP JUMPDEST JUMPDEST PUSH1 0x20 MUL PUSH1 0x20 ADD ADD MLOAD DUP10 DUP5 DUP2 MLOAD DUP2 LT PUSH2 0x135 JUMPI PUSH2 0x134 PUSH2 0x669 JUMP JUMPDEST JUMPDEST PUSH1 0x20 MUL PUSH1 0x20 ADD ADD MLOAD GT PUSH2 0x18F JUMPI DUP9 DUP4 DUP2 MLOAD DUP2 LT PUSH2 0x155 JUMPI PUSH2 0x154 PUSH2 0x669 JUMP JUMPDEST JUMPDEST PUSH1 0x20 MUL PUSH1 0x20 ADD ADD MLOAD DUP5 DUP3 DUP2 MLOAD DUP2 LT PUSH2 0x170 JUMPI PUSH2 0x16F PUSH2 0x669 JUMP JUMPDEST JUMPDEST PUSH1 0x20 MUL PUSH1 0x20 ADD ADD DUP2 DUP2 MSTORE POP POP DUP3 DUP1 PUSH2 0x187 SWAP1 PUSH2 0x696 JUMP JUMPDEST SWAP4 POP POP PUSH2 0x1D8 JUMP JUMPDEST DUP8 DUP3 DUP2 MLOAD DUP2 LT PUSH2 0x1A2 JUMPI PUSH2 0x1A1 PUSH2 0x669 JUMP JUMPDEST JUMPDEST PUSH1 0x20 MUL PUSH1 0x20 ADD ADD MLOAD DUP5 DUP3 DUP2 MLOAD DUP2 LT PUSH2 0x1BD JUMPI PUSH2 0x1BC PUSH2 0x669 JUMP JUMPDEST JUMPDEST PUSH1 0x20 MUL PUSH1 0x20 ADD ADD DUP2 DUP2 MSTORE POP POP DUP2 DUP1 PUSH2 0x1D4 SWAP1 PUSH2 0x696 JUMP JUMPDEST SWAP3 POP POP JUMPDEST DUP1 DUP1 PUSH2 0x1E3 SWAP1 PUSH2 0x696 JUMP JUMPDEST SWAP2 POP POP PUSH2 0xF4 JUMP JUMPDEST JUMPDEST DUP6 DUP4 LT ISZERO PUSH2 0x24F JUMPI DUP9 DUP4 DUP2 MLOAD DUP2 LT PUSH2 0x207 JUMPI PUSH2 0x206 PUSH2 0x669 JUMP JUMPDEST JUMPDEST PUSH1 0x20 MUL PUSH1 0x20 ADD ADD MLOAD DUP5 DUP3 DUP2 MLOAD DUP2 LT PUSH2 0x222 JUMPI PUSH2 0x221 PUSH2 0x669 JUMP JUMPDEST JUMPDEST PUSH1 0x20 MUL PUSH1 0x20 ADD ADD DUP2 DUP2 MSTORE POP POP DUP3 DUP1 PUSH2 0x239 SWAP1 PUSH2 0x696 JUMP JUMPDEST SWAP4 POP POP DUP1 DUP1 PUSH2 0x247 SWAP1 PUSH2 0x696 JUMP JUMPDEST SWAP2 POP POP PUSH2 0x1EC JUMP JUMPDEST JUMPDEST DUP5 DUP3 LT ISZERO PUSH2 0x2B3 JUMPI DUP8 DUP3 DUP2 MLOAD DUP2 LT PUSH2 0x26B JUMPI PUSH2 0x26A PUSH2 0x669 JUMP JUMPDEST JUMPDEST PUSH1 0x20 MUL PUSH1 0x20 ADD ADD MLOAD DUP5 DUP3 DUP2 MLOAD DUP2 LT PUSH2 0x286 JUMPI PUSH2 0x285 PUSH2 0x669 JUMP JUMPDEST JUMPDEST PUSH1 0x20 MUL PUSH1 0x20 ADD ADD DUP2 DUP2 MSTORE POP POP DUP2 DUP1 PUSH2 0x29D SWAP1 PUSH2 0x696 JUMP JUMPDEST SWAP3 POP POP DUP1 DUP1 PUSH2 0x2AB SWAP1 PUSH2 0x696 JUMP JUMPDEST SWAP2 POP POP PUSH2 0x250 JUMP JUMPDEST DUP4 SWAP7 POP POP POP POP POP POP POP SWAP3 SWAP2 POP POP JUMP JUMPDEST PUSH0 PUSH0 SWAP1 POP JUMPDEST DUP2 MLOAD DUP2 LT ISZERO PUSH2 0x2DD JUMPI DUP1 DUP1 PUSH1 0x1 ADD SWAP2 POP POP PUSH2 0x2C7 JUMP JUMPDEST POP POP JUMP JUMPDEST PUSH0 PUSH1 0x40 MLOAD SWAP1 POP SWAP1 JUMP JUMPDEST PUSH0 PUSH0 REVERT JUMPDEST PUSH0 PUSH0 REVERT JUMPDEST PUSH0 PUSH0 REVERT JUMPDEST PUSH0 PUSH1 0x1F NOT PUSH1 0x1F DUP4 ADD AND SWAP1 POP SWAP2 SWAP1 POP JUMP JUMPDEST PUSH32 0x4E487B7100000000000000000000000000000000000000000000000000000000 PUSH0 MSTORE PUSH1 0x41 PUSH1 0x4 MSTORE PUSH1 0x24 PUSH0 REVERT JUMPDEST PUSH2 0x33C DUP3 PUSH2 0x2F6 JUMP JUMPDEST DUP2 ADD DUP2 DUP2 LT PUSH8 0xFFFFFFFFFFFFFFFF DUP3 GT OR ISZERO PUSH2 0x35B JUMPI PUSH2 0x35A PUSH2 0x306 JUMP JUMPDEST JUMPDEST DUP1 PUSH1 0x40 MSTORE POP POP POP JUMP JUMPDEST PUSH0 PUSH2 0x36D PUSH2 0x2E1 JUMP JUMPDEST SWAP1 POP PUSH2 0x379 DUP3 DUP3 PUSH2 0x333 JUMP JUMPDEST SWAP2 SWAP1 POP JUMP JUMPDEST PUSH0 PUSH8 0xFFFFFFFFFFFFFFFF DUP3 GT ISZERO PUSH2 0x398 JUMPI PUSH2 0x397 PUSH2 0x306 JUMP JUMPDEST JUMPDEST PUSH1 0x20 DUP3 MUL SWAP1 POP PUSH1 0x20 DUP2 ADD SWAP1 POP SWAP2 SWAP1 POP JUMP JUMPDEST PUSH0 PUSH0 REVERT JUMPDEST PUSH0 DUP2 SWAP1 POP SWAP2 SWAP1 POP JUMP JUMPDEST PUSH2 0x3BF DUP2 PUSH2 0x3AD JUMP JUMPDEST DUP2 EQ PUSH2 0x3C9 JUMPI PUSH0 PUSH0 REVERT JUMPDEST POP JUMP JUMPDEST PUSH0 DUP2 CALLDATALOAD SWAP1 POP PUSH2 0x3DA DUP2 PUSH2 0x3B6 JUMP JUMPDEST SWAP3 SWAP2 POP POP JUMP JUMPDEST PUSH0 PUSH2 0x3F2 PUSH2 0x3ED DUP5 PUSH2 0x37E JUMP JUMPDEST PUSH2 0x364 JUMP JUMPDEST SWAP1 POP DUP1 DUP4 DUP3 MSTORE PUSH1 0x20 DUP3 ADD SWAP1 POP PUSH1 0x20 DUP5 MUL DUP4 ADD DUP6 DUP2 GT ISZERO PUSH2 0x415 JUMPI PUSH2 0x414 PUSH2 0x3A9 JUMP JUMPDEST JUMPDEST DUP4 JUMPDEST DUP2 DUP2 LT ISZERO PUSH2 0x43E JUMPI DUP1 PUSH2 0x42A DUP9 DUP3 PUSH2 0x3CC JUMP JUMPDEST DUP5 MSTORE PUSH1 0x20 DUP5 ADD SWAP4 POP POP PUSH1 0x20 DUP2 ADD SWAP1 POP PUSH2 0x417 JUMP JUMPDEST POP POP POP SWAP4 SWAP3 POP POP POP JUMP JUMPDEST PUSH0 DUP3 PUSH1 0x1F DUP4 ADD SLT PUSH2 0x45C JUMPI PUSH2 0x45B PUSH2 0x2F2 JUMP JUMPDEST JUMPDEST DUP2 CALLDATALOAD PUSH2 0x46C DUP5 DUP3 PUSH1 0x20 DUP7 ADD PUSH2 0x3E0 JUMP JUMPDEST SWAP2 POP POP SWAP3 SWAP2 POP POP JUMP JUMPDEST PUSH0 PUSH0 PUSH1 0x40 DUP4 DUP6 SUB SLT ISZERO PUSH2 0x48B JUMPI PUSH2 0x48A PUSH2 0x2EA JUMP JUMPDEST JUMPDEST PUSH0 DUP4 ADD CALLDATALOAD PUSH8 0xFFFFFFFFFFFFFFFF DUP2 GT ISZERO PUSH2 0x4A8 JUMPI PUSH2 0x4A7 PUSH2 0x2EE JUMP JUMPDEST JUMPDEST PUSH2 0x4B4 DUP6 DUP3 DUP7 ADD PUSH2 0x448 JUMP JUMPDEST SWAP3 POP POP PUSH1 0x20 DUP4 ADD CALLDATALOAD PUSH8 0xFFFFFFFFFFFFFFFF DUP2 GT ISZERO PUSH2 0x4D5 JUMPI PUSH2 0x4D4 PUSH2 0x2EE JUMP JUMPDEST JUMPDEST PUSH2 0x4E1 DUP6 DUP3 DUP7 ADD PUSH2 0x448 JUMP JUMPDEST SWAP2 POP POP SWAP3 POP SWAP3 SWAP1 POP JUMP JUMPDEST PUSH0 DUP2 MLOAD SWAP1 POP SWAP2 SWAP1 POP JUMP JUMPDEST PUSH0 DUP3 DUP3 MSTORE PUSH1 0x20 DUP3 ADD SWAP1 POP SWAP3 SWAP2 POP POP JUMP JUMPDEST PUSH0 DUP2 SWAP1 POP PUSH1 0x20 DUP3 ADD SWAP1 POP SWAP2 SWAP1 POP JUMP JUMPDEST PUSH2 0x51D DUP2 PUSH2 0x3AD JUMP JUMPDEST DUP3 MSTORE POP POP JUMP JUMPDEST PUSH0 PUSH2 0x52E DUP4 DUP4 PUSH2 0x514 JUMP JUMPDEST PUSH1 0x20 DUP4 ADD SWAP1 POP SWAP3 SWAP2 POP POP JUMP JUMPDEST PUSH0 PUSH1 0x20 DUP3 ADD SWAP1 POP SWAP2 SWAP1 POP JUMP JUMPDEST PUSH0 PUSH2 0x550 DUP3 PUSH2 0x4EB JUMP JUMPDEST PUSH2 0x55A DUP2 DUP6 PUSH2 0x4F5 JUMP JUMPDEST SWAP4 POP PUSH2 0x565 DUP4 PUSH2 0x505 JUMP JUMPDEST DUP1 PUSH0 JUMPDEST DUP4 DUP2 LT ISZERO PUSH2 0x595 JUMPI DUP2 MLOAD PUSH2 0x57C DUP9 DUP3 PUSH2 0x523 JUMP JUMPDEST SWAP8 POP PUSH2 0x587 DUP4 PUSH2 0x53A JUMP JUMPDEST SWAP3 POP POP PUSH1 0x1 DUP2 ADD SWAP1 POP PUSH2 0x568 JUMP JUMPDEST POP DUP6 SWAP4 POP POP POP POP SWAP3 SWAP2 POP POP JUMP JUMPDEST PUSH0 PUSH1 0x20 DUP3 ADD SWAP1 POP DUP2 DUP2 SUB PUSH0 DUP4 ADD MSTORE PUSH2 0x5BA DUP2 DUP5 PUSH2 0x546 JUMP JUMPDEST SWAP1 POP SWAP3 SWAP2 POP POP JUMP JUMPDEST PUSH0 PUSH1 0x20 DUP3 DUP5 SUB SLT ISZERO PUSH2 0x5D7 JUMPI PUSH2 0x5D6 PUSH2 0x2EA JUMP JUMPDEST JUMPDEST PUSH0 DUP3 ADD CALLDATALOAD PUSH8 0xFFFFFFFFFFFFFFFF DUP2 GT ISZERO PUSH2 0x5F4 JUMPI PUSH2 0x5F3 PUSH2 0x2EE JUMP JUMPDEST JUMPDEST PUSH2 0x600 DUP5 DUP3 DUP6 ADD PUSH2 0x448 JUMP JUMPDEST SWAP2 POP POP SWAP3 SWAP2 POP POP JUMP JUMPDEST PUSH32 0x4E487B7100000000000000000000000000000000000000000000000000000000 PUSH0 MSTORE PUSH1 0x11 PUSH1 0x4 MSTORE PUSH1 0x24 PUSH0 REVERT JUMPDEST PUSH0 PUSH2 0x640 DUP3 PUSH2 0x3AD JUMP JUMPDEST SWAP2 POP PUSH2 0x64B DUP4 PUSH2 0x3AD JUMP JUMPDEST SWAP3 POP DUP3 DUP3 ADD SWAP1 POP DUP1 DUP3 GT ISZERO PUSH2 0x663 JUMPI PUSH2 0x662 PUSH2 0x609 JUMP JUMPDEST JUMPDEST SWAP3 SWAP2 POP POP JUMP JUMPDEST PUSH32 0x4E487B7100000000000000000000000000000000000000000000000000000000 PUSH0 MSTORE PUSH1 0x32 PUSH1 0x4 MSTORE PUSH1 0x24 PUSH0 REVERT JUMPDEST PUSH0 PUSH2 0x6A0 DUP3 PUSH2 0x3AD JUMP JUMPDEST SWAP2 POP PUSH32 0xFFFFFFFFFFFFFFFFFFFFFFFFFFFFFFFFFFFFFFFFFFFFFFFFFFFFFFFFFFFFFFFF DUP3 SUB PUSH2 0x6D2 JUMPI PUSH2 0x6D1 PUSH2 0x609 JUMP JUMPDEST JUMPDEST PUSH1 0x1 DUP3 ADD SWAP1 POP SWAP2 SWAP1 POP JUMP INVALID LOG2 PUSH5 0x6970667358 0x22 SLT KECCAK256 SWAP12 0xDA POP 0xC7 SWAP5 0xDC 0xE 0x4F JUMPI DUP3 0xB7 0xB5 TIMESTAMP 0xB0 PREVRANDAO 0xB9 SAR SGT BALANCE 0xC6 0x1E PC CALLER 0xC0 DUPN 0x5B 0xC4 ADDRESS LT RETURNCONTRACT 0x5C DATALOADN 0x6473 PUSH16 0x6C634300081E00330000000000000000 "
		},
		"gasEstimates": {
			"creation": {
				"codeDepositCost": "362200",
				"executionCost": "397",
				"totalCost": "362597"
			},
			"external": {
				"mergeAndReturnNew(uint256[],uint256[])": "infinite",
				"printArray(uint256[])": "infinite"
			}
		},
		"methodIdentifiers": {
			"mergeAndReturnNew(uint256[],uint256[])": "5d69b88c",
			"printArray(uint256[])": "a4f402e1"
		}
	},
	"abi": [
		{
			"inputs": [
				{
					"internalType": "uint256[]",
					"name": "arr1",
					"type": "uint256[]"
				},
				{
					"internalType": "uint256[]",
					"name": "arr2",
					"type": "uint256[]"
				}
			],
			"name": "mergeAndReturnNew",
			"outputs": [
				{
					"internalType": "uint256[]",
					"name": "",
					"type": "uint256[]"
				}
			],
			"stateMutability": "pure",
			"type": "function"
		},
		{
			"inputs": [
				{
					"internalType": "uint256[]",
					"name": "arr",
					"type": "uint256[]"
				}
			],
			"name": "printArray",
			"outputs": [],
			"stateMutability": "pure",
			"type": "function"
		}
	]
}